:400000000010002011000000850F0000850F000080B500AF00F0BAFF80B584B000AF021CFB1D1A70224A3B1C0B3312781A70214A3B1C0A3312781A701F4B1B68013BFB6046
:400040001AE01E4B1868391C0B31FA68131C5B009B18C31801331B780B70184B1868391C0A31FA68131C5B009B18C31802331B780B70FB68013BFB60FB68002B0ADB0F4B59
:400080001968FA68131C5B009B185B5CFA1D12789A42D6D90A4B3A1C0B3212781A60094B3A1C0A3212781A60BD4604B080BDC046CCF1FF0FCDF1FF0F9C700000D0000020DA
:4000C0001CFF0B4020FF0B4080B500AF1B4B1B4A12688021C9020A431A600620FFF79CFF174B06221A60052001F00EFE154B164A1278D2B21A60052001F0EAFE0F4B0F4AFE
:400100001168124A0A401A60114B10221A60114B10221A60104B20221A60104BA62212061A600F4B802212061A600E4B802212061A600D4B0D4A1A60BD4680BD00010B407A
:400140002CFF0B4028FF0B40D3F1FF0FFFFFFBFF080202400C0202401C02024008010B4004010B4000000240400002400100008080B582B000AF72B6444B01221A70FB1D56
:4001800000221A7023E0FB1D1A78131C5B009B185B003F4A9B183B603B681A78597809020A43997809040A43DB781B0613431A1C3B6819795B791B020B439BB2101C191C8C
:4001C00000F068FFFB1DFA1D127801321A70FB1D1B78012BD7D92F4A2F4B101C191C00F069FF2E4BFF2212061A602D4B2D4A1A602D4B0C221A602D4B2D4A1A602D4B402207
:400200001A602D4B2D4A1A602D4B20221A602D4B06221A602C4B20221A602C4B02221A602B4B2C4A1A602C4B02221A602B4B992212041A602A4B2B4A1A602B4B8022120378
:400240001A602A4B992212041A60294B992212041A60284B0D221A60274B0E221A60274B264A1278D2B202210A43D2B21A70234B224A1278D2B206210A43D2B21A70FFF77F
:4002800023FF00F057FFBD4602B080BD1C700F40306F00003C6F00005C6F0000000001400C000140FFEE00000000044008000440860D240000010440080104401800180070
:4002C0000002044008020440180204400003044008030440B10D00001803044000500F4010500F400400990014500F4020500F4030500F402000004000800F4000700F403F
:4003000010B5064C2378002B07D10548002802D0044800E000BF0121217010BDB001002000000000B46E000008B5084B002B03D00748084900E000BF07480168002903D062
:40034000064A002A00D0904708BDC04600000000B46E0000B4010020C80000200000000080B594B000AF62B63B1C0C33181C00F02DF83B1C181C00F07DFB00F0E5FB00F0E0
:4003800025FB00F0A1FC00F017F83A1C3B1C0C33101C191C00F0B0F83A1C3B1C0C33101C191C00F08DF93A1C3B1C0C33101C191C00F01CFBFEE7C04680B500AFBD4680BD86
:4003C00080B500AF0023181CBD4680BD80B584B000AF78600023FB6007E07A68FB68D31800221A70FB680133FB60FB68322BF4D97B6800229A637B6833225A637B680022D6
:40040000DA637A6840230021D154BD4604B080BD80B588B000AFF860B9607A607B68002B02D114235B4249E0FB685A6BFB689B6BD31A7B61FB689B6BFB617A687B699A42FA
:4004400002D915235B4239E0BB681B78442B08D1FA684023D35C012B03D1FB68DB6BFB6118E0BB681B78442B0ED1FB689A6BFB68DA63FA6840230121D154FB689A6B7B6861
:40048000D218FB689A6305E0FB689A6B7B68D218FB689A630023BB610BE0FA69BB69D318B968BA698A181178FA68D154BB690133BB61BA697B689A42EFD30023181CBD4674
:4004C00008B080BD80B584B000AFF860B9607A60FA68BB681A60FB689A6B7B681A60FB6800229A63FA6840230021D1540023181CBD4604B080BDC04680B582B000AF786014
:400500003960044B7A681A60034B3A681A60BD4602B080BDCC010020D001002080B582B000AF786039600A4B1A687B681B68101C191C00F0B3FA064B1A683B681B68101C56
:40054000191C00F0C7FA0023181CBD4602B080BDCC01002080B500AFBD4680BD0000000090B587B000AF78603B1C173300221A703B1C163301221A703B1C16331B78181C37
:4005800000F0A8FFFA239B00181C01F07DFC00F0FFFE022000F00AFF3B1C17331B783C1C1434181C00F026FF031C23803B1C17331A783B1C143300215B5E101C191C00F06B
:4005C0003BFF031C3B61386903F05CFD031C0C1C181C211C0F4B0E4A02F034FB031C0C1C181C211C03F0A2FD031CFB60F8680A4901F0AAFF031C181C084902F0D5F8031CFB
:400600001A1C7B681A600023181CBD4607B090BD6666666666660A400000FA420000C04098B500AF104B1B68181C03F0F9FC031C0C1C181C211C0B4B094A01F04FFD031C2C
:40064000002B05D000F090F8074B00221A6004E0054B1B685A1C044B1A60BD4698BDC046C98C9B3932E38640E0010020C046C04698B500AF104B1B68181C03F0D1FC031CC2
:400680000C1C181C211C0B4B094A01F027FD031C002B05D000F080F9074B00221A6004E0054B1B685A1C044B1A60BD4698BDC046FB6F02C8FE9B9C40E4010020C046C0465F
:4006C00080B582B000AF78603960134B7A681A60124B3A681A60124B00221A70114B00221A6001F04FF9104B181C01F05BFA0F4B00221A600E4B181C01F0AEFA012001F003
:4007000045F8002001F00EF8012001F073F800F02BF8BD4602B080BDD4010020D8010020DD010020E001002021060000E40100207106000080B582B000AF78603960084B79
:4007400019687A683B68081C111C1A1CFFF7BAFE044B00221A700023181CBD4602B080BDD8010020DC01002090B58BB000AF3C1C263401F065F8031C23703C1C253401F081
:400780002BF8031C23703C1C243400F0F1FF031C2370002000F0FAFF002000F0C3FF012001F028F85F4B1A683B1C1F33101C191C00F0BCF95B4B1A683B1C1833101C191C0F
:4007C00000F07AF9574B1A683B1C1433101C191C00F08EF93A1C10323B1C0C33101C191C00F0BEF93B1C273330221A703B1C44221A703B69181C02F0B1F9031C3A1C511C9C
:40080000494A081C042103F08FFD031C3B623B6A032B0AD0454B1A68454B101C191C0422FFF7F6FD16235B4277E03B1C2E221A713B1C30225A71FB68181C02F08FF9031CDF
:400840003A1C911D384A081C042103F06DFD031C3B623B6A032B0AD0344B1A68354B101C191C0422FFF7D4FD17235B4255E03B1C1F331B78012B22D13A69BB69101C191C85
:4008800001F05CFC031C002B08D1FA687B69101C191C01F03FFC031C002B10D0012000F071F9012000F072FF012000F03BFF012000F0A0FF3B1C273331221A7002E0002047
:4008C00000F060F93B1C3A1C273212785A721A4B1B78002B03D13B1C30229A7202E03B1C31229A72114B1A683B1C101C191C0B22FFF78EFD3B1C25331B78181C00F046FF20
:400900003B1C24331B78181C00F00CFF3B1C26331B78181C00F06EFF0023181CBD460BB090BDC046D4010020B86E0000D8010020C06E0000C86E0000DC01002080B582B02F
:4009400000AF134B1A68FB1D101C191C00F0EEF8FB1D1B78012B13D10D4B1B68181C002100F0D4F8012000F0DDFE002000F00EFF012000F03FFF002000F004F901F0A0F804
:40098000044B01221A700023181CBD4602B080BDD4010020DC01002080B500AF0A4B1B68181C012100F0B2F8012000F0EFFE002000F0B8FE012000F01DFF01F093F80023C4
:4009C000181CBD4680BDC046D401002080B500AF024B181C00F042FFBD4680BDE109000080B500AFFFF7AAFFBD4680BD80B582B000AF78603960044B7A681A60034B3A68E3
:400A00001A60BD4602B080BDE8010020EC01002080B582B000AF021CFB1D1A70FB1D1B78002B0ED0FB1D1B78012B0AD00E4B1A680E4B101C191C0422FFF7EAFC17235B428B
:400A40000DE00B4B1A68FB1D1B78101C191C00F05DF8FB1D1B78181C00F094F80023181CBD4602B080BDC046EC010020D06E0000E801002080B582B000AF78607B6801226E
:400A80001A727B68034A5A607B68034A1A60BD4602B080BD000020410000F04180B582B000AF786039607B683A681A600023181CBD4602B080BDC04680B582B000AF7860CF
:400AC00039607B681A683B681A600023181CBD4602B080BD80B582B000AF786039607B683A685A600023181CBD4602B080BDC04680B582B000AF786039607B685A683B68AE
:400B00001A600023181CBD4602B080BD80B582B000AF78600A1CFB1C1A707B68FA1C12781A720023181CBD4602B080BD80B582B000AF786039607B681A7A3B681A70002397
:400B4000181CBD4602B080BD80B500AF00F01EFB00F028F800F046F8FFF7FCFCBD4680BD80B582B000AF786039607B68181C00F03FF83B68181CFFF7F3FC0023181CBD461B
:400B800002B080BD80B582B000AF021CFB1D1A70FB1D1B78181C00F009F80023181CBD4602B080BD80B500AFBD4680BD80B582B000AF021CFB1D1A70FB1D1B78012B06D0B0
:400BC000FB1D1B78002B02D010235B4205E0FB1D1B78181C00F0A2FC0023181CBD4602B080BDC04680B500AFBD4680BD0000000090B587B000AF78603B1C173300221A7068
:400C00003B1C17331B78181C00F064FCFA239B00181C01F039F900F0BBFB022000F0C6FB3C1C1434002000F0E5FB031C23803B1C143300229B5E0020191C00F0FDFB031C0D
:400C40003B61386903F01EFA031C0C1C181C211C184B174A01F0F6FF031C0C1C181C211C03F064FA031CFB60F86803F00BFA031C0C1C181C211C104A104B02F0DDFB031C99
:400C80000C1C181C211C0E4A0E4B02F047FE031C0C1C181C211C03F049FA021C7B681A600023181CBD4607B090BDC046C046C0466666666666660A40D7A3703D0AF765405F
:400CC000CDCCCCCCCC6C474080B500AF00F060FC034B181C00F06EFC00F0BCFCBD4680BDE50C000090B587B000AF3B1C0F3330221A7000F073FC021C3B1C0F331A70974BFD
:400D00001B68974A391C0F310978D154934B1B685A1C924B1A603B1C0F331B78522B0FD03B1C0F331B78432B0AD03B1C0F331B784C2B05D03B1C0F331B78562B00D006E10E
:400D4000874B1B78413B152B00D900E19A00854BD3181B689F46012000F018FD002000F0E1FC012000F046FD00F074FC7B4B00221A600120FFF74CFEE9E0012000F0D2FCA9
:400D8000002000F003FD012000F034FD00F062FC724B00221A600020FFF73AFED7E072B6002000F0BFFC002000F0F0FC002000F021FD00237B610AE07B690133684AD25C37
:400DC00069497B69CB181A707B6901337B617B69042BF1DD00237B610AE07B690633604AD25C62497B69CB181A707B6901337B617B69022BF1DD0023BB6000237B605A4B8D
:400E0000181C03F053FA031C0C1C181C211C03F08DF9031CBB60554B181C03F047FA031C0C1C181C211C03F081F9031C7B603A1C08323B1D101C191CFFF770FB00F00AFC0C
:400E4000464B00221A6062B681E0012000F06AFC012000F09BFC002000F0CCFC00F0FAFB434B1B78181C00F0DFFB3C4B00221A60FFF7A6FA6BE03C1C0E3400F0E1FC031C47
:400E800023703C1C0D3400F0A7FC031C23703C1C0C3400F06DFC031C2370012000F042FC002000F073FC002000F0A4FC3A1C314B101C191CFFF73EFC00233B610AE03A68F2
:400EC0003B69D3181A782C493B69CB181A703B6901333B61274B1B683A699A42EFD300F0B9FB244B1B68DBB2181C00F09DFB1B4B00221A60214B00221A603B1C0D331B788E
:400F0000181C00F043FC3B1C0C331B78181C00F009FC3B1C0E331B78181C00F06BFC16E000F098FB154B1B68134AD35C181C00F07BFB0A4B00221A60104B1B685A1C0F4B25
:400F40001A6004E000F05AFB044B00221A600C4B0B4A12681A60BD4607B090BDF00100201C020020D86E00001002002018020020CC0000209C0200205C020020F4010020FE
:400F8000C00F074080B500AFFEE7C04680B586B000AF254B7B61254B3B61234B7B61234B3B6132E03B691B68FB603B695B68BB603B699B683B6000237B600CE0FB681A685F
:400FC000BB681A60BB680433BB60FB680433FB607B6804337B607A683B689A42EED13B69DB683B6000237B6008E0BB6800221A60BB680433BB607B6804337B607A683B68BF
:401000009A42F2D13B6910333B617B695A1E9341DBB27A69013A7A61002BC3D103F04CF9FFF79EF9FEE7C046010000004C73000080B582B000AF00237B600FE07B68032B95
:4010400004D8104B7A689200D35800E00E4B0F4A796889008B507B6801337B607B682F2BECD9FFF785F80A4B00221A608023DB058022D205126801210A431A60BD4602B057
:4010800080BDC04600000000850F000000000020C000002080B582B000AF786039607A683B68101C00211A1C03F035F9BD4602B080BDC04680B586B000AF78603960002303
:4010C0003B6100237B612EE07B699B007A68D3181B68BB603B1C0F33BA681A70BB68FF229343BB6017E03B695B003A68D3181B781A1CBB68D3183A69520039688A18527887
:401100001A703B6901333B613B1C0F333A1C0F321278013A1A703B1C0F331B78002BE2D17B6901337B617B69072BCDD9BD4606B080BDC04680B500AF034B20221A6001206D
:4011400000F004F8BD4680BD00031A4080B584B000AF021CFB1D1A700B4B1B68FB60FB1D1B78002B05D0FB68802212061343FB6003E0FB685B005B08FB60034BFA681A60D8
:40118000BD4604B080BDC04680031A4080B500AF064B1B78002B04D100F00AF8034B01221A7000F0E5F8BD4680BDC046F801002090B585B000AF0E20032100F0DBFD534B96
:4011C0000E20191C00F0B0FD514B01221A60514B514A1A60514B524A1A60524B524A1A60524B00221A60524B524A1A60524B514A1A60524B514A1268802149020A431A609D
:401200004F4B00221A604F4B00221A604E4B01221A604E4B02221A604D4B1B687B607B68012213437B604A4B7A681A600023FB6066E0484BFA689200D258DC239B01134054
:401240007B60FB689B00444A9B187A681A60414BFA689200D258012313400AD0384B384A1168FA680120041C9440221C92B20A431A60384BFA689200D258022313400AD0CC
:40128000304B304A1168FA680120041C9440221C92B20A431A602F4BFA689200D25880239B00134003D080235B00BB6002E080235B01BB60274BFA689200D25880235B0061
:4012C000134005D1254BFA6852000021D15204E0224BFA6852000021D152BB68204A5343204A9B18181C204900F062FE031C9BB219B21E4BFA689200D150FB680133FB6040
:40130000FB68002B95D0BD4605B090BDB914000020001A4000001A407002005104001A408C00008018001A400000FF071C001A4010001A400400040014001A4000031A40BC
:4013400028021A4038021A4018021A40000F1A4030001A40A070000080001A40A002002010270000E40C0000C8190000A402002080B500AF054B054A1268802109060A437A
:401380001A600A2000F0A4FDBD4680BD00001A4080B500AF044B044A1268802149020A431A60BD4680BDC04604001A4080B584B000AF78600023FB607A680323134011D062
:4013C0000B4B1A6801231340FB60FB68002B03D17A6802231340F3D1FB68002B02D0044B01221A60FB68181CBD4604B080BDC04610021A4080B584B000AF78607B68002B7C
:4014000002D0002000F036FD7B68002B08D17B689B00084A9B181B681B041B0CFB6001E00023FB60FB689BB21BB2181CBD4604B080BDC04680011A4090B585B000AF786023
:401440000A1CBB1C1A807B68002B02D0002000F011FDBB1C1A88154B79684900CB5A9BB29BB2D31A9AB2BB1C1A80BB1C00229B5E181C01F093FB031C181C0D4901F064F8D0
:40148000031C1C1C0B4B7A689200D358181C01F085FB031C201C191C00F064FE031CFB60FB68181CBD4605B090BDC046A002002000002041A402002080B582B000AF044BEF
:4014C0001B687B60024B7A681A60BD4602B080BD10021A4080B584B000AF021CFB1D1A700D4B1B68DAB23B1C0F3301218A431A70FB1D1A7801231340D9B23B1C0F333A1C9B
:401500000F3212780A431A70034B3A1C0F3212781A60BD4604B080BD0000044080B584B000AF021CFB1D1A700D4B1B68DAB23B1C0F3301218A431A70FB1D1A780123134076
:40154000D9B23B1C0F333A1C0F3212780A431A70034B3A1C0F3212781A60BD4604B080BD0002044080B500AF00F08AF8BD4680BD80B500AF054B054A1268802109060A439C
:401580001A6000F023F8BD4680BDC0460000074080B500AF064B1B78002B04D1FFF7E2FF034B01221A70FFF7E3FFBD4680BDC046FC01002080B582B000AF7860024B7A6827
:4015C0001A60BD4602B080BD0002002080B500AF0B2000F023FCBD4680BDC04680B582B000AF00237B60044B1B687B607B68181CBD4602B080BDC0464003074080B500AFBB
:40160000074B074A1268802149020A431A60044B034A1168034A0A401A60BD4680BDC04604030740FFFFFEFF80B582B000AF7860C046064B1A680F231340082BF9D0044B8E
:401640007A681A60BD4602B080BDC046080207404002074080B500AF074B074A1268802149020A431A60044B034A1168034A0A401A60BD4680BDC04604020740FFFFFEFFD4
:4016800080B500AF184B194A1A60194B01221A60184B194A1A60194B07221A60184B164A1A60184B00221A600B2000F0CDFB0B20032100F05FFB144B0B20191C00F034FB28
:4016C000124B00221A60124B00221A60114B00221A60114B00221A60104B0C221A60104B00221A60BD4680BD000007400F00000120000740000307400701008004030740F0
:401700000002074004020740F91E0000880E0740C80E0740480F0740080F0740C80F0740880F074080B584B000AF021CFB1D1A700E4B1B68DAB23B1C0F3304218A431A70B5
:40174000FB1D1B789B00DAB204231340D9B23B1C0F333A1C0F3212780A431A70034B3A1C0F3212781A60BD4604B080BD0000044080B500AF044B1A68042313409B08DBB281
:40178000181CBD4680BDC0460400044080B584B000AF021CFB1D1A700E4B1B68DAB23B1C0F3340218A431A70FB1D1B789B01DAB240231340D9B23B1C0F333A1C0F32127808
:4017C0000A431A70034B3A1C0F3212781A60BD4604B080BD0001044080B500AF044B1A68402313409B09DBB2181CBD4680BDC0460401044080B584B000AF021CFB1D1A70B9
:401800000E4B1B68DAB23B1C0F3308218A431A70FB1D1B78DB00DAB208231340D9B23B1C0F333A1C0F3212780A431A70034B3A1C0F3212781A60BD4604B080BD000004405A
:4018400080B500AF044B1A6808231340DB08DBB2181CBD4680BDC0460400044080B582B000AF786000F04AF87B68181C00F008F8032000F011F800F037F8BD4602B080BDAF
:4018800080B582B000AF7860024B7A681A64BD4602B080BD0000002090B585B000AF021CFB1D1A700623FB603C1C0B3400F035FA031C23700B4B0B4A1268C021101C8843A9
:4018C000011CFA1D1078FA68041C9440221C0A431A603B1C0B331B78181C00F022FABD4605B090BD00E400E080B500AF024B01221A60BD4680BDC04600E100E080B500AFE7
:40190000024B01221A60BD4680BDC04680E100E090B583B000AF114B181C00F05FF80F4B181C00F075F8FC1D00F0F7F9031C23700B4B0B4A1278D2B210210A43D2B21A705D
:40194000FB1D1B78181C00F0ECF900F071F8002000F02AF8BD4603B090BDC046FFFF000091000F4080B500AF054B054A1278D2B2802149420A43D2B21A70BD4680BDC046E3
:4019800071000F4080B500AF064B1B78002B04D1FFF7BEFF034B01221A70FFF7E3FFBD4680BDC0460402002080B582B000AF021CFB1D1A70034BFA1D12781A70BD4602B0A9
:4019C00080BDC04681000F4080B500AF024B1B78DBB2181CBD4680BD61000F4080B582B000AF021CBB1D1A80034BBA1D12881A80BD4602B080BDC04640100F4080B500AFE5
:401A0000024B1B889BB2181CBD4680BD80100F4080B582B000AF021CBB1D1A80034BBA1D12881A80BD4602B080BDC04600100F4080B500AF01E0FFF7E1FFFFF7C5FF031C4C
:401A40001A1C08231340F6D1BD4680BD90B583B000AF114B181C00F06DF80F4B181C00F083F8FC1D00F059F9031C23700B4B0B4A1278D2B210210A43D2B21A70FB1D1B78A9
:401A8000181C00F04EF900F07FF8002000F038F8BD4603B090BDC046FFFF000093000F4080B500AF054B054A1278D2B2802149420A43D2B21A70BD4680BDC04673000F400B
:401AC00080B500AF064B1B78002B04D1FFF7BEFF034B01221A70FFF7E3FFBD4680BDC0460502002080B500AF044B044A1278D1B27F220A40D2B21A70BD4680BD73000F40A2
:401B000080B582B000AF021CFB1D1A70034BFA1D12781A70BD4602B080BDC04683000F4080B500AF024B1B78DBB2181CBD4680BD63000F4080B582B000AF021CBB1D1A806F
:401B4000034BBA1D12881A80BD4602B080BDC04644100F4080B500AF024B1B889BB2181CBD4680BD84100F4080B582B000AF021CBB1D1A80034BBA1D12881A80BD4602B045
:401B800080BDC04604100F4080B500AF01E0FFF7E1FFFFF7C5FF031C1A1C08231340F6D1BD4680BD80B582B000AF786000F04AF87B68181C00F008F8032000F011F800F01D
:401BC00037F8BD4602B080BD80B582B000AF7860024B7A689A64BD4602B080BD0000002090B585B000AF021CFB1D1A701623FB603C1C0B3400F091F8031C23700A4B0A4AAF
:401C000011680A4A1140FA1D1078FA68041C9440221C0A431A603B1C0B331B78181C00F080F8BD4605B090BD00E400E0FFFF3FFF80B500AF024B04221A60BD4680BDC046AC
:401C400000E100E080B500AF024B04221A60BD4680BDC04680E100E080B582B000AF786000F048F87B68181C00F008F8032000F011F800F035F8BD4602B080BD80B582B094
:401C800000AF7860024B7A68DA64BD4602B080BD0000002090B585B000AF021CFB1D1A701E23FB603C1C0B3400F037F8031C23700A4B0A4A126892009108FA1D1078FA68E2
:401CC000041C9440221C0A431A603B1C0B331B78181C00F026F8BD4605B090BD00E400E080B500AF024B08221A60BD4680BDC04600E100E080B500AF024B08221A60BD4604
:401D000080BDC04680E100E00230800804D0C0460138FDD1C046C0467047EFF3108072B6704780F31088704780B584B000AF021C3960FB1D1A7080239B05FB60FB1D1B78F4
:401D40001F2B02D9002000F095F8FB1D1B7810339B00FA68D3181B68BB60FB1D1B7810339B00FA68D3183A681A60BB68181CBD4604B080BD90B587B000AF0A1CFB1D011C6A
:401D80001970BB1D1A70BB1D1B78032B02D9002000F070F8FB1D1B781F2B02D9002000F069F8FB1D1A7803231340DB0006337B613C1C1334FFF7B1FF031C2370FB1D1B7856
:401DC0009B08DBB29B0014495B181B68FB607B690322111C99400B1CDA43FB681340FB60BB1D1A787B69111C99400B1CFA681343FB60FB1D1B789B08DBB29B00064A9B18FF
:401E0000FA681A603B1C13331B78181CFFF789FFBD4607B090BDC04600E400E080B582B000AF021CFB1D1A70064BFA1D11781F220A400121081C9040021C1A60BD4602B05E
:401E400080BDC04600E100E080B582B000AF021CFB1D1A70064BFA1D11781F220A400121081C9040021C1A60BD4602B080BDC04680E100E080B582B000AF021CFB1D1A704F
:401E800001BEBD4602B080BD80B582B000AF786008E00C4B1B68181CFFF736FF7B680A4A9B187B607A6880231B029A42F1D8074B1B687A685343181CFFF726FFBD4602B005
:401EC00080BDC046E00000200080FFFFD800002080B582B000AF021CBB1D1A80BB1D1B88044A12785343181CFFF70EFFBD4602B080BDC046DC00002080B500AF044B1B68B9
:401F0000002B02D0024B1B689847BD4680BDC04600020020002934D00123002210B488422CD301242407A14204D2814202D209011B01F8E7E400A14204D2814202D249006B
:401F40005B00F8E7884201D3401A1A434C08A04202D3001B5C0822438C08A04202D3001B9C082243CC08A04202D3001BDC082243002803D01B0901D00909E3E7101C10BCC1
:401F80007047002801D00020C04307B4024802A14018029003BDC046D90000000029F0D003B5FFF7B9FF0EBC4243891A1847C046002941D010B4041C4C40A446012300229D
:401FC000002900D54942002800D5404288422CD301242407A14204D2814202D209011B01F8E7E400A14204D2814202D249005B00F8E7884201D3401A1A434C08A04202D354
:40200000001B5C0822438C08A04202D3001B9C082243CC08A04202D3001BDC082243002803D01B0901D00909E3E7101C6446002C00D5404210BC7047002806D003DB0020BA
:40204000C043400801E08020000607B4024802A14018029003BDC046190000000029EBD003B5FFF7A7FF0EBC4243891A1847C0467047C0468446101C62468C46191C634683
:4020800000E0C0461FB501F06BF9002801D40021C8421FBD10B501F0B1F84042013010BD10B501F05DF9002801DB002010BD012010BDC04610B501F053F9002801DD002015
:4020C00010BD012010BDC04610B501F0D5F8002801DC002010BD012010BDC04610B501F0CBF8002801DA002010BD012010BDC0468446081C6146FFE71FB500F0DDF900281C
:4021000001D40021C8421FBD10B500F065F94042013010BD10B500F0CFF9002801DB002010BD012010BDC04610B500F0C5F9002801DD002010BD012010BDC04610B500F0BF
:4021400073F9002801DC002010BD012010BDC04610B500F069F9002801DA002010BD012010BDC046F0B55F4656464D464446F0B44502440083B00E1C6D0A240EC70F002CD8
:4021800007D1002D00D091E0042101228846924609E0FF2C55D08023180400210543ED007F3C88468A46331C58007602D90F760A000E8B464CD101229446002E00D081E065
:4021C0005B467B406246414601930A430F2A50D9201A690181467501A94200D3B3E00122534299441B2400260127621E381C10404B007600002900DAA9E09D4200D8A6E00F
:40220000013C002C00DCABE000280CD0191C76005B00002901DB9D4201D85B1B3E43013C002C00DC9CE059007200002B01DB8D4201D8491B3A43013C4B0056000029EADA29
:40224000EBE7002D2DD10820022180468A46AAE7FF2820D08022130400211E438C465B467B4062464146F6007F3801930A430F2AAED8564992008A589746019BFF2600251D
:40228000F0052843DE07304303B03CBC90469946A246AB46F0BD331C5A1E934102339C468EE70C22032390469A467CE7281C01F0DFFF7622441F5342A5401C1A0020804648
:4022C000824670E7301C01F0D3FF7623411F8E405A420021101A8C4672E700233C4DFF26CEE75F46351C01976346022BC5D0032B63D0012B43D049467F31002935DD0F2708
:402300002F40042F00D004352B0103D5314A494615408031FE29B0DCA801450ACEB2019BAEE700260025ABE78020C1030D4211D00E420FD10E4373025D0AFF265B469FE768
:4023400001975346D1E7491B1A2401264CE75B1B3E4355E70D436A02550A3B1CFF268FE71D1C6B1E9D413543C5E77E2467424A46B91A1B2908DD019B0026002580E7019DB1
:4023800000262B4000257BE74E469E36281CB5402B1C5D1EAB41C84003430F251D40042D00D004335A0103D5019B0126002567E79C01650A019B002662E78027FC03254311
:4023C0006E02750A019BFF265AE7C046A4700000FFFF7F00FFFFFFF74302420070B55C0AC60F130E48024A00450A120EC90FFF2B05D0FF2A08D0012093420BD070BD01205F
:40240000002CFBD1FF2AF6D10120002DF6D101209342F3D1AC42F1D18E4203D0002BEDD1002CEBD10020E9E7F0B5430242004F00C60F48025C0A450A130EC90F3A0EFF2B17
:4024400026D0FF2A29D0002B0CD1604260418446002A0AD0002816D18E4221D0002E14D1012014E0002AF7D194466F426F416046002805D1002FEFD00120002E07D004E06A
:402480000020002F03D10029EAD101214842F0BD002CD6D002225042F9E7002DD3D0F9E79342DBDC04DBAC42D8D80020AC42EED2002EEAD00120EAE7F0B5430242004F0078
:4024C000C60F48025C0A450A130EC90F3A0EFF2B26D0FF2A28D0002B0FD0002A14D194466F426F416046002814D00020002F03D100290DD101214842F0BD604260418446F0
:40250000002AEDD00028F3D18E4211D0002EF1D10120F1E7002FF7D00120002EECD0E9E70220002CE8D1D4E70220002DE4D1D2E79342EBDC04DBAC42E8D80020AC42DBD2FA
:40254000002ED7D00120D7E7F0B55F4656464D464446F0B44502460083B00F1C6D0A360EC40F002E06D1002D70D1042101228846924609E0FF2E43D08023180400210543D5
:40258000ED007F3E88468A46381C43007F02C10F7F0A1B0E8B463AD10121002F62D158466040424601900A430F2A3FD92C04F018260C3B041A0C311C51433F0C2D0C7E43EF
:4025C0006A438146080C36182C1CB3187C439A4200D99AE009041D04080C2E18B5011B0C691E8D41B20EE7181543BC0125432B014BD50120284001216D088944054344E069
:40260000002D1ED10820022180468A46BCE7FF2B12D08022100407435846002160404246FF007F3B01900A430F2ABFD890005B4A8446624410688746391C4A1E91410231F4
:40264000ADE70C22032390469A469DE7281C01F00FFE7622461F5342B5401E1A00208046824691E7381C01F003FE7621431F4A429F400021131A92E70194514602292CD04D
:40268000032900D180E0012948D04E467F36002E51DD0F242C40042C00D004352A0103D53F494E460D408036FE2E3DDD019B01241C40FF210025C805E2072843104303B00D
:4026C0003CBC90469946A246AB46F0BD0024354DFF21F0E751460229D2D1019D01242C40FF210025E7E75E463D1C0196C6E73D1CC4E78026F3031D420BD01F4209D11F43AB
:402700007A02550A5C46FF21D5E780225702E41960E71D436F027D0AFF21CCE7019B00251940CCB20021C6E70198AD0101246D0AF1B20440BFE77E2673424A469F1A1B2F14
:4027400005DD019D01242C4000210025B3E749469E312C1C8D402E1CFC40751EAE4126430F203040042800D00436700105D5019F01243C40012100259DE7019AB3010124E4
:402780005D0A1440002196E78022D00305436C020199650A01240C40FF218CE7E4700000FFFFFFF7FFFF7F00F8B5430245004F024C00C20F980984462D0E200EC90FBF09AA
:4027C000FF2854D0012671408A423BD02C1A002C00DC89E0002825D1002F4BD16E1C2C1C6346151C0F221A40042A00D004338027F904012219402A40002906D0FF2E00D1CC
:4028000081E0B14D341C2B400136F6B2DD08012E62DD6B025D0AE4B2E4052543281CD2071043F8BDFF2D51D08021CB041F4301261B2C70DD67462C1CBB1B151C580122D447
:40284000661CCFE72E1A002E76DD002832D0FF2D3CD08024E1040F4301231B2E00DCD1E063442C1C58017AD4661C151CBAE7002FAAD1A7E7013C002C6DD163462C1CDB1B70
:40288000151C5801DCD59A019609301C01F0F0FC05388640844239DC001B1F231A1A331C311C441C9340E1405E1EB3410B430126002497E7002F00D190E7013E002E03D1DC
:4028C00064463B192C1CCDE7FF2DC5D1151C802263465600FF2485E7002D9CD0002C28D08020C7033D4394E7002C45D16B1CD8B2012800DC90E06446E61B730157D53E1B2D
:402900002C1C0D1CC1E7FF24002585E76E4B241A3340661C66E7381C2021E0400C1BA7403E1C771EBE41064367462C1CBB1B151C84E769024D0A6FE7002E79D16C1CE0B286
:4029400001284BDDFF2C00D198E061467F18AE1C7B08151C46E7FF2D00D068E7B6E7671CFF2F36D058480121194003405B08A61C0B433C1C151C35E76642002D1ED0FF28AA
:402980006FD080256246EB041A43944601251B2E09DC62462023F24064469E1BB440251C6C1EA54115437B1B041C0D1C69E7002E0CD1002201260423002426E76446002CE3
:4029C00055D1461C3B1C041C0D1C0BE72C1C151C5BE780235E00FF24042316E7002D00D08DE06546002D00D1ADE0002F00D181E07B195C0100D47EE0334F151C3B40022640
:402A00000124EFE6381C2023F0409E1BB7403B1C5F1EBB41034323E7002D15D16546002D47D1002FC5D03B1C0D1C01260024D9E67642002D26D16546002D00D07DE0461C71
:402A40003B1C041C151CCDE66546002D40D1002F07D1802100224E001C4BFF24D5E6FF2894D180203B1C0D1C4600FF24BAE6013E002EF4D13B1B0D1C041C02E780256E0033
:402A80000423C2E6FF2852D080246146E30419438C4601231B2E09DC20216446F44065468E1BB5402B1C591E8B412343DB19041CD8E6002F1ED0EB1B58014BD57B1B0126C9
:402AC0000D1C00248EE6C046FFFFFFFBFCFFFF03002F00D1FAE68020EB08C403234237D0FF08274234D13B1C0D1C8022DB005600FF2477E66346151C0126002472E6644605
:402B0000002C14D0002F00D1E0E68023E608D803311C064203D0F908014200D0311C151C8022CB005600FF245CE6FF28B1D180203B1C151C4600FF2454E6013E002EF4D18B
:402B40007B19041C8EE63B1C151C0126002449E6151CCAE7002B00D12BE7CCE743024200590A00B5130EC20F00207E2B0DDD9D2B0CDC802000040143952B0ADC9620C31A73
:402B8000D9404842002A00D1081C00BD02495018FBE7963B9940F4E7FFFFFF7F70B5041E3CD0C50F00D04442201C01F061FB9E21261C0B1A962B0ADC0838844061024C0A70
:402BC000DBB2DB051C43ED07201C284370BD992B0ADD0522141A311CE140041C1B34A6400A1C711E8E41164305281BDC144C0F2234401640042E00D00434620105D59F23E9
:402C00001B1AFF2B0CD00E4804405E1CF1B2E40801290ADD6402640ADBB2D2E7002500230024CEE7411F8E40E0E7002CF4D0002B03D08022D0030443ECE76602740AC0E76B
:402C4000FFFFFFFBF0B54D4644465F465646F0B41D1C4B00141C0E035B0DCA0F87B0071C360B98469146002B1DD1321C024300D181E1002E00D104E2301C01F0F9FA27281C
:402C800000DDF8E12821031C083B0A1A391C9E40D1400E439F40C14B0021181A002280468A4600920FE0BE48834231D080214B031E43BC487A0FF600002100231643FF0048
:402CC00080448A460093291C201C251C4A000C03CB0F240B520D9B4625D1211C014300D150E1002C00D1C2E1201C01F0C1FA272800DDB6E1031C2822083B291C121A9C408C
:402D0000D1400C439D40A54B1A1A0020029019E0321C3A4300D029E108270223BA46002600270093CFE79E48824200D113E180214B031C439B49680FE40000230443ED00A5
:402D40005218029348465B46434002985146019301430F2900D8DFE043469A1A0492A64200D86EE171087B08F6073343FA07894698460292280E240204432D022704390CF5
:402D8000AB46250C00914846291CFFF7C3F8009F061C4743291C4846FFF700F9434608041A0C1043874207D90019013E844203D8874201D9013E0019C11B8A46081C291C0F
:402DC000FFF7A8F8009B071C4343291C50469946FFF7E4F8424610040B04010C0B43994504D91B19013F9C4200D864E136043E435F464A46390C89469B1A59463204170C8C
:402E00000A0449467943120C03928C460399300C7A4341434F4678438C44170C6744B94202D9802149024018390C120440183F04110C7F18834200D227E100D141E10299BC
:402E40001B1ACF1BB942804141425A1A9046A24200D15FE1101C291CFFF75CF8009B02904343291C40469A46FFF798F8380C090401438A450AD9029A0919013A02928C4274
:402E800004D88A4502D9013A029209195346C81A291C0590FFF73EF8009A291C4243804605989246FFF77AF83F040D043A0C2A43924509D901214B4212199844944203D8EC
:402EC000924501D998441219029D43462F041F435046111A3804030C4D465D430398AC46039D3A0C584355434B465A43AC44030C63449D4202D980256D0252191D0C00043E
:402F000052191B04050C5B19914200D2E6E000D13DE1012217435AE0890023488C46604401688F46019B1E4A0026002700200021381C0F0D3C051D4D3443120525401543D1
:402F40006E00DB077108194307B03CBC90469946A246AB46F0BD211C03202943029000D0F0E60223002400250293EBE60C20032182460091A7E604270123BA460026002798
:402F80000093A0E60121002400250291DAE601270023074E7F42024AC8E7C0460DFCFFFFFF07000001FCFFFF24710000FFFF0F80FFFF0F002F1C5A46029D261C0192022D13
:402FC000B0D0032D00D101E1012D00D19CE0049B82481A18002A00DC8CE00F243C40042C05D03B1DBB42BF417D4276191F1CF10105D57B4A04998020C40016400A19794B85
:403000009A4200DD8EE77507FF08760251052F43360B4A0D019B89E700220026002785E7802001030E4216D00C4214D10C432603360B5B462F1C6C4A78E74C460194009D95
:40304000BDE7A64243D00498B846013800270490B14602978EE60E4333031E0B624A4B4664E7041C283CA5402C1C00254BE601F0FFF820303BE6061C283EB7403E1C002787
:4030800009E601F0F5F82030F9E5029A013E111C59445945924152421219D3189C4204D298426BD816D01B1ACBE6A342FBD18B45F6D9231AC5E6994500D897E6013F1B19D9
:4030C00094E6029ABA42E0D302990023B9E6AF42B9D947E68F4251D80023B2E60919013F58468C4219D9914200D012E7984200D00FE76CE73D4C049D631B382B1CDD019B5A
:4031000000220026002711E7019B00222B40002600270BE701277F4259E78A4203D800D0F7E69842E2D25D4668005845AD416D422C19013F0919D6E71F2B34DC049C2C4A9C
:40314000381CA518311CAF40D840A9403C1C0143671EBC410F1C2743DE400F233B40042B05D03A1DBA42BF417D427619171C320211D5019B012200260027D7E6594459458D
:40318000924152421219D318013E1B1A59E6002BA4D10020AAE77007FF08710207430E0B019B0022C2E61349049C301C0A1BD040051C202B08D0104BE1188E4037437B1EDE
:4031C0009F412F430026C8E70026F7E780221003064331030E0B019B034AA7E6FF030000FFFFFFFEFE070000FF07000002FCFFFF1E040000E2FBFFFF3E040000F0B5944621
:4032000047461A03061C580080B4170B420D19480D034C00DB0F2D0B640DC90F9846844208D0144882420DD00120944212D004BC9046F0BD2B1C33430120002BF7D10D48E2
:403240008242F1D163463B430120002BEFD101209442ECD1BD42EAD16645E8D1414506D0002CE4D1281C3043451EA841DFE70020DDE7C046FF070000F0B557464E4645466C
:40328000E0B4041C4E000803C90F8A46171C59001A03050B700D160B4A0D3049DB0F9C46884232D02D498A4235D000280FD1291C21434B424B419846002A0BD0002B1AD190
:4032C000E2452CD05546002D18D1012018E0002AF6D19046311C39434B424B414146002906D1002BECD056460120002E08D005E00020002B04D16746002FE6D101235842B1
:403300001CBC90469946A246F0BD2B1C2343C9D002214842F4E7331C3B43C6D0F8E7904205DC09DA5246002AE8D00120E8E75446002CE3D10120E3E7B542C3D807D000206D
:40334000B542DDD250460028D8D00120D8E7BC42B8D80020BC42F5D3D2E7C046FF070000F0B544465F4656464D46F0B49446061C1A035800170B420D2E480D034C00DB0FE3
:403380002D0B640DC90F9846844233D02948824236D0002C19D0002A20D1934663463B43584258415B468246002B1DD051460020002904D14246002A14D1012460423CBCBB
:4033C00090469946A246AB46F0BD2B1C3343584243419B46002AE1D0002BEBD1414515D00029EAD10120EAE70028F7D001200029E5D0E2E72B1C33430220002BDFD1C5E7B6
:4034000063463B430220002BD9D1C2E79442E7DC05DBBD42E4D806D00020BD42CFD20029CBD00120CBE76645DAD800206645F6D3C5E7C046FF070000F0B5564644465F464B
:403440004D46F0B44F001D1C0B03141C1A0B7B0D87B0061C92469846CF0F002B21D1024300D149E15346002B00D1E4E1504600F0FFFE031E272B00DDD8E1083B51469940BF
:4034800028228846111A321CCA4041460A4392469E40D84B0022181A002180469146039111E0D54883423ED0802153464A031A43D000710F0843D14A824600230020F600A2
:4034C000904499460390291C201C251C4A000C03CB0F240B520D9B4631D1211C014300D112E1002C00D19DE1201C00F0C1FE272800DD91E1031C2822083B291C121A9C40DE
:40350000D1400C439D40BB4B59461A1A794000204B46019103430F2B26D89900B84B8C46634419688F46111C314300D0DFE0082600200221B146824600260391C3E7AE48D6
:40354000824200D1C9E080214B031C43AB49680FE4000443ED0052180020594679404B46019103430F2BD8D942443304290404921A0C0F0C101C7843360C331C80462D0CCE
:403580007B43301C6843111C69439C4643468346180C08186044844500D91FE1010C4346039119040B0C0004C0182104240C0590101C6243090C02924843321C66434A4312
:4035C000029BB146060C9046B4461A1C62444244904502D9802673029944160CB046C14400044B46060C12040293931956463204100C021C6A439C46031C7B439146320CA3
:40360000574398461B0C9A46D144B94455434F4502D980277E02AD194B461F0C4646ED191F0433041E0C031C4B436043514354431A0C8018B046401847449A46814202D9A3
:4036400080214E02A419039B1A1C62445A44624589414E425146B34603040E049C460299330C6344CE18B046C246DA44D219BA42BF4151467B426F18F9189946DA459B41C8
:403680005E42029BB3469845B64176425B461E43000C49459B41AF42AD4136186F425842384336180598341956020643CB0D6402701E8641D20D164349021C430E43E0015D
:4036C0002FD50127049D374073083E1CE00701351E4304950643640823E0231C2B430320002B00D039E700240025022035E70C22032391460393E6E6042600230120B1467E
:403700009A4600260390DEE600240025012024E703985446022844D0032800D1EAE0012860D0049A37495018002800DC95E00F273740042F05D0311DB142B6417542641905
:403740000E1CE10105D53048049A8023DF000440D0192E49884224DC019B6507F6086402420501272E43240B520D1F4000200021090D0D052543264C12052C4014436300A4
:40378000301C5E08FF07311C394307B03CBC90469946A246AB46F0BD5A462E1C01920228BAD1019E01273740134A00240026DDE7544601970398ADE701260027154C7642FB
:4037C0000D4AD3E72E1CA5E7802213035146194235D10B431D032C0B074AC7E780214B029B44DBE6019B00221840C7B200240026BCE7C0460DFCFFFFFF07000001FCFFFF76
:4038000064710000FF030000FFFFFFFEFE070000FFFF0F80FFFF0F00041C283CA5402C1C002570E600F024FD203060E6283B9E40B24600262DE600F01BFD203019E61C421D
:4038400006D11C432603340B5F462E1C2E4A8DE70B431803040B2C4A88E72C4F049D7B1B382B06DD019E012737400022002400267CE71F2B21DC049A254F351CD119201C9D
:403880008E40DD408840321C2843561EB241061C1643DC400F233340042B05D0371DB742B641714264183E1C250217D5019B01271F4001220024002658E71648049A211C0D
:4038C000871AF9400D1C202B12D0134BD01884402643721E96412E430024DBE7019A6507F6086002012717402E43040B00223DE70024EDE780210F033C43019824030127A9
:40390000240B0740004A31E7FF07000002FCFFFF1E040000E2FBFFFF3E040000F0B557464E464546E0B4071C0D034E00680ACC0F790F08438446111C18035A00FD00400A25
:40394000DF0F4B0F1843CA4BC900760D520D8A469A4200D1E0E001235F40B946BC4200D1A8E0B71A002F00DC10E1002A12D15246024300D1D4E0013F002F00D060E151463B
:403980006F1ABD42AD4162466B42101A3D1CC31A371C24E0B64A964200D1E3E080210B041843382F00DD23E11F2F00DD66E12021C91B021C53468A40FB401A4353468B40B2
:4039C000191C4B1E9941031C0A43FB40AA1A67469542AD41F81A6B42C31A151C371C1A0200D4C7E05E02710A88464246002A00D1F0E0404600F03CFC021C083A1F2A00DD8B
:403A0000F1E02823181A2E1C4146C6409140331C0B439540974200DDA9E0D01B411C1F2900DD12E11F273A1A2E1C181CCE409040954030436A1E9541CB4005430121002747
:403A40000F262E40042E00D172E02E1DAE42AD41684280221B180125100418402C40002807D0834FB94200D1B0E0824A0F1C13400131F20849055E073243DB08480D01287C
:403A800000DC79E01B0378051E0B470D00200021090D7D050B05784F1E43101C37406A0817437E007108E40721431CBC90469946A246F0BDB31A002B00DCA6E0002A3ED03F
:403AC0006B4A96424ED080210F043843382B00DC18E15346184300270022002800D001225219AA42AD4167446B42FB18151C371C1E023FD55E487E1C864200D17BE15D4919
:403B000001222A400B406808151CD90705430D435B08B91C371C93E7014300D11BE71CE7711C371C0F2663462E40042E00D08CE7802201261004344018402E1C8FE75246D3
:403B40000243EDD0013B002B09D157467919A9429241554260444319371C0D1CC8E744498E42B3D1802063460101371C68E7BF1A404A1340791C63E7151C1D4300D121E28B
:403B8000002F3ED0802631030B437BE7002F00D086E0721C51054B0D012B00DCF0E05746EA1B95429B416746391A5B42C91A88460B0200D49DE05446651BAA459241C01B0D
:403BC0005742C31B9846371C4C460EE70F1C002600225BE7281C00F04BFB2030021C083A1F2A00DC0DE7283885402B1C002511E75746384300230022002800D1E6E60122D0
:403C0000E4E61D032E0B002740E7002B00D0D9E0771C79054A0D012A00DC95E0144B9F4200D1FEE051464919A942AD4162466B428018C2184908D5070D435308B11CFFE669
:403C40000B498E4200D0ACE68CE7061C1F3E1F1CF7403E1C202973D03F22101A83401D436B1E9D413543012100230027E8E6C046FF070000FFFF7FFFFFFF0F803B1C203BE6
:403C8000011CD9400B1C202F5CD04022D71BB840021C50460243511E8A411A43002395E67F42002E40D0CA4CA24200D11FE1802166460B041E43B446382F00DDA9E01F2F16
:403CC00000DD3DE12023DE1B291C6446B440F940B5406B1E9D41214363460D43FB4057467D1BC01AAA459B415F42C31B4C46171C75E60D1C154320D10024012100230426FF
:403D00000027B6E61F2B4ADC2021C91A071C52468F40DA403A4357468F40391C4F1EB941D8400A43071CDBE664462C4369D1511C031C5546171C4C4682E6151C371C54E635
:403D400000238CE70022A4E767462F43002E00D0D4E0002F00D126E15346034300D1E4E051464F19AF42AD4160446E4283191E0200D44EE197483D1C0340022101275FE6B8
:403D800061462943002E29D1002976D151460143B2D0031C55464C460121002750E61F1C203F011CF9400F1C202B00D1C6E04022D31A9840021C50460243531E9A413A436A
:403DC00000278DE65B42002E30D167462F4300D0C8E0511C031C5546171C31E6002965D15746074300D1C8E0031C802055464C460101774F24E68023371C1901042600237B
:403E000037E6013F002F6ED154466146651B401A68E767463D430023002D00D15FE701255DE7802631010023042622E668498A4200D1C1E08027664639040E43B446382BF5
:403E400000DDA2E01F2B00DDD0E02021C91A2E1C67468F408D40DE403E43291C67464D1EA941DF40351C0D433E1C554455459B4130185E428319171C3AE65646064354D066
:403E80005746EA1B63469542B641191A7342CB1A1E0200D4A2E07D1B6446AA45BF41001B7A42831A4C4601210027C9E5564606433FD0624680215707ED08D3080A033D4380
:403EC000134208D0C608164205D15546EC0845072543331C4C46680FDB0080260343ED0031013B4FACE53A498A4200D0E4E68026031C55464C463101171CA1E5002F4CD0EC
:403F00005346034315D062468026ED085107D30837030D433B42DED0C2083A42DBD15546E9084507131C0D43D5E763460121002786E5802739016346254F81E500223AE789
:403F40003C1C203C6646E640331C202F5FD04024E71B6646BE40311C0D43691E8D411D430023BCE6013B002B22D155445545BF417B426044C318171CBAE580210422002441
:403F80000901154B5642124F73E563461D430026002D00D169E7012567E78022031C554611010B4F4CE5031C55460121002747E507498A4200D042E78021031C55460901B3
:403FC000171C3DE57F057F0D002600225EE5C046FF070000FFFF7FFFFFFF7F001D1C154300D189E6151C0121002729E51F1C203F6146F940202B10D04026F31A67469F40CF
:404000003B1C1D436B1E9D410D4300262DE70021A2E73D1C0121002712E50023F1E7C04670B5041E26D000F023F914490A1A0A2813DD0B38844056052403720D250B00264A
:4040400000200021301C0E0D33050D4C2B4311051C400C436500690870BD0B23051C181A1535211CC440A940520525030E1C2D0B520DE5E7002200250026E1E71E0400007D
:40408000FFFF0F80410070B50E0E731C4202C50FD8B2540A012815DD6307E024A000120B341800200021181C0B0D1E051C4B324361054C08134023435A005608ED07311CD8
:4040C000294370BD002E16D1002C1ED0201C00F0CFF80A281DDC0B22111A021C231C1532CB4094401E1C231C34030E4E220B301A41054C0DD5E7002C03D06307120B0A4C45
:40410000CFE7094C00220023CBE7002400220023C7E7011C0B398C40261C0023E4E7C046FFFF0F8089030000FF070000F0B5041C4800400D0A03CD0F411C630F520A4F0522
:404140001A43E6007B0D012B3BDD42494318FE2B2CDC002B4EDDA401770FD200611E8C413D4E224380193A430F261640042E47D18027FC0414401DD0FF2838D0374B1A40AC
:40418000031C0130C6B2D208012E17DC002A06D0002B29D08027FC03224351024A0ADBB2DB051A43ED07101C2843F0BD802148000422FF23C6B2D208012EE7DD51024A0A46
:4041C000EDE7002806D132430120002A15D104220023EFE71643E9D08024A004D20080260243FF237000BFE75002420AD8E7FF230022D5E7173305DA012005220023D9E727
:404200000432B5E78023164F19040A433C1A1F2C0DDC1449331C4718BE40301C461EB041BA40E34002431A43012000239CE70E4B171C191ACF403B1C202C09D00B4C0019C6
:4042400082403243561EB2411A43012000238BE70022F6E780FCFFFF81FCFFFFFFFFFFFB9E03000082FCFFFF7E030000A2FCFFFF1C2101231B04984201D3000C10391B0ABF
:40428000984201D3000A08391B09984201D30009043902A2105C40187047C0460403020201010101000000000000000008B5002100F05AFE08BD000070B50E4B0E4D0024D1
:4042C000E81A85101E1CAC4204D0A100725890470134F8E703F028F80849094A0E1C541AA5100024AC4204D0A300F05880470134F8E770BD34730000347300003473000003
:404300003C73000010B50023934203D0CC5CC4540133F9E710BD00B58218031C934202D019700133FAE700BD0CB430B5164B9DB00C1C1D6804D58B200122286050421DE0EF
:4043400002A9822293000290086100208B81844200D0601E0122534288604861CB81209A21AB281C019300F063FE421C01DA8B212960002C02D0029D00242C701DB030BC58
:4043800008BC02B01847C0464801002010B502680C7801320131002C09D01378402B02DD5A2B00DC2033A342F2D0002001E00260012010BD00000000F0B5BE4FBC4E9FB010
:4043C00007900A9117921991199A13780D2B05D8092B14D2002B00D1C2E113E02B2B06D02D2B02D0202B0DD109E0012000E00020511C199154781490002C05D1B0E1013263
:404400001992E1E700251495199D00232A780C93302A5CD16878582801D078284BD1149C1AA900910194079819A9A34A1BAB01F029F907240690044001D100F062FD062C95
:4044400003D10135199500F05CFD1A9A002A08D0994D1CA8296802F011F807981A9901F085FC1B9A062C1CD8201C02F0BFF8040A0714170A040000273E1C12E01C9E1D9F94
:404480000FE08E4F8E4CD0191D9903050C401F1C1C9E274305E08B4F002602E001268A4F7642069D2D0701D400F02BFD80221006074300F026FD19994C1C19944D78302DC3
:4044C000F9D0002D01D100F01CFD01220C92199B002010930B9009900890199D2C782F2C17DC079801F0B0FB01680798069101F0ABFB006802F038F80699021C281C02F051
:404500003AF8051E1DD0089A0020069284460D9079E0392CE5DC08980F280CDC0A23303C082804DC099A5343E018099003E00B994B43E4180B94089B0135013308931995C1
:40454000CBE70798199C01F07FFB006802F00CF82318089819931C78002803D00690AC46281C44E00898302C05D1199C0130621C19926478F7E7211C313908293ED8199B29
:404580008446002010930690303C421C002C29D0069B9444069D0133591B91420DDA5D1E102DF7DC0A21092B03DC099D4D430995F0E70B9D4D430B95ECE7C243D317184005
:4045C0002818451C0695002210280BDC0A21092D04DC099841430D19099503E00B9B59430C190B94199B101C591C19915C78221C303A092AC8D901250D9504E000250122E8
:404600000695AC460D92652C02D00023452C62D1069C0C9B04431C4300D1A1E019990A1C013219924C780A912B2C04D02D2C05D00025119509E00023119301E0012411944F
:404640000A990A9A023119919478251C303D092D3ED8302C04D1199C621C19926478F8E7211C31390023082935D8251C1999303D199C631C199364782F2C07DC5A1A0E92D0
:4046800012490E9A0B1C082A0BDC06E0392CF5DC0A235D432D19303DEAE72B1E8B4200DD0B1C119D002D16D05B4214E0C046C04600000000000000004C010020330400002E
:4046C000FFFFEFFF0000F07FFFFFFF7F1F4E00000A9B199300230699002946D10C99084301D000F00EFC0D9B002B39D14E2C1CD002DC492C34D104E0692C02D06E2C2FD1E8
:4047000013E019A8A649FFF741FE002828D0199E19A8013EA3491996FFF738FE002802D1199F01371997A04F18E019A89F49FFF72DFE002814D0199D287828280DD119A866
:404740009B491CAA01F0EAF9052806D1964A1D9C171C27431C9E00F0D4FB964F0026D0E30A98002119901491CBE366469F1B0698089B0A970C90002B00D00C93069C102C2F
:4047800000DD10240998FFF74BFC061C0F1C092C15DD221C093A884ED50077193A687B68FEF74AFE051C0B980E1CFFF739FC021C0B1C281C311C01F043FF061C0F1C06990A
:4047C0000F2939DC0A98002800D19AE326DD162807DC794CC0002218106851683B1C321C17E006980A9D25210A1A954224DC069C0F231D1B704CEA00A1183B1C321C08689E
:404800004968FEF719FE0A9E771BFB00E5182A686B68FEF711FE061C0F1C72E30A9B16330ADB0A9C644AE500531B301C391C1A685B68FEF707FAEEE7069B0A991C1B0D19B2
:40484000002D52DD0F2028400AD05B4BC1005C18321C3B1C20686168FEF7EEFD061C0F1C0F22954300D1B5E09A2041008D420EDD002206920B9210920C920798109D222123
:4048800000260160484FB54200D026E339E32C11301C391C0025012C0BDDE20706D5474FEE00F3191A685B68FEF7C6FD01356410F1E7424C424EED00021C60198B19416814
:4048C0000068FEF7B9FD384A0B1C0A403D49061C8A42CDD83C4DAA4203D901263B4F764278E0D424A0041F1874E0002D72D06C420F2020400AD0304AC300D518301C391C0F
:404900002A686B68FEF79EF9061C0F1C241161D01F2C05DD002206920B9210920C922DE1E106C8176A230340301C294E0D93391C002C08DDE20703D532687368FEF77CFDFE
:4049400064100836F4E70D9C061C0F1C002C19D04D000A1C680D6B210B1A002B12DD1F2B0CDD0026342B02DDDC239F040AE001277842203B9840171C074003E0012462428E
:404980009A401640301C391C044B034AFDF782FB0028BFD120E0C0460000000000000000A6710000A97100000000F07FAF710000600100200000F8FF287200000073000016
:4049C0000000B0FC0000A07C0000907CFFFFEF7FB871000000230D93099A1099009207980C9A069B01F019FA0A991090CD174C422540169510981BAC43680798059305990F
:404A000001F07CF9109A109915690C9004950235AA000C310C30FFF775FC18A90091321C3B1C019407980E960F9701F0ADFC01211A90079801F07AFA0B900A980025854241
:404A400000DA051C189C002C00DAA1E016992A1C0B190D981B99241A60188446AA48844500DB98E0A94821180D9C5818521806901419011E994200DD191CA14200DD211C87
:404A8000002900DC8AE006985B1A421A0692641A08931699002911D00B99169A079801F0DFFA0B900B991A9A079801F048FA1A990990079801F05AF909981A90069A002AE8
:404AC00004DD07981A9901F01DFB1A90002D05D007980C992A1C01F0C3FA0C90002C05DD07980C99221C01F00DFB0C90089D002D05DD07980B992A1C01F004FB0B901A995A
:404B000007980C9A01F06CFB0023C4680B99C3600690119401F048FB002846DA002C00D0C6E1002E00D0C3E1381C3D0300D0BFE1774AD6231040DC04A04200D8B8E10699E6
:404B4000486900282CD006990798012201F0DAFA0B99069001F028FB002800DCA8E10D9C6B4B002C4CD0181CD6213840CD04A84246D8DC24A104884200D99CE1079D109B28
:404B80002220584F564E2860002B00D0A5E1B8E12A1B169B5DE73624611A65E7089378E7069D2A69012ACEDC82E1002855D1119D002D20D0574C39033B1C080BA04227D1C7
:404BC00001250D986942341C0A1C00280AD05048D4253840ED04A84204D86B22000D151AA9400A1C944213D1494F80243B4061035F1800265CE13A030AD1002E08D1AEE7CC
:404C0000454E3B40434F9B1901221F4356424FE10123334200D14BE1119E0E980F99002E0AD001F045FB021C0B1C0E980F9901F007FD061C0F1C3BE101F03AFB021C0B1CAB
:404C40000E980F99FEF76AFE264B254A061C0F1CFDF720FA002891D12AE106980B9901F0E9FB214A214B041C0D1CFDF723FA002858D01199002906D0284800211C4C1D4D15
:404C8000099108905EE0002E02D13A0305D10BE0012E02D1002F00D170E7204B0022164C164D099208934DE0201C291C104A114BFDF7F6F9002808D1201C291C104A114B25
:404CC000FEF7BAFB0990089103E0119C144B09940893089D80210806099C2D1832E0C04600000000000000000000000000000040000000000000F03F000000000000F0BF3D
:404D0000000000000000E03F03FCFFFF330400000000F07FFFFF0F000000F0FF0000F03F0000E03F291C201C804B7F4AFEF784FB0990119808910D1C002802D18022130624
:404D4000CD18099C824B834A3B40159393422CD10E9A0F9B129213937F4B301CFF18391C01F0A6FA021C0B1C201C291CFEF764FB021C0B1C301C391C01F062FC744D0C1C33
:404D80000D407649061C8D420BD9754E139FB74203D11298431C00D16FE50124704F664275E0D4229304E7183AE00D9E002E25D0159FD421C804874220D8099808995C4A2F
:404DC0005C4BFDF777F9002813D00998089901F017FC002800D10120FFF722F9119C099008910A1C002C02D180252B06CA18099C151CD626F104159F6818C51B0E980F9947
:404E000001F056FA021C0B1C201C291CFEF714FB021C0B1C0E980F9901F012FC061C0F1C0D9C0E97002C32D14948159D391C01408D422CD10899099801F0B2FF01F0E4FFAE
:404E4000021C0B1C09980899FEF768FD119A041C0D1C002A04D1002E02D10E9B19030ED0201C291C344A354BFDF71AF9002834D1201C291C324A334BFDF726F905E0201C58
:404E8000291C314A314BFDF70BF9002825D107981A9900F06BFF07980C9900F067FF07980B9900F063FF0798069900F05FFFA1E50D9A002A11D02B4C002112911394301CD3
:404EC000391C129A139BFEF7B7FA061C0F1C04D1002802D1079D2220286007981A9900F045FF07980C9900F041FF07980B9900F03DFF0798109900F039FF0798069900F0CB
:404F000035FF179B002B01D0199C1C6014993B1C002902D080252A06BB18301C191C1FB0F0BDC046C046C046000000000000E03F0000C0FFFFFFDF419535A094FFFFDF3F92
:404F400035E5AF350000E03F9535A094FFFFCF3F0000F07F0000E07F0000B0FCFFFF9F7CFFFFEF7F0000503908B50A1C0349031C0868191CFFF720FA08BDC046480100204B
:404F8000F7B501919168071C141C002940D190239289D80002423BD02568216963696E1A58000096C6180098F50FAB1901305D10A84201DB009D0235381C53050FD5291C94
:404FC00000F046FE061E13D02169009AFFF79AF9A7891649802239401143A18111E02A1C01F08AFA061E0CD1381C216900F0A6FA0C203860A58940263543A58101246042D1
:4050000013E0009B6561F018ED1A26612060A560A668002E08DD694627680A793A70A3680137013B2760A3600020FEBD7FFBFFFFF0B5A1B0049007938B890E1C171C190665
:405040000FD53269002A0CD1402100F001FE30603061002803D1049C0C262660D6E04020706108AD00212024302369616C76AB763C1C2278002A04D1E01B069019D00397BF
:405080000FE0252AF8D00134F3E70399321C09780498FFF775FF039A01320392013000D1AFE003990698CB1B8342EEDB0D9F3A180D922178002900D1A3E001206A4600231F
:4050C0004742633201342B60EB606F60AB601370AB65504F2178381C052200F003FE002807D0C71B2B680120B840184328600134EFE72B68D90603D56846202163300170BE
:405100001A0703D56A462B276332177021782A2901D00B9B0EE0079A1068111D0791002801DB0B9004E0022247421343EF602B60013409E020783038092804D80A277B43AE
:4051400001341B18F6E70B9323782E2B18D161782A2909D1079B02341A68191D0791002A0DDA012042420AE00134002220783038092804D80A277A4301341218F6E7099278
:40518000254F2178381C032200F0ACFD002806D02B68C21B4021914019432960013421781E4806222976671C00F09CFD002817D01B4800280BD12868079C0723C10501D5D5
:4051C000E41800E007349C430834079414E007AA00920498291C321C124B00E000BF07E007AC00940498291C321C0E4B00F08CF8059005994A1C04D00D99059A8C180D945F
:4052000036E7B589690601D40D9801E00127784221B0F0BDE0710000E6710000EA71000000000000814F0000F7B5151C01930A698B6800900C1C934200DA131C201C2B60E2
:4052400043300178002901D001332B602668B00602D52F6802372F602268062616401CD0261C4336377822683E1C731E9E4192061CD5A319181C40303021271CC17045372F
:405280003A784133DA70023610E0617E0098019A089FB847013006D00136E3682868191A8E42F2DBDCE7012040422CE00027B7420ADAE119433109780098019A089B98479B
:4052C0000130F0D00137F2E72B68256806212940E6680025042903D1F01AC743FD170540A2682669B24201DD931BED180027AF4208DAA17E0098019A089EB0470130D2D041
:405300000137F4E70020FEBDF0B50D1C8BB0433507930590069204950A7E0C1C109B6E2A00D1A8E012D8632A24D009D8002A00D1B1E0582A00D0C1E045310A707D4D51E09C
:40534000642A1FD0692A00D0B8E01BE0732A00D1A5E009D86F2A2BD0702A00D0AEE00A68202616430E6038E0752A21D0782A00D0A4E032E018680E1C051D1D6003684236FF
:4053800033709EE026681F68300606D4750604D5381D186000203D5E02E03D1D1D603D68644B002D3BDA04992D226D420A7036E027681E683D0605D4780603D5351D1D60FB
:4053C000358802E0311D196035685A4B207E039308276F281ED00A271CE0271C45377820554D38701A682668111D03951960300603D4750601D5158800E01568F00702D5DA
:4054000020231E4326601027002D03D12668202086432660261C43360022327001E003930A276168A160002903DB2068042398432060002D02D1049E00290ED0049E281C5C
:40544000391CFCF7ABFD039A013E515C281C3170391CFCF75FFD051EF1D1049B9A1B2261082F33D12768F80730D5606890422DDC013262602AE008681E684969050606D471
:40548000450604D5351D1D603368198003E0321D1A603768396000202061049E16E01E68311D19603668301C01F05EF865682061A84200D925612369636004E0261C4236A6
:4054C000327001212161049F00223A7007990598009109AA211C069BFFF7A6FE01300CD0351C2269AB1B93420ADA29780598069A079FB84701350130F3D10122504217E03C
:405500002668B10705D4099BE068984210DA181C0EE00025E7680998391A8D42F3DA617E0598069A079EB0470130E6D00135F1E70BB0F0BDF17100000272000030B500297D
:4055400040D004390B68002B00DAC9181E4A1368141C002B02D14B60116033E099420FD20D684A199A4205D110682B1855680B604D6000E04B60216024E08A4203D8131C89
:405580005A68002AF9D11D685C198C420BD10C682D1958191D60904214D1116852686C181C605A600EE08C4202D90C21016009E008680D18954203D1146852680019086040
:4055C0004A60596030BDC04608020020F7B5021C066914324C11131CB4422BDA0436B300271DC518BC00043506191F2300951940351D002901D1131C16E02024631A7468C4
:405600000193CC400435131C009EB54207D22E68019FBE40344310C310CDCC40F4E71C60002C07D0043305E000998D4202D280CD80C3F9E7991A8A10026100D14261F7BD93
:4056400030B5031C1A78002A05D00D1A024CED18A5540133F6E730BDA802002008B506481021FFF7EDFF05481A21FFF7E9FF04481A21FFF7E5FF08BD137200000C720000AD
:40568000FB710000F0B58DB00791161C0A93069000F0DAFA0068089000F066FF089904900B18013B1878BD4A0B9030321478002C01D1FFF7D3FF079D2F68B91C01910198D1
:4056C000CB1B0278023B05930131302AF6D0B34CA55C002D1CD10899049A00F04CFF00283DD1019F04997F183B78E25C3B1C002A3AD01D78302D01D10133FAE7A748415DA3
:4057000001933D1C002907D101270397059707E000200390051C03E00023012203930592019F9E4C3878215C002901D00137F8E7381C0899049A00F01EFF00280AD1002D74
:405740000AD1049D7F193D1C3B78E25C002A01D00137F9E7002D0BD0EC1BA50008E00120019F0295039004E001240292039400E002953978502901D0702927D17A782B2AB3
:4057800004D02D2A04D07B1C002103E0002100E00121BB1C1D78814C625D002A16D0192A14DC013318787D4D103A285C002803D1002907D0524205E01928F9DC0A256A432E
:4057C0001218EEE702998C18029400E03B1C0798039A0360002A06D0059E0621754275416D420D4085E1019C03993C1B013C072C02DD01316410FAE7069800F07FFA011CDC
:4058000014310025041C039109910595019B9F4229D9013F07973B780B9FBB4208D0059B202B13D1099F20C70025099705950DE00798049A0199871A01378F42EFD3381C46
:40584000089900F098FE0028E0D0E8E70798534A01780F23575C05983B40834004301D430590079FD2E7099F039820C73A1A9110281C21614F0100F010FB3D1A3768BD4238
:405880002CDDED1B201C291C00F00FFE0023019398421BD06B1E01221F211940101C8840011C58110430800020184068019208420CD0934202DC0223019307E0A91E201C7B
:4058C00000F0F3FD0028F6D003220192291C201CFFF77CFE02994D19029510E000230193BD420CDA7D1B211C2A1C069800F00AFC041C0298211C421B143102920391029B00
:40590000B068834208DD211C069800F02FFA129A00241460A325ECE07168029A8A4259DA8D1ABD422DDBF06802281AD003281CD001281DD1BD421BD1012F0BDC76680A9B98
:405940000398129901271E6000962761622507600C60CEE0791E201C00F0A7FD0028EDD106E013990029E9D002E0139F002FE5D10698211C00F0FAF9129D00222A6050254D
:40598000B7E0019B691E0291002B09D1002909DD201C00F08AFD019004E0C046A80200200120019002991F204A110140039893001B5801228A40134203D0019A02210A43A5
:4059C0000192291C201CFFF701FE7F1B75680295022500E001250198002800D184E0F368022B0DD0032B0FD0012B7BD1011C890778D5039A019910680843184207D171E00C
:405A0000139A0120831A00E0139B002B6AD02169231C01910198143304308200A11804311A68501C02D001321A6022E0002001C38B42F5D3019BA1688B4212DB616806987B
:405A4000013100F05BF92269211C023203900C3192000C30FEF756FC211C069800F086F9039C2069031D990001236218C01853602061022D12D130680138874230D11F210D
:405A800039407F1101260437321CB8008A402118131C4A681A4223D0351C21E0256901998D420DDD201C0121FFF790FD029DB66801350295029B0125B34200DD23E70FE016
:405AC0001F2217400125002F0AD0019B033398002118486800F0E1F92022D71BB842E1DB202600E010263543129E0A9B3460029C1C60281C0DB0F0BD08239A1A70B59200BD
:405B00002025AD1A436806681C1CAC403443D3400460436004308842F4D370BDF0B5494B87B00590303318780C1C151C002801D1FFF794FD21681F244A119600AF192140E1
:405B40000197039102D0019B043301930598019E0168043E002232600291371C341C04920092029B5878002838D03649095C00291ED1202815D80499009881422ADABC42FF
:405B800005D2072A03DC201C391CFFF7B5FF0822AC421FD9009B043C002222600493271C18E0292849D10299059B0231196015E0009B013201330093082A05DDAC4209D9A2
:405BC0000022043C22600122206803010F20014019432160029901310291C2E7009800282BD0BC4205D2072A03DC201C391CFFF783FFAC420AD92A1C02CC02C2131CA64253
:405C0000FAD2002410C3B342FBD90CE0039F002F09D0019C2022043C0123D11B20685F42CF40074027603768002F08D1AE4202D10125356003E0043EF5E7042000E00520BE
:405C400007B0F0BDA8020020004870477401002070B50323CD1C9D430835061C0C2D01D20C2501E0002D2DDB8D422BD31C4A1368111C1C1C002C12D02068421B0CD40B2A81
:405C800002D92260A41815E0A34202D166680E601CE065685D6019E0231C6468EAE7301C291C00F04FFC421C0CD0C41C03218C43844201D1256009E0211A301C00F042FCF3
:405CC0000130F7D10C243460002008E0201C0B300722211D9043431A01D05D42E55070BD0802002000B5C9B28218904204D003788B4202D00130F8E7002000BD70B5456A8A
:405D0000041C0E1C002D07D1102000F05BFC6062456085600560C560656AEB68002B09D0656AB200EB689918086800280ED004680C6017E00421201C212200F034FCE860CB
:405D4000606AC1680029EBD100200EE001210D1CB540681D8200201C00F025FC0028F3D04660856000260661C66070BD70B5446A061C0D1C002C07D1102000F023FC706220
:405D8000446084600460C460002D07D0726A6968D0688B00C61834682C60356070BDF7B50C1C1E1C0D69071C143100230868013380B2504386190868B446000C5043360C35
:405DC0003018060C00040190604680B2844601988444604601C1AB42E8DB002E1BD0A1688D4212DB6168381C0131FFF787FF2269211C023201900C3192000C30FEF782FAE7
:405E0000211C381CFFF7B2FF019C2F1DBB00E018013546602561201CFEBDF7B5061C181C0F1C083009210193151CFCF7C1F801230021984202DD5B000131FAE7301CFFF787
:405E40005DFF089B011C436101200861092D12DD3A1C093200927F19141C2378301C303B0A22FFF79CFF0134011CBC42F5D1009B5F19083F01E00A3709252C1C0198844252
:405E800009DA7A1B135D301C303B0A22FFF787FF0134011CF2E7081CFEBD031C020C002000B5824201D11B041020190E01D108301B021A0F01D104301B01990F01D1023065
:405EC0009B00002B03DB01305A0000D4202000BD0368021C072000B518400CD0012100200B4222D10220034203D0CB401360081C1BE09B0816E099B2002901D11B0C10207A
:405F0000D9B2002901D108301B0A190701D104301B09990701D102309B08D90702D45B0802D00130136000E0202000BD10B50C1C0121FFF7E3FE01234461036110BDF0B5FC
:405F40000C1C151C0969126989B0914202DA231C2C1C1D1C27692E69A268BB1961680193934200DD0131FFF7C9FE0199031C04318A0081181433043103911A1C03998A4271
:405F800002D2002102C2F9E704370436BF00B600221CA919E419143204340431143504920594069100959C46009D069B07959D4246D2009D2C88002C1BD004996346002287
:405FC00040C91D68B7B267430297AFB2029D360CEF196643BF181A68150C76193A0CB5182E042A0CBFB2059D3E4340C38D42E7D81A60009C0799043400944C88002C1CD05D
:4060000063461A6804990025079140C992B2B7B267430297029E5F88F7197D192E043243079E04C372881F8862432D0CBF18059E7A19150C8E42E7D81A600424A444B3E742
:40604000039E019A002A03DC019C046109B0F0BD043E3768002FF7D1019901390191F0E70323F7B51340051C0E1C171C002B08D0013B224A980082580023281CFFF78FFEB4
:40608000061CBF1037D06C6A002C07D1102000F099FA6862446084600460C460696A8C680191002C10D1281C1549FFF73FFF019B041C98600020206006E07F101BD0206809
:4060C000019000280ED0041CFB07F6D5311C221C281CFFF734FF311C0190281CFFF746FE019EEAE7221C281C211CFFF728FF019A20600260E7E7301CFEBDC046F0720000C2
:4061000071020000F0B50C1C5611171C226985B00390B018029049680130A3680190019D9D4202DD01315B00F9E70398FFF7E6FD0022051C1430B24203DA002102C00132AF
:40614000F9E7F343D91722690E4004360432B6009000AE19231C20181F210436143304300F4013D02022D11B8C4600221968B9400A4304C604CB6146CA408342F6D33260D2
:40618000002A07D0029E0236019603E080CB80C69842FBD8019B0398013B2B61211CFFF7E5FD281C05B0F0BD30B50A690469031CA01A14D1043292001D1C89189B18143573
:4061C00004330431043B04391C680A68944204D09442AD410120284301E0AB42F2D830BDF0B5071C85B0081C0C1C111C151CFFF7DBFF061E07D1381C311CFFF77FFD012794
:406200000761466151E0002801DB002603E0231C01262C1C1D1C6168381CFFF76FFD2169C6602E690A1C0432043697000191B100E3196A1804320433061C03920293143475
:4062400014351436002280CC02CDBC46BFB2BA188BB26746D31A090C3A0C571A1A14B9188C4667463A149BB23F043B4308C6039B211C371CAB42E6D8029CA1420BD208C9B6
:406280009CB2A41825141E0CAB191D04A4B22C431A1410C7F0E7043F3D68002D03D1019A013A0192F7E7019E066105B0F0BD00000E4B0F4A0B40981810B5002801DD011CBE
:4062C00009E041420B1500200021132B05DC80210A03111C1941002006E00122322B02DC3324E01A8240101C10BDC0460000F07F0000C0FCF8B504690F1C0434A100441862
:406300002568061C281CFFF7C8FD20231A1A3A6014361C4F0A2811DC0B21091A2A1CCA40944663463B430027B44201D9043C27681530CF408540381C284320E00021A64283
:4063400001D2043C21680B235A4213189C46002B12D09D402B222F43101A0D1C3B1CC5402B430027B44201D9043C2768C7406446A140381C084302E03B1C2B43081C191CED
:40638000F8BDC0460000F03FF7B501211D1C141CFFF7B4FC2B036900061C4D0D180B002D02D08022570338430190002C19D068460094FFF78DFD009A002809D0019B20218A
:4063C0001C1C0F1ABC402243C3407261019300E07261019A022753425341FF1AB261376107E001A8FFF774FD019C0127746137612030002D09D00D4C352729190A183D1A1E
:40640000089B09981A6005600DE0F91C084D8A00089C4019B31820605868FFF73EFD7F013D1A09980560301CFEBDC046CDFBFFFFCEFBFFFFF7B50E1C6946071CFFF75AFFB1
:40644000041C0D1C301C01A9FFF754FF3F69021C0B1C009801993669401AB91B844648016044002802DD0605751901E00705DB1B201C291CFCF7E6FB03B0F0BD013910B5BA
:406480004911146901318B000434C118A300D318043314329A4202D210CA10C0FAE7884202D2002204C0FAE710BD30B5021C051C006914354B1183420FDC0FDA1F24214050
:4064C0000CD0181D840010194468201CC8408840011C0120A1420ED100E0031C04339C0012190432AA4205D9043A10680028F9D0012000E0002030BDF8B5061C0C1C151C4C
:40650000002904D1111CFFF7A3FB041C18E0002A03D1FFF713F82C1C12E000F05DF8A8420ED2301C291CFFF793FB071E07D0211C2A1CFDF7E7FE301C211CFEF7FFFF3C1CFB
:40654000201CF8BD38B5074C0023051C081C236000F094FC431C03D12168002900D0296038BDC046A80300200023C25C0133002AFBD1581E7047031C002010B5824211D03A
:406580001C780878A04201D1012A03D11A780978501A07E0013A0028F8D001330131002AEED1F3E710BD38B50D1C5543291CFFF74FFB041E03D000212A1CFDF7ACFE201C26
:4065C00038BD000008B5034B011C1868FFF740FB08BDC0464801002004390B6800B5181F002B02DAC8581918081F00BD02B4714649084900095C49008E4402BC7047C046BF
:4066000038B50E4B0C4A041C0D1CFBF767FD002804D1201C291C00F0C3FB38BD074B064A201C291CFDF77AF900F0BAFB802319064018F2E7C046C046000000000000E041AF
:40664000F8B55F4656464D464446F0B40C03460F640A3443A3465E001C03DB0F9C46630A98464D00530F44461C436D0DC90F760DD2000F1CC000A1469246AB1B614500D17F
:40668000A4E0002B00DCF5E0002E0CD1261C164300D1C2E0013B002B00D046E15C464B46821AE71A21E0D24EB54200D1CDE080244A4627043A439146382B00DD0FE11F2B70
:4066C00000DD50E12026F61A4C4652465746B440B740DA4022433E1C4C46771EBE41DC403243261C5B46821A9F1B904280414642BB1B141C2E1C0F1C180200D4AEE05D024A
:40670000690A88464246002A00D1D9E04046FDF7AFFD051C083D1F2D00DDDAE02822131A201C4146D840A940031C0B43AC40AE4200DD90E0AE1B711C1F2900DD00E11F2001
:40674000851B1A1C201CAA40C840AC401043661EB4410443CB40012200260F202040042864D0201DA042A441654280215B1901240D041D402740002D07D09D4EB24200D165
:406780009AE09C49161C0B4001325C07C00852050443DB08550D012D62DD1B0376051B0B760D00200021090D201C0A05924C1343760575081C402C436300FF07590839432E
:4067C0003CBC90469946A246AB46F8BD002B00DC91E0002E31D0864EB54200D1A9E080244E4622041643B146382B00DD18E11F2B00DD73E12026F61A4A46B24090465246EA
:406800004446DA4022435446B440261C741EA6414C463243DC401218F6E0041C0F206A1C5B462E1C0F1C204004289AD180252D0401211D400F40201C9DE7144300D0DDE0B9
:406840006A1C5B46041C2E1C87E780215B46041C0A012E1C81E7761B664D2B40721C7CE7211C194300D167E2002E41D080200203134392E7002B00D088E0691C4E05740D38
:40688000012C00DC1AE15B46161C4C46821A191B90429B415B42C91A88460B0200D49EE0371ABA4592415E46A41B5342E11A88463C1C2E1C674625E7161C0023002470E735
:4068C000201CFDF7D5FC2030051C083D1F2D00DC24E7031C283B9C40231C002427E74A4653461A430026002A00D1FBE60122F9E61D032B0B55E7002B00D004E16E1C7405E0
:40690000630D012B00DCAAE039498E4200D130E11118814280414B4642425B449B18DC0749080C435B08AA1C17E7314FBD4200D0C2E6041C80205B460F1C02012E1C0CE7A0
:40694000301C1F381A1CC240151C202900D182E03F218E1BB3401C43631E9C412C43012200230026F9E61C1C203C4F46E7403E1C202B72D04022D41A4B46A3401A1C57464E
:406980003A43531E9A4132430026ABE65F42002D50D0174DAE4200D155E180245A4621040A439346382F00DDDAE01F2F00DD78E12021CC1B051C5A46A240FD40A040154348
:4069C0005B46421E90412843FB4057463C1AA24592414846C11A55424B1B67468CE6081C104330D100270122002304200026CCE6FF070000FFFF7FFFFFFF0F80013B002B96
:406A000024D153461A184C46824280415C444342E3182E1C141C18023ED4721C0F1C9CE64A4653461A430024002A00D1F3E601221218E9E75B46034300D083E0231C721CFC
:406A40005446674689E6141C2E1C5BE6CD4EB54200D0C9E66DE700237DE700228FE75E460643002D00D0F4E0002E00D14CE14B46134300D17EE115184E46854280415E44B5
:406A80004242B3181E0200D482E1BF4F2C1C3B4002220F1C012660E6BA4D701CA8424BD0B94F0125254062083B402C1CDF0714433C43B21C5B08061C0F1C4EE65E460643F0
:406AC000002D2CD1002E00D07DE04E46141C164388D04B466746012200263EE61E1C203E4C46F440261C202B00D1D8E04022D41A4B46A3401A1C54462243531E9A413243C3
:406B00000024121880E75B42002D37D15C46044300D0D7E0721C4B4654460F1C1DE6002E6ED14B46141C134300D1DCE080254B4667462A01934E10E68021061C0A01002390
:406B4000042022E6013F002F79D1171A5B46BA45AD414946CA1A68423C1C131A6746CBE55F46074300230020002F00D12DE701202BE780252A010023042006E6814DAE4238
:406B800000D1D3E080245D4622041543AB46382B00DDB0E01F2B00DDDBE02025ED1A021C5C46AC40DA40A840451EA841224302435846D840031C55465419544592414B4421
:406BC00050421B1827E74A465646324300D185E0851B5B464C46A8429241191B56428B1B1E0200D4ADE057463D1A5B46AA458941E41A4A42A31A67462C1C01220026ACE504
:406C00004D46161C154344D05C468021C0086207E3080D0310432B4200D181E04C46E10829427DD1F70866073E430B1C6746700FDB008022F40003431201524E8DE5514DD4
:406C4000AE4200D0AEE680204B4654466746020183E5002E5ED04C4614431AD0C7088025584643072C03C0081F43204208D04E46F308234204D15246D5087707181C2F435D
:406C8000C300FC00780F0F1C802103430A013D4E63E5802632015B46041C3A4E5DE5002229E7391C20395C46CC40221C202F67D04023DF1B5D46BD402843431E98411043F3
:406CC000002382E6013B002B2CD150445C469042AD414C446A42A318041C9CE65B46041C0122002639E58024042100272201274B4842244E49E55D46054300230022002DE2
:406D000000D158E7012256E7141C4B460F1C0122002622E5141C80224B461201194E1CE5061C84E7174A964200D030E70F1C80214B4654460A0110E57405660D00230024F2
:406D40002FE5181C284300D14CE62C1C0122002603E51C1C203C5D46E5402C1C202B1CD04022D31A5A469A400243501E82412243002320E75B46041C0F1C01220026ECE436
:406D8000002599E7FF070000FFFF7FFFFFFF7F002C1C0F1C01220026DFE40022E4E7C046134A0B0330B5051C48001C0BC90F430D0020934211DD0F4883420FDC80225003D6
:406DC0000D4A0443D01A1F280BDD0C4DEB1ADC40221C5042002900D1101C30BD084C0819FBE7C54007482A1C1D18AC402243F0E7FE0300001D0400003304000013040000C1
:406E0000FFFFFF7FEDFBFFFFF8B5041E2DD0C50F00D04442201CFDF72BFA16490A1A0A2816DD0B388440570526037A0D360B002700200021381C0F0D3B050F4C33431C4064
:406E40001605344361004A08ED07111C2943F8BD0B26011C301A1531231CC4408B40520521031F1C0E0B520DE2E70025002200260027DDE71E040000FFFF0F800A4A00B598
:406E80001368002B0CD018186946884202D81060181C00BD054B0C2201201A604342F7E7034B1360EFE7C0460C020020A8030020B003002000000000253033690000000096
:406EC000453032320000000045303233000000004530323300000000560D00004E0F0000440F00007A0D00004E0F00004E0F00004E0F00004E0F00004E0F00004E0F00003D
:406F00004E0F0000760E00004E0F00004E0F00004E0F00009E0D00004E0F0000200F00004E0F00004E0F00004E0F00004A0E000000300F40000400400F40000402000F404C
:406F400033300F4016310F4033320F4014330F4006400F4005410F4002600F40810D830D405149FF4AFF4BFF4F0150185A045D095F016040624064406540668068806A80FB
:406F80006C806E8082019E01B001B201BE01C041C5ECC602C807C9FFCAFFCBFFCD83CE03CF01D018D280D401D804DA04DB04DC09DD99DF01E040E240E440E540E680E880E1
:406FC000EA80EC80EE8006400D801E801F0841804580464048014D044F0155805D045E805F01740176408308C010C280D098D208D6D0404549FF4AFF4BFF4F0150185A0425
:407000005D095F016040624064406540668068806A806C806E808E019201B001B601BE40C054C5ECC720C823C9FFCAFFCBFFCD83CE03CF01D018D280D401D804DA04DB045A
:40704000DC09DD99DF01E040E240E440E540E680E880EA80EC80EE8002020B4019401A804101468049054B404E02510152025945728073408240C001C208D081D218D60B73
:407080006F5073028302DA80DC60E680071083409F50C020E6800201110100000400000000000000D02100007A22000022230000E222000022230000DA2200002223000097
:4070C000E22200007A2200007A220000DA220000E222000040230000402300004023000028230000AC250000EE260000EE260000E6260000D4260000D4260000CC260000F5
:40710000E6260000D4260000CC260000D4260000E6260000782600007826000078260000F2260000582D0000242F000018300000B42F0000183000008E2F0000183000000F
:40714000B42F0000242F0000242F00008E2F0000B42F00003A3000003A3000003A3000002030000068350000C4370000C4370000983700001037000010370000B837000079
:407180009837000010370000B83700001037000098370000B0370000B0370000B0370000C837000043006E6600696E69747900616E00000000000000BC89D897B2D29C3CDD
:4071C00033A7A8D523F649393DA7F444FD0FA5329D978CCF08BA5B25436FAC642806180E232D302B2000686C4C00656667454647003031323334353637383941424344456C
:40720000460030313233343536373839616263646566003031323334353637383900504F534958002E000000000000000000F03F00000000000024400000000000005940AC
