:400000000010002011000000010400000104000080B500AF00F0F8F980B584B000AF021CFB1D1A70224A3B1C0B3312781A70214A3B1C0A3312781A701F4B1B68013BFB602C
:400040001AE01E4B1868391C0B31FA68131C5B009B18C31801331B780B70184B1868391C0A31FA68131C5B009B18C31802331B780B70FB68013BFB60FB68002B0ADB0F4B59
:400080001968FA68131C5B009B185B5CFA1D12789A42D6D90A4B3A1C0B3212781A60094B3A1C0A3212781A60BD4604B080BDC046CCF1FF0FCDF1FF0FA0220000CC00002028
:4000C0001CFF0B4020FF0B4080B500AF1C4B1C4A12688021C9020A431A601820FFF79CFF184B19221A60052001F06AFD164B174A1278D2B21A60052001F022FE104B104A3F
:400100001168134A0A401A60124B20221A60124B10221A60114B30221A60114B802212061A60104B802212061A600F4B0F4A1A600F4B104A1A60104B104A1A60BD4680BDF2
:4001400000010B402CFF0B4028FF0B40E5F1FF0FFFFFFBFF14020240180202402002024008010B4004010B4000000240FE00008040000240FE0000C0800002400100008070
:4001800080B582B000AF72B6FB1D00221A7023E0FB1D1A78131C5B009B185B00414A9B183B603B681A78597809020A43997809040A43DB781B0613431A1C3B6819795B794D
:4001C0001B020B439BB2101C191C00F0A1F9FB1DFA1D127801321A70FB1D1B78012BD7D9314A324B101C191C00F0A2F9304BC02292001A602F4BC02292041A602E4BEE221D
:4002000012021A602D4B04221A602D4BC02252001A602C4B7E221A602B4BC02252031A602A4B3E221A602A4B20221A60294B20221A60294BD82212011A60284B04221A607C
:40024000274B04221A60274B992212041A60264B992212041A60254B802292051A60244B992212041A60234B992212041A60224B802292051A60214B204A1278D2B2022136
:400280000A43D2B21A701D4B1C4A1278D2B206210A43D2B21A70FFF717FF00F089F9BD4602B080BD38220000442200006022000000000140040001400C00014000000440BC
:4002C00008000440000104400801044018010440000204401802044008030440000404401804044000500F4010500F4018500F4020500F4030500F4038500F4000700F40FF
:4003000010B5064C2378002B07D10548002802D0044800E000BF0121217010BD18010020000000003422000008B5084B002B03D00748084900E000BF07480168002903D0C6
:40034000064A002A00D0904708BDC04600000000342200001C010020C80000200000000080B500AF62B601F03FFB00F007FA00F067FD00F091FE00F063FAC04600F08CFA62
:40038000031C002BFAD100F001F8F2E780B500AF002000F0C5FF031C1A1C164B1A80154B1A88154B9A4202D1124B00221A80114B1A88124B1B889A4219D00E4B1A880F4B1C
:4003C0001A800C4B1B88002B11D00A4B1B885B02181C01F029FB074B1B88DBB2181CFF2101F08CFE0B1CDBB2181C01F055FBBD4680BDC04672010020FFFF000074010020D9
:4004000080B500AFFEE7C04680B586B000AF254B7B61254B3B61234B7B61234B3B6132E03B691B68FB603B695B68BB603B699B683B6000237B600CE0FB681A68BB681A6063
:40044000BB680433BB60FB680433FB607B6804337B607A683B689A42EED13B69DB683B6000237B6008E0BB6800221A60BB680433BB607B6804337B607A683B689A42F2D148
:400480003B6910333B617B695A1E9341DBB27A69013A7A61002BC3D101F09CFEFFF760FFFEE7C046010000008823000080B582B000AF00237B600FE07B68032B04D8104B82
:4004C0007A689200D35800E00E4B0F4A796889008B507B6801337B607B682F2BECD9FFF74FFE0A4B00221A608023DB058022D205126801210A431A60BD4602B080BDC04607
:40050000000000000104000000000020C000002080B582B000AF786039607A683B68101C00211A1C01F07CFEBD4602B080BDC04680B586B000AF7860396000233B61002357
:400540007B612EE07B699B007A68D3181B68BB603B1C0F33BA681A70BB68FF229343BB6017E03B695B003A68D3181B781A1CBB68D3183A69520039688A1852781A703B69A3
:4005800001333B613B1C0F333A1C0F321278013A1A703B1C0F331B78002BE2D17B6901337B617B69062BCDD9BD4606B080BDC04680B500AF012000F003F8BD4680BDC04601
:4005C00080B584B000AF021CFB1D1A70154B1B68FB60FB1D1B78002B05D0FB68802212061343FB6003E0FB685B005B08FB600D4BFA681A600C4B1B68FB60FB1D1B78002BCE
:4006000005D0FB68802292041343FB6003E0FA68064B1340FB60044BFA681A60BD4604B080BDC04680031A4008010B40FFFFFFFD80B582B000AF00237B6007E00A4A7B68D3
:40064000D31800221A707B6801337B607B68042BF4D900F00BF8002000F01AFB00F038F9BD4602B080BDC0469001002080B582B000AF244B1B68DAB2234B1A70224B1B78A4
:400680007B607B680F2293437B60204B1B78DBB21A1C0F2313407A6813437B607B68F02293437B60194B1B78DBB21A1CF02313407A6813437B60134B7A681A60144B154AF0
:4006C0001A60154B154A1A60154B1B687B607A68144B13407B607B68C022D20013437B600F4B7A681A600F2001F00AFB0E4B0F20191C01F075FA0F20032101F097FABD4682
:4007000002B080BD00FF08407801002062F1FF0F080008400002000104000840C008A00110000140FFF0FFFF2115000080B582B000AF01F01BFA01F0E3F90020002101F0F2
:40074000EBF90020002101F01DFA01F001FA01F0C9F9084B1B687B607B68074A13437B60044B7A681A600F2001F0B4FABD4602B080BDC046040008400010088080B500AF5E
:400780000C4B1B78002B04D1FFF752FF094B01221A70FFF7CBFF00F02DFF074B01221A70064B064A12688021C9030A431A60BD4680BDC0463601002034010020040008409F
:4007C00080B584B000AF021CFB1D1A70FB1DFA1D127801321A70FB1D1B78052B0CD0FB1D1B78094A101C191C00F06AFA031CFB60FB68002BEAD000E0C046FB1D1B78181CBA
:40080000BD4604B080BDC046D000002080B582B000AF7860084B00221A707B68DAB2074B1A70054B81221A707B68181C00F05CF9BD4602B080BDC046370100203801002014
:4008400080B500AF124B00221A70124BFF221A70104B1B78DBB2181CFFF7B2FF031C1A1C0C4B1A700B4B1B78DBB2042B0DD8084B1B78DBB201221343DAB2054B1A70054BCB
:400880001B78DBB2181C00F02FF9BD4680BDC046370100203801002080B500AF044B1B78DBB21A1C01231340181CBD4680BDC0463701002080B582B000AF7860034B7A68E5
:4008C0005200D35A181CBD4602B080BD3C01002080B582B000AF00237B6006E07B68181C00F070F87B6801337B607B68042BF5D9BD4602B080BDC04690B587B000AF7860C0
:400900002C4A7B68D3181B787B612B4A7B68D3181B783A1C1332191C4900CB181370264A7B68D3181A783B1C123392001A703C1C113401F04EF9031C2370204B7A699200C0
:40094000D3581B68FB603B1C12331B780F22111C99400B1CDA43FB681340FB603B1C12331B780422141C9C40231CFA681343FB60134B7A699200D358114A796989008A585A
:400980001268391C133109780720041C8C40211CC9430A401A60094B7A699200D358FA681A603B1C11331B78181C01F016F9BD4607B090BDA4220000C0220000D0220000B0
:4009C000E422000090B589B000AF7860404A7B68D3181B787B613F4A7B68D3181A783B1C133392001A703B4A7B68D3181B783A1C1232191C4900CB1813700023FB61364A20
:400A00007B68D3181B78BB61344B7A699200D358324A796989008A581268391C133109780F20041C8C40211CC9430A401A60BB69022B01D10023BB61BB69022B45D0BB69A9
:400A4000012B01D00623FB613C1C113401F0C1F8031C2370224B7A699200D3581B68FB603B1C12331B780722111C99400B1CDA43FB681340FB603B1C12331B78FA69141C9B
:400A80009C40231CFA681343FB60154B7A699200D358FA681A603B1C11331B78181C01F09CF8104B7A699200D3580E4A796989008A58126807487968411809780120041CE0
:400AC0008C40211CC9430A401A60BD4609B090BDA4220000C022000090010020D0220000E4220000F822000090B587B000AF78603B1C17333C497A688A1812781A703B1C91
:400B000017331A78394B9200D3583B61384A7B68D3181B78013B9BB2181C002100F0FCFF344A7B68D3181B78013B9BB2181C002101F028F8304B1B78002B0FD00F2001F04A
:400B4000DFF82E4B1B68FB60FB6840221343FB602A4BFA681A600F2001F0BCF80F2001F0CFF8274B1B68FB60FA68264B1340FB60254A7B68D3181B781A1C24497B68CB18BB
:400B80001B781B041343FA681343FB601C4BFA681A601A4B1B68FB60FA681D4B1340FB60FB681C4A1343FB600F2001F093F87B68181CFFF7A1FE3C1C0B3401F00AF8031CA2
:400BC00023700E4BFA681A606F2000F0F9FF124B3A691A603B1C0B331B78181C00F0FDFFBD4607B090BDC046C8220000E8000020A0010020840100203501002004000840ED
:400C00000800084000FF80FF980100207C010020FF1FDFFF200020000C00084080B584B000AF7860144B1B6899B2144B7A685200D1527B68181CFFF7C5FE0F2001F060F8E5
:400C40000F4B1B68FB60FA680E4B1340FB60FB68A02212021343FB60094BFA681A600A4B094A1168094A0A401A600F2001F032F8BD4604B080BDC0460C0008403C0100208C
:400C800004000840FF1FDFFF0800084000FF80FF80B584B000AF78607A68032313407B60064B1B68FB607B685B02FA681343FB60024BFA681A60BD4604B080BD040008400D
:400CC00080B584B000AF786039603B68DB08FB603A680723134001229A403B1C0B331A707A68FB68D3181B783A1C0B3212781340DBB2002B01D0012300E00023181CBD4635
:400D000004B080BD80B586B000AFF860B9607A60BB68DB087B61BA680723134001229A403B1C13331A707B68002B0DD0FA687B69D318F9687A698A1811783A1C1332127808
:400D40000A43D2B21A700EE0FA687B69D318F9687A698A181278391C13310978C943C9B20A40D2B21A70BD4606B080BD80B584B000AF78600023BB600023FB6014E07B6817
:400D8000181CFFF743FDC046FFF786FD031C012BFAD07B68181CFFF78DFD031CBA68D318BB60FB680133FB60FB68002BE7D0BB689BB2181CBD4604B080BDC04680B582B01B
:400DC00000AF78600E4B7A685200D15A0D4B7A685200D1520C4A7B68D31800221A700B4A7B68D31800221A70054B7A685200D15A074B7A685200D152BD4602B080BDC04616
:400E00003C01002048010020540100205C010020B401002080B582B000AF78607B68181CFFF7F4FCC046FFF737FD031C002BFAD17B68181CFFF7C2FFBD4602B080BDC0462F
:400E400080B582B000AF00237B6006E07B68181CFFF7E0FF7B6801337B607B68042BF5D9BD4602B080BDC04690B587B000AF78603B1C113376497A688A1812781A703B1C76
:400E800011331A783B1C103372498A5C1A703B1C0E33714A796849008A5A1A806F4B7A685200D35A3C1C0E343A1C0E321288101C191C00F0F1FA031C2380684B7A685200D2
:400EC000391C0E310988D1527B68DAB26449624B081C111C1A1C01F01FF8624B7A685200D35A3A1C0E3212889A4212D35E4A7B68D31800221A705B4B7A685200D25A3B1CD4
:400F00001233391C0E3109888A1A1A8001237B610CE0544B7A685200D15A3B1C12333A1C0E3212888A1A1A8000237B617B69002B24D13B1C11331B784C4AD35C3A1C123285
:400F400012889A421AD9484A7B68D3181B78042B09D97B68181CFFF731FF434A7B68D31800221A704CE0404A7B68D3181B780133DAB23D497B68CB181A7041E03B1C103358
:400F80001B789BB23A1C123212889A420CD93B1C11331B78354AD35C3A1C123212889A422ED27B69002B2BD12E4B7A685200D35A1B02BB602E4A7B68D3181B78BA68134302
:400FC000BB603B1C0E331B88BA68D318BB60254B7A685200D35ABA68D31ABB60BB681B0A99B2204B7A685200D152BB68DAB220497B68CB181A701C4A7B68D31800221A70DB
:401000003B1C10331B789BB23A1C123212889A4216D97B69002B13D03B1C12331B88FF2B05D9144A7B68D318FF221A700DE03B1C12331B88DAB20F497B68CB181A7004E0E3
:401040000C4A7B68D31800221A70BD4607B090BDC8220000C00100203C010020B4010020DC01002048010020C4010020AC010020540100205C01002080B582B000AF7860A4
:401080007B68181C00F03CFB7B68181CFFF7ECFEBD4602B080BDC04680B582B000AF00237B6011E00B4A7B68101C191CFFF708FE031C3B603B68002B03D07B68181CFFF701
:4010C000DBFF7B6801337B607B68042BEAD9BD4602B080BDD000002080B584B000AFFB1D1870BB1D19707B1D1A703B1C0E33FF221A703B1C0D3300221A70FB1D1A78204B97
:40110000D318BB603B1C0F3300221A702AE03B1C0F331B78BA68D3181B787A1D12789A4219D23B1C0F331B78BA68D3181B783A1C0D3212789A420ED23B1C0E333A1C0F32D0
:4011400012781A703B1C0F331B78BA68D2183B1C0D3312781A703B1C0F333A1C0F32127801321A703A1C0F32BB1D12781B789A42CDD33B1C0E331B78181CBD4604B080BDA6
:401180005C01002090B589B000AF041C081C111C1A1CFB1D1C70BB1D18707B1D1970BB1C1A80BB1D1A785C4BD318BB613B1C1F3300221A703B1C173300221A70FB1D1B78E3
:4011C000002B05D03B1C1F33FA1D1278013A1A703B1C1733FA1D127801321A70FB1D1B78BA69D3181A784D4B5A70FB1D1B78002B0BD14A4B00221A703B1C17331B78BA69EA
:40120000D3181A78454B9A7022E0FB1D1A787B1D1B78013B9A420BD13B1C1F331B78BA69D3181A783D4B1A703C4B00229A700FE03B1C1F331B78BA69D3181A78374B1A7054
:401240003B1C17331B78BA69D3181A78334B9A70324B1B783A1C303212789A4209D22F4B1A783B1C30331B78D31ADAB22B4B1A7002E02A4B00221A70284B5A783B1C303335
:401280001B78D31ADAB2254B5A70244B9B783A1C303212789A4209D2204B9A783B1C30331B78D31ADAB21D4B9A7002E01B4B00229A701A4B9B781A1C184B1B78D31A3B6117
:4012C000164B1B781A1C154B5B78D218134B9B78D318FB603B691B02181CF96800F018FF031C1A1CFB1D1B781B02D318FB60BB1C1B881AB2FB685343FB60FB68FE22D20140
:401300009B181A0C3B1C0B331A703B1C0B331B78181CBD4609B090BD5C0100206C01002090B587B002AF78603B1C0D3353497A688A1812781A703B1C0C3351497A688A18C2
:4013400012781A703B1C0B334E497A688A1812781A703B1C0A334C497A688A1812781A704A4A7B68D3181B783C1C09343A1C0B3211783A1C0A321278081C111C1A1CFFF795
:40138000ABFE031C23703B1C09331B78FF2B5CD03F4B7A685200D35A3E497A688A1814783A1C093210783A1C0B3211783A1C0A3212780094FFF7E6FE031C1A1C3B1C0E3328
:4013C0001A803B1C0C331A781F2313404ED03B1C08333A1C0D32127801321A703B1C0D331B78264AD35C002B0FD13B1C08331B783A1C0E321288D1B2204AD1543B1C0D3338
:401400001B781E4A0121D15430E03B1C0C331A78102313402AD03B1C08331B78174AD35C3C1C0E343A1C0E321288101C191C00F051F8031C23803B1C08331B783A1C0E321C
:401440001288D1B20D4AD15410E03B1C0E33012252421A803B1C0C331A781F23134005D03B1C0D331B78054A0021D1543B1C0E331B88181CBD4605B090BDC046F800002017
:40148000182300000C23000010230000A801002014230000C001002080B584B000AF0A1CBB1D011C19803B1D1A80BB1D1A883B1D1B88D318FB603B1D1B885B00FA68D31892
:4014C000FB60FB689B08FB60FB689BB2181CBD4604B080BD80B582B000AF0A1CBB1D011C19803B1D1A80BA1D3B1D12881B889A4205D9BB1DBA1D1288013A1A800AE0BA1D97
:401500003B1D12881B889A4204D2BB1DBA1D128801321A80BB1D1B88181CBD4602B080BD80B500AF0F2000F0EBFB2C4B01221A602B4B1B78DBB2181CFFF770FB294B1B787E
:40154000DBB2DBB25BB2002B08DA264B1B78DBB201229343DAB2234B1A703AE0204B1B78DBB2181CFFF72CF9031C1A1C1C4B1A701B4B1B78DBB2042B06D8194B1B78DBB2D8
:40158000181CFFF7B1FA24E0164B1B78DBB201229343DAB2134B1A70124B1B78DBB21A1C4023134015D0104B00221A700DE00E4B1B780D4A12780D49895C0D4AD1540A4B49
:4015C0001B780133DAB2084B1A70074B1B78002BEDD00F2000F07EFBBD4680BD140008403801002037010020700100208C010020D000002080B582B000AF374B05221A7092
:40160000354B01225A70344B05229A70324B1822DA80314B314A9A802F4B314A9A6000F033F900233B6007E02E4B3A6892002E49D1503B6801333B60274B5B781A1C3B68E6
:401640009A42F1D800237B600CE0284A7B68D31804221A70264A7B68D31802221A707B6801337B607B68042BEFD900F019F91A4A204B101C191C00F099FB1F4B0120191CBD
:4016800000F0B4F8144B181C00F0A2FB1B4B01221A70114A174B101C191C00F087FB164B0120191C00F0A2F80B4B181C00F0B4FB094B181C00F00EF900237B6006E07B681B
:4016C000181C00F01DF87B6801337B607B68042BF5D9BD4602B080BDDC010020660200002C230000E80000200000FF0F84010020A00100209A0D0000980100203501002007
:4017000090B587B002AF7860314A7B68D3181B78FB607B68D9B2FB68DBB22E482E4A2F4C00942F4C019400F083FC3B1C0B332B49FA688A1812781A70294AFB68D3181A781F
:401740002849FB68CB181A703B1C0B331B78DB2B09D83B1C0B331B78DB08DAB22249FB68CB181A7031E03B1C0B331B78EC2B09D83B1C0B331B781B09DAB21B49FB68CB1894
:401780001A7022E03B1C0B331B78F42B09D83B1C0B331B785B09DAB21349FB68CB181A7013E03B1C0B331B78F92B09D83B1C0B331B789B09DAB20C49FB68CB181A7004E0B0
:4017C000094AFB68D31800221A70BD4605B090BDC8220000DC0100203C010020A8010020C0010020AC010020B001002080B588B000AF786039600023FB613AE000237B61E6
:401800001F4AFB69D3181B783B611E4AFB69D3181B78BB61BA693B69D318FB600FE03A68BB69D3181B781A1C7B699A4204D93A68BB69D3181B787B61BB690133BB61BA6991
:40184000FB689A42EBD30F4AFB69D3181B78BB6108E03A68BB69D3187A69D2B21A70BB690133BB61BA69FB689A42F2D3FB690133FB61FA697B689A42C0D3BD4608B080BD4E
:40188000102300000C23000080B500AF034B034A126840218A431A60BD4680BD0400084080B582B000AF094B1B687B607A68084B13407B607B688022920013437B60034BD8
:4018C0007A681A60BD4602B080BDC04608000840FFFCFFFC80B584B000AF78600023FB6017E01A4AFB68D3181B785B08DAB21849FB68CB181A70154AFB68D3181B78013310
:401900005B08DAB21149FB68CB181A70FB680133FB607B681B781A1CFB689A42E1D80F2000F0EEF90B4B1B68BB60BA680A4B1340BB60BB68094A1343BB60064BBA681A6045
:401940000F2000F0C7F9BD4604B080BD980100207C01002008000840FFFCFFFC0002000180B500AF0E4B8022D2041A600C4B0C4A12681A600A4B0A4A12681A60094B0C2206
:401980001A60002000F07CF8074B181C00F03EF8012000F049F8054B31221A60BD4680BD0001054024010540FFFF00002801054090B583B000AFFC1D00F00BF9031C2370CC
:4019C000084B084A126801210A431A60FB1D1B78181C00F002F90120182100F033F8BD4603B090BD0000054080B500AF064B1B78002B04D1FFF7B4FF034B01221A70FFF7F6
:401A0000D7FFBD4680BDC0467101002080B582B000AF7860034B7A681204120C1A60BD4602B080BD1401054080B582B000AF7860034B7A681204120C1A60BD4602B080BD22
:401A40000C01054090B585B000AF786039603C1C0F3400F0BEF8031C2370084B3A687968081C9040021C1A603B1C0F331B78181C00F0B3F8BD4605B090BDC04608000540D2
:401A800080B582B000AF7860024B7A681A60BD4602B080BD3801054080B584B000AF021CFB1D1A700E4B1B68DAB23B1C0F3320218A431A70FB1D1B785B01DAB22023134085
:401AC000D9B23B1C0F333A1C0F3212780A431A70034B3A1C0F3212781A60BD4604B080BD0002044080B500AF044B044A1268802109060A431A60BD4680BDC04600000240AD
:401B000080B500AF034B034A1268520052081A60BD4680BD0000024080B584B000AF0A1CBB1D011C19807B1D1A70084B1B681B0C1B04FB60BB1D1A88FB681343BB60034B03
:401B4000BA681A60BD4604B080BDC0460000024080B500AF044B044A1268802109060A431A60BD4680BDC0464000024080B500AF034B034A1268520052081A60BD4680BDF4
:401B80004000024080B584B000AF0A1CBB1D011C19807B1D1A70084B1B681B0C1B04FB60BB1D1A88FB681343BB60034BBA681A60BD4604B080BDC04640000240000000008A
:401BC0000230800804D0C0460138FDD1C046C0467047EFF3108072B6704780F31088704780B584B000AF021C3960FB1D1A7080239B05FB60FB1D1B781F2B02D9002000F085
:401C000095F8FB1D1B7810339B00FA68D3181B68BB60FB1D1B7810339B00FA68D3183A681A60BB68181CBD4604B080BD90B587B000AF0A1CFB1D011C1970BB1D1A70BB1D1D
:401C40001B78032B02D9002000F070F8FB1D1B781F2B02D9002000F069F8FB1D1A7803231340DB0006337B613C1C1334FFF7B1FF031C2370FB1D1B789B08DBB29B00144932
:401C80005B181B68FB607B690322111C99400B1CDA43FB681340FB60BB1D1A787B69111C99400B1CFA681343FB60FB1D1B789B08DBB29B00064A9B18FA681A603B1C1333EF
:401CC0001B78181CFFF789FFBD4607B090BDC04600E400E080B582B000AF021CFB1D1A70064BFA1D11781F220A400121081C9040021C1A60BD4602B080BDC04600E100E015
:401D000080B582B000AF021CFB1D1A70064BFA1D11781F220A400121081C9040021C1A60BD4602B080BDC04680E100E080B582B000AF021CFB1D1A7001BEBD4602B080BDE3
:401D400080B582B000AF021CBB1D1A80BB1D1B88044A12785343181CFFF732FFBD4602B080BDC0460C010020F7B59C180023071C0191009223700826802520782843207091
:401D8000B96800984A6A9047019B984202D22078A8432070013E6D08002EEED12178CFB2F82F01D9082671422170F7BD70B5051C0E1C00242B789C4208D2A868221C0368F8
:401DC000311C281CFFF7D0FF0134F3E770BD000038B5051C00242B789C4218D2AA681168085DC3080F2B00D90F230949D268C85C1055AA680748042B03D9536B211C012215
:401E000002E0536B211C002298470134E3E738BD1C230000F4010020F0B5051C89B000266B789E4265D2AC68206A815D0291002901D101220292E7692978BB5D0093009868
:401E4000884201D30136EBE7A268009F0F21D35DA4690B402849B000049300227B00225003905818254C0590254819191B18069107933C1C0192009F029AD1198C42E1D2F6
:401E8000AF68AB88FA68E888115D584300F040F93968095D00F0EEF8049B1A49584340005A2802D949084008FAE7BF690A0C039913047B50144F154B8208385514491A55E1
:401EC000144AC0080F27085517550199012305985A424252069A0798002353524352A9688B681A191078013407401770019A0232C0E709B0F0BDC046E80100200C020020BB
:401F0000F80100200000FFFF0402002018020020D4010020CC010020F0B53E4F4B00DC5B9A5A89B0DA53161B3B4F02967D5C9C466C003A4D059467467C5B394E394F735C3E
:401F400003946646F55B8768374C0495BD68665C6C5C029D0696059EEF0F0794F4190F273C40EE170194AC1974409C4203D2012B05D0013B00E00133FF263F2B00D89E00C2
:401F8000274D019F6B540F2F29D0002F24D0B44225D8079C039D26090596141EAC4200D92C1C049FBA4200D23A1C059E09250027B5427F41F5190A2D13D1171B0397039EA7
:401FC0005F1CB34205D9069FBE089E42BF417E429F1B164B5F5404E0141C019D01E0141C00256E4637790C4B66465F540B4F0F23BC530C4C2D01A253826897687E18347877
:40200000234033708068826851180F783D430D7009B0F0BDF8010020CC010020E8010020D40100200C020020040200201802002010B50E480E4A525C415CFF203F2901D8C5
:402040008C00E0B24CB2002C02DB4C00E1B200E0FF21824202D95008C1B200E0021C01240298A243C254039AD15410BD1802002004020020002934D00123002210B488424A
:402080002CD301242407A14204D2814202D209011B01F8E7E400A14204D2814202D249005B00F8E7884201D3401A1A434C08A04202D3001B5C0822438C08A04202D3001B1B
:4020C0009C082243CC08A04202D3001BDC082243002803D01B0901D00909E3E7101C10BC7047002801D00020C04307B4024802A14018029003BDC046D90000000029F0D037
:4021000003B5FFF7B9FF0EBC4243891A1847C046002941D010B4041C4C40A44601230022002900D54942002800D5404288422CD301242407A14204D2814202D209011B0171
:40214000F8E7E400A14204D2814202D249005B00F8E7884201D3401A1A434C08A04202D3001B5C0822438C08A04202D3001B9C082243CC08A04202D3001BDC0822430028FF
:4021800003D01B0901D00909E3E7101C6446002C00D5404210BC7047002806D003DB0020C043400801E08020000607B4024802A14018029003BDC046190000000029EBD07C
:4021C00003B5FFF7A7FF0EBC4243891A1847C0467047C04670B50E4B0E4D0024E81A85101E1CAC4204D0A100725890470134F8E700F0B8F80849094A0E1C541AA5100024DC
:40220000AC4204D0A300F05880470134F8E770BD7023000070230000702300007823000000B58218031C934202D019700133FAE700BD00000000000000300F400004004062
:402240000F40000404300F4001310F4003330F4002400F4005410F4003420F400E430F4038803E4058045F011801B401E280E6105304D42062048B048E049708D8406C40DB
:402280007008DC0319082301610289088F01A102B448B502C608C808D802E201E608EC08040000000101010101000000020000000400000008000000100000002000000024
:4022C000010203040500000000000000000000000000014004000140080001400C000140100001400800044008010440080204400803044008040440000004400001044053
:402300000002044000030440000404400000000005000000C01F00001600000001010102020202040404040404040404980100207C010020FC00002084010020A0010020C7
:40234000C8220000E80000200C230000102300006D0D0000E90A0000B5080000C10C0000050D0000F8B5C046F8BC08BC9E46704729030000AD040000F8B5C046F8BC08BC32
:402380009E4670470103000098230000C8000020500000000801000000000000C0F1FF0F1F00000008010440080104400801044008010440080104400000FF0F1E1E1E1E9D
:4023C0001E0000000100000001000000040404040400000000366E01C05D0000180000000000E02E00000000000000000000000000000000000000000000000000000000C1
:40240000000000000000000000000000000000000000000000000000000000000000000000000000000000000000000000000000000000000000000000000000000000009C
:40244000000000000000000000000000000000000000000000000000000000000000000000000000000000000000000000000000000000000000000000000000000000005C
:40248000000000000000000000000000000000000000000000000000000000000000000000000000000000000000000000000000000000000000000000000000000000001C
:4024C00000000000000000000000000000000000000000000000000000000000000000000000000000000000000000000000000000000000000000000000000000000000DC
:0200000490303A
:02000000C8E452
:0200000490402A
:200000000000000000000000000000000000000000000000000000000000000000000000E0
:0200000490501A
:0C000000000204C81193110104D3DA7748
:0200000490600A
:0100000001FE
:00000001FF