:400000000010002011000000D9070000D907000080B500AF00F0E4FB80B584B000AF021CFB1D1A70224A3B1C0B3312781A70214A3B1C0A3312781A701F4B1B68013BFB6088
:400040001AE01E4B1868391C0B31FA68131C5B009B18C31801331B780B70184B1868391C0A31FA68131C5B009B18C31802331B780B70FB68013BFB60FB68002B0ADB0F4B59
:400080001968FA68131C5B009B185B5CFA1D12789A42D6D90A4B3A1C0B3212781A60094B3A1C0A3212781A60BD4604B080BDC046CCF1FF0FCDF1FF0F18570000CC0000207B
:4000C0001CFF0B4020FF0B4080B500AF164B164A12688021C9020A431A600620FFF79CFF124B06221A60052000F07AFC104B114A1278D2B21A60052000F02AFD0A4B0A4A7A
:4001000011680D4A0A401A600C4B10221A600C4BA62212061A600B4B802212061A600A4B0A4A1A60BD4680BD00010B402CFF0B4028FF0B40D3F1FF0FFFFFFBFF1C0202402C
:4001400008010B4004010B40000002400100008080B582B000AF72B6384B01221A70FB1D00221A7023E0FB1D1A78131C5B009B185B00334A9B183B603B681A7859780902C5
:400180000A43997809040A43DB781B0613431A1C3B6819795B791B020B439BB2101C191C00F0A2FBFB1DFA1D127801321A70FB1D1B78012BD7D9234A234B101C191C00F0AF
:4001C000A3FB224BEE2212021A60214B06221A60204B20221A60204B06221A601F4B20221A601F4BD82212011A601E4B992212041A601D4B992212041A601C4B992212045E
:400200001A601B4B05221A601A4B06221A601A4B194A1278D2B202210A43D2B21A70164B154A1278D2B206210A43D2B21A70FFF74BFF00F0A9FBBD4602B080BD1C700F40F1
:40024000B0550000BC550000DC5500000C000140080004400002044008020440180204400803044000500F4020500F4030500F402000004000800F4000700F4010B5064C2B
:400280002378002B07D10548002802D0044800E000BF0121217010BD80010020000000008855000008B5084B002B03D00748084900E000BF07480168002903D0064A002AF5
:4002C00000D0904708BDC046000000008855000084010020C80000200000000080B596B000AF62B63B1C1833181C00F089F93B1C0C33181C00F0EEF900F03EFA3B1C0C3339
:40030000181C012100F016FA3A1C0C323B1C1833101C191C00F068F800F092F8084B181C00F0F2FB391C18313A1C08323B1D081C111C1A1C00F0B8F9031C7B65ECE7C0461C
:40034000204E00000000000098B500AF104B1B68181C02F065FB031C0C1C181C211C0B4B094A01F01FF8031C002B05D000F07EF8074B00221A6004E0054B1B685A1C044B57
:400380001A60BD4698BDC046C98C9B3932E38640A8010020C046C04698B500AF104B1B68181C02F03DFB031C0C1C181C211C0B4B094A00F0F7FF031C002B05D000F010F9F5
:4003C000074B00221A6004E0054B1B685A1C044B1A60BD4698BDC046FB6F02C8FE9B8C40AC010020C046C04680B582B000AF786039600D4B7A681A600C4B3A681A600C4B44
:4004000000221A6000F0F2FB0A4B181C00F0FEFC094B00221A60094B181C00F051FD00F025F8BD4602B080BD9C010020A0010020A801002049030000AC010020990300001F
:4004400080B500AF074B1B68181C002100F072F900F06AFC044B01221A700023181CBD4680BDC0469C010020A401002090B58DB002AF524B1A683B1C1733101C191C00F05E
:4004800069F94E4B1A683B1C1033101C191C00F035F94A4B1A683B1C0C33101C191C00F03BF9474B1B68181C642100F0DBFE0B1C181C01F073F8031C3B62424BFB613B1C2A
:4004C000273330221A703B1C44221A70386A02F0D9FA031C0C1C3A1C511C3B4A00930194081C062102F078FB031CBB61BB69052B0AD0364B1A68364B101C191C042200F04D
:400500009BF816235B4255E0F86902F0BBFA031C0C1C3A1C911D2F4A00930194081C042102F05AFB031CBB61BB69032B0AD0274B1A68294B101C191C042200F07DF81723A4
:400540005B4237E03B1C17331B78012B16D13B69386A191C00F056FF031C002B07D1FB68F869191C00F03AFF031C002B06D0012000F00EF93B1C273331221A703B1C3A1C09
:40058000273212785A72154B1B78002B03D13B1C30229A7202E03B1C31229A720B4B1A683B1C101C191C0B2200F046F80B4B00221A700023181CBD460BB090BD9C01002041
:4005C000A80100200000204290550000A001002098550000A0550000A8550000A401002080B500AF054B1B68181C012100F0A2F800F0ACFB0023181CBD4680BD9C01002004
:4006000080B584B000AF78600023FB6007E07A68FB68D31800221A70FB680133FB60FB68322BF4D97B6800229A637B6833225A63BD4604B080BDC04680B586B000AFF860A7
:40064000B9607A607B68002B02D114235B4227E0FB685A6BFB689B6BD31A3B617A683B699A4202D915235B421AE000237B610CE0FB689A6B7B69D318B9687A698A18117854
:40068000FA68D1547B6901337B617A697B689A42EED3FB689A6B7B68D218FB689A630023181CBD4606B080BD80B584B000AFF860B9607A60FA68BB681A60FB689A6B7B68CD
:4006C0001A60FB6800229A630023181CBD4604B080BDC04680B582B000AF78607B6800221A727B68034A5A607B68034A1A60BD4602B080BD000020410000F04180B582B0AF
:4007000000AF786039607B681A683B681A600023181CBD4602B080BD80B582B000AF786039607B685A683B681A600023181CBD4602B080BD80B582B000AF78600A1CFB1C11
:400740001A707B68FA1C12781A720023181CBD4602B080BD80B582B000AF786039607B681A7A3B681A700023181CBD4602B080BD80B500AFBD4680BD80B500AF00F01EFC11
:4007800000F022F800F024F8FFF7F2FFBD4680BD80B582B000AF021CFB1D1A70FB1D1B78012B03D1FB1D1B78002B02D00F235B4205E0FB1D1B78181C00F0DCFB0023181C22
:4007C000BD4602B080BDC04680B500AFBD4680BD80B500AFBD4680BD80B500AFFEE7C04680B586B000AF254B7B61254B3B61234B7B61234B3B6132E03B691B68FB603B69EC
:400800005B68BB603B699B683B6000237B600CE0FB681A68BB681A60BB680433BB60FB680433FB607B6804337B607A683B689A42EED13B69DB683B6000237B6008E0BB6822
:4008400000221A60BB680433BB607B6804337B607A683B689A42F2D13B6910333B617B695A1E9341DBB27A69013A7A61002BC3D102F07AF9FFF732FDFEE7C04601000000E0
:400880002459000080B582B000AF00237B600FE07B68032B04D8104B7A689200D35800E00E4B0F4A796889008B507B6801337B607B682F2BECD9FFF74BFC0A4B00221A60D8
:4008C0008023DB058022D205126801210A431A60BD4602B080BDC04600000000D907000000000020C000002080B582B000AF786039607A683B68101C00211A1C02F063F9E4
:40090000BD4602B080BDC04680B586B000AF7860396000233B6100237B612EE07B699B007A68D3181B68BB603B1C0F33BA681A70BB68FF229343BB6017E03B695B003A686C
:40094000D3181B781A1CBB68D3183A69520039688A1852781A703B6901333B613B1C0F333A1C0F321278013A1A703B1C0F331B78002BE2D17B6901337B617B69072BCDD97C
:40098000BD4606B080BDC04680B500AF034B20221A60012000F004F8BD4680BD00031A4080B584B000AF021CFB1D1A700B4B1B68FB60FB1D1B78002B05D0FB6880221206CF
:4009C0001343FB6003E0FB685B005B08FB60034BFA681A60BD4604B080BDC04680031A400230800804D0C0460138FDD1C046C0467047EFF3108072B6704780F31088704775
:400A000080B584B000AF021C3960FB1D1A7080239B05FB60FB1D1B781F2B02D9002000F069F8FB1D1B7810339B00FA68D3181B68BB60FB1D1B7810339B00FA68D3183A687A
:400A40001A60BB68181CBD4604B080BD90B587B000AF0A1CFB1D011C1970BB1D1A70BB1D1B78032B02D9002000F044F8FB1D1B781F2B02D9002000F03DF8FB1D1A7803239B
:400A80001340DB0006337B613C1C1334FFF7B1FF031C2370FB1D1B789B08DBB29B0014495B181B68FB607B690322111C99400B1CDA43FB681340FB60BB1D1A787B69111CF9
:400AC00099400B1CFA681343FB60FB1D1B789B08DBB29B00064A9B18FA681A603B1C13331B78181CFFF789FFBD4607B090BDC04600E400E080B582B000AF021CFB1D1A7005
:400B000001BEBD4602B080BD80B582B000AF786008E00C4B1B68181CFFF762FF7B680A4A9B187B607A6880231B029A42F1D8074B1B687A685343181CFFF752FFBD4602B040
:400B400080BDC046DC0000200080FFFFD400002080B582B000AF021CBB1D1A80BB1D1B88044A12785343181CFFF73AFFBD4602B080BDC046D800002090B583B000AF114B5F
:400B8000181C00F05FF80F4B181C00F075F8FC1DFFF72FFF031C23700B4B0B4A1278D2B210210A43D2B21A70FB1D1B78181CFFF724FF00F071F8002000F02AF8BD4603B062
:400BC00090BDC046FFFF000091000F4080B500AF054B054A1278D2B2802149420A43D2B21A70BD4680BDC04671000F4080B500AF064B1B78002B04D1FFF7BEFF034B0122BA
:400C00001A70FFF7E3FFBD4680BDC046B001002080B582B000AF021CFB1D1A70034BFA1D12781A70BD4602B080BDC04681000F4080B500AF024B1B78DBB2181CBD4680BD5F
:400C400061000F4080B582B000AF021CBB1D1A80034BBA1D12881A80BD4602B080BDC04640100F4080B500AF024B1B889BB2181CBD4680BD80100F4080B582B000AF021C86
:400C8000BB1D1A80034BBA1D12881A80BD4602B080BDC04600100F4080B500AF01E0FFF7E1FFFFF7C5FF031C1A1C08231340F6D1BD4680BD90B583B000AF114B181C00F03C
:400CC0006DF80F4B181C00F083F8FC1DFFF791FE031C23700B4B0B4A1278D2B210210A43D2B21A70FB1D1B78181CFFF786FE00F07FF8002000F038F8BD4603B090BDC046F8
:400D0000FFFF000093000F4080B500AF054B054A1278D2B2802149420A43D2B21A70BD4680BDC04673000F4080B500AF064B1B78002B04D1FFF7BEFF034B01221A70FFF747
:400D4000E3FFBD4680BDC046B101002080B500AF044B044A1278D1B27F220A40D2B21A70BD4680BD73000F4080B582B000AF021CFB1D1A70034BFA1D12781A70BD4602B0EC
:400D800080BDC04683000F4080B500AF024B1B78DBB2181CBD4680BD63000F4080B582B000AF021CBB1D1A80034BBA1D12881A80BD4602B080BDC04644100F4080B500AF29
:400DC000024B1B889BB2181CBD4680BD84100F4080B582B000AF021CBB1D1A80034BBA1D12881A80BD4602B080BDC04604100F4080B500AF01E0FFF7E1FFFFF7C5FF031C91
:400E00001A1C08231340F6D1BD4680BD80B582B000AF786000F04AF87B68181C00F008F8032000F011F800F037F8BD4602B080BD80B582B000AF7860024B7A681A64BD4605
:400E400002B080BD0000002090B585B000AF021CFB1D1A700623FB603C1C0B34FFF7C9FD031C23700B4B0B4A1268C021101C8843011CFA1D1078FA68041C9440221C0A4357
:400E80001A603B1C0B331B78181CFFF7B6FDBD4605B090BD00E400E080B500AF024B01221A60BD4680BDC04600E100E080B500AF024B01221A60BD4680BDC04680E100E0C0
:400EC00080B582B000AF786000F04AF87B68181C00F008F8032000F011F800F037F8BD4602B080BD80B582B000AF7860024B7A689A64BD4602B080BD0000002090B585B0F7
:400F000000AF021CFB1D1A701623FB603C1C0B34FFF76FFD031C23700A4B0A4A11680A4A1140FA1D1078FA68041C9440221C0A431A603B1C0B331B78181CFFF75EFDBD4692
:400F400005B090BD00E400E0FFFF3FFF80B500AF024B04221A60BD4680BDC04600E100E080B500AF024B04221A60BD4680BDC04680E100E080B584B000AF021CFB1D1A7067
:400F80000D4B1B68DAB23B1C0F3301218A431A70FB1D1A7801231340D9B23B1C0F333A1C0F3212780A431A70034B3A1C0F3212781A60BD4604B080BD0002044080B500AF74
:400FC000064B1B78002B04D100F00AF8034B01221A7000F0E5F8BD4680BDC046B201002090B585B000AF0E200321FFF72FFD534B0E20191CFFF704FD514B01221A60514BD0
:40100000514A1A60514B524A1A60524B524A1A60524B00221A60524B524A1A60524B514A1A60524B514A1268802149020A431A604F4B00221A604F4B00221A604E4B01220B
:401040001A604E4B02221A604D4B1B687B607B68012213437B604A4B7A681A600023FB6066E0484BFA689200D258DC239B0113407B60FB689B00444A9B187A681A60414B3C
:40108000FA689200D258012313400AD0384B384A1168FA680120041C9440221C92B20A431A60384BFA689200D258022313400AD0304B304A1168FA680120041C9440221C6D
:4010C00092B20A431A602F4BFA689200D25880239B00134003D080235B00BB6002E080235B01BB60274BFA689200D25880235B00134005D1254BFA6852000021D15204E0D1
:40110000224BFA6852000021D152BB68204A5343204A9B18181C204900F0AEF8031C9BB219B21E4BFA689200D150FB680133FB60FB68002B95D0BD4605B090BDC111000066
:4011400020001A4000001A407002005104001A408C00008018001A400000FF071C001A4010001A400400040014001A4000031A4028021A4038021A4018021A40000F1A404E
:4011800030001A401C57000080001A40BC01002010270000E40C0000C8190000C001002080B500AF054B054A1268802109060A431A600A20FFF7CCFCBD4680BD00001A409C
:4011C00080B582B000AF044B1B687B60024B7A681A60BD4602B080BD10021A40002934D00123002210B488422CD301242407A14204D2814202D209011B01F8E7E400A142B9
:4012000004D2814202D249005B00F8E7884201D3401A1A434C08A04202D3001B5C0822438C08A04202D3001B9C082243CC08A04202D3001BDC082243002803D01B0901D02C
:401240000909E3E7101C10BC7047002801D00020C04307B4024802A14018029003BDC046D90000000029F0D003B5FFF7B9FF0EBC4243891A1847C046002941D010B4041CD2
:401280004C40A44601230022002900D54942002800D5404288422CD301242407A14204D2814202D209011B01F8E7E400A14204D2814202D249005B00F8E7884201D3401A4D
:4012C0001A434C08A04202D3001B5C0822438C08A04202D3001B9C082243CC08A04202D3001BDC082243002803D01B0901D00909E3E7101C6446002C00D5404210BC70479C
:40130000002806D003DB0020C043400801E08020000607B4024802A14018029003BDC046190000000029EBD003B5FFF7A7FF0EBC4243891A1847C0467047C0468446101C2C
:4013400062468C46191C634600E0C0461FB500F007FD002801D40021C8421FBD10B500F04DFC4042013010BD10B500F0F9FC002801DB002010BD012010BDC04610B500F0A1
:40138000EFFC002801DD002010BD012010BDC04610B500F071FC002801DC002010BD012010BDC04610B500F067FC002801DA002010BD012010BDC0468446081C6146FFE7DC
:4013C0001FB500F0A3F8002801D40021C8421FBD10B500F02BF84042013010BD10B500F095F8002801DB002010BD012010BDC04610B500F08BF8002801DD002010BD0120BF
:4014000010BDC04610B500F039F8002801DC002010BD012010BDC04610B500F02FF8002801DA002010BD012010BDC0464302420070B55C0AC60F130E48024A00450A120E42
:40144000C90FFF2B05D0FF2A08D0012093420BD070BD0120002CFBD1FF2AF6D10120002DF6D101209342F3D1AC42F1D18E4203D0002BEDD1002CEBD10020E9E7F0B54302C0
:4014800042004F00C60F48025C0A450A130EC90F3A0EFF2B26D0FF2A29D0002B0CD1604260418446002A0AD0002816D18E4221D0002E14D1012014E0002AF7D194466F42B6
:4014C0006F416046002805D1002FEFD00120002E07D004E00020002F03D10029EAD101214842F0BD002CD6D002225042F9E7002DD3D0F9E79342DBDC04DBAC42D8D80020FF
:40150000AC42EED2002EEAD00120EAE7F0B5430242004F00C60F48025C0A450A130EC90F3A0EFF2B26D0FF2A28D0002B0FD0002A14D194466F426F416046002814D000202C
:40154000002F03D100290DD101214842F0BD604260418446002AEDD00028F3D18E4211D0002EF1D10120F1E7002FF7D00120002EECD0E9E70220002CE8D1D4E70220002DAC
:40158000E4D1D2E79342EBDC04DBAC42E8D80020AC42DBD2002ED7D00120D7E710B5041E34D001F0C3FA9E231B1A962B07DC083884406402610ADBB2D805084310BD992BD7
:4015C0000ADD021C1B32211C91400A1C511E8A410521091ACC40144305281ADC184A0F2122400C40042C00D00432510105D59F24231AFF2B21D012480240591CCCB2D20836
:40160000012C09DD5002410ADBB2D5E700230021D2E7421F9440E1E7002A0BD0002B06D08021CC0322435202510ADBB2C4E75002410AC1E7DBB20021BEE7FF230021BBE778
:40164000FFFFFFFBF0B54D4644465F465646F0B41D1C4B00141C0E035B0DCA0F87B0071C360B98469146002B1DD1321C024300D181E1002E00D104E2301C01F057FA2728D4
:4016800000DDF8E12821031C083B0A1A391C9E40D1400E439F40C14B0021181A002280468A4600920FE0BE48834231D080214B031E43BC487A0FF600002100231643FF005E
:4016C00080448A460093291C201C251C4A000C03CB0F240B520D9B4625D1211C014300D150E1002C00D1C2E1201C01F01FFA272800DDB6E1031C2822083B291C121A9C4044
:40170000D1400C439D40A54B1A1A0020029019E0321C3A4300D029E108270223BA46002600270093CFE79E48824200D113E180214B031C439B49680FE40000230443ED00BB
:401740005218029348465B46434002985146019301430F2900D8DFE043469A1A0492A64200D86EE171087B08F6073343FA07894698460292280E240204432D022704390C0B
:40178000AB46250C00914846291CFFF727FD009F061C4743291C4846FFF764FD434608041A0C1043874207D90019013E844203D8874201D9013E0019C11B8A46081C291C54
:4017C000FFF70CFD009B071C4343291C50469946FFF748FD424610040B04010C0B43994504D91B19013F9C4200D864E136043E435F464A46390C89469B1A59463204170CD0
:401800000A0449467943120C03928C460399300C7A4341434F4678438C44170C6744B94202D9802149024018390C120440183F04110C7F18834200D227E100D141E10299D2
:401840001B1ACF1BB942804141425A1A9046A24200D15FE1101C291CFFF7C0FC009B02904343291C40469A46FFF7FCFC380C090401438A450AD9029A0919013A02928C42BA
:4018800004D88A4502D9013A029209195346C81A291C0590FFF7A2FC009A291C4243804605989246FFF7DEFC3F040D043A0C2A43924509D901214B4212199844944203D832
:4018C000924501D998441219029D43462F041F435046111A3804030C4D465D430398AC46039D3A0C584355434B465A43AC44030C63449D4202D980256D0252191D0C000454
:4019000052191B04050C5B19914200D2E6E000D13DE1012217435AE0890023488C46604401688F46019B1E4A0026002700200021381C0F0D3C051D4D3443120525401543E7
:401940006E00DB077108194307B03CBC90469946A246AB46F0BD211C03202943029000D0F0E60223002400250293EBE60C20032182460091A7E604270123BA4600260027AE
:401980000093A0E60121002400250291DAE601270023074E7F42024AC8E7C0460DFCFFFFFF07000001FCFFFF20570000FFFF0F80FFFF0F002F1C5A46029D261C0192022D47
:4019C000B0D0032D00D101E1012D00D19CE0049B82481A18002A00DC8CE00F243C40042C05D03B1DBB42BF417D4276191F1CF10105D57B4A04998020C40016400A19794B9B
:401A00009A4200DD8EE77507FF08760251052F43360B4A0D019B89E700220026002785E7802001030E4216D00C4214D10C432603360B5B462F1C6C4A78E74C460194009DAB
:401A4000BDE7A64243D00498B846013800270490B14602978EE60E4333031E0B624A4B4664E7041C283CA5402C1C00254BE601F05DF820303BE6061C283EB7403E1C00273F
:401A800009E601F053F82030F9E5029A013E111C59445945924152421219D3189C4204D298426BD816D01B1ACBE6A342FBD18B45F6D9231AC5E6994500D897E6013F1B1991
:401AC00094E6029ABA42E0D302990023B9E6AF42B9D947E68F4251D80023B2E60919013F58468C4219D9914200D012E7984200D00FE76CE73D4C049D631B382B1CDD019B70
:401B000000220026002711E7019B00222B40002600270BE701277F4259E78A4203D800D0F7E69842E2D25D4668005845AD416D422C19013F0919D6E71F2B34DC049C2C4AB2
:401B4000381CA518311CAF40D840A9403C1C0143671EBC410F1C2743DE400F233B40042B05D03A1DBA42BF417D427619171C320211D5019B012200260027D7E659445945A3
:401B8000924152421219D318013E1B1A59E6002BA4D10020AAE77007FF08710207430E0B019B0022C2E61349049C301C0A1BD040051C202B08D0104BE1188E4037437B1EF4
:401BC0009F412F430026C8E70026F7E780221003064331030E0B019B034AA7E6FF030000FFFFFFFEFE070000FF07000002FCFFFF1E040000E2FBFFFF3E040000F0B5944637
:401C000047461A03061C580080B4170B420D19480D034C00DB0F2D0B640DC90F9846844208D0144882420DD00120944212D004BC9046F0BD2B1C33430120002BF7D10D48F8
:401C40008242F1D163463B430120002BEFD101209442ECD1BD42EAD16645E8D1414506D0002CE4D1281C3043451EA841DFE70020DDE7C046FF070000F0B557464E46454682
:401C8000E0B4041C4E000803C90F8A46171C59001A03050B700D160B4A0D3049DB0F9C46884232D02D498A4235D000280FD1291C21434B424B419846002A0BD0002B1AD1A6
:401CC000E2452CD05546002D18D1012018E0002AF6D19046311C39434B424B414146002906D1002BECD056460120002E08D005E00020002B04D16746002FE6D101235842C7
:401D00001CBC90469946A246F0BD2B1C2343C9D002214842F4E7331C3B43C6D0F8E7904205DC09DA5246002AE8D00120E8E75446002CE3D10120E3E7B542C3D807D0002083
:401D4000B542DDD250460028D8D00120D8E7BC42B8D80020BC42F5D3D2E7C046FF070000F0B544465F4656464D46F0B49446061C1A035800170B420D2E480D034C00DB0FF9
:401D80002D0B640DC90F9846844233D02948824236D0002C19D0002A20D1934663463B43584258415B468246002B1DD051460020002904D14246002A14D1012460423CBCD1
:401DC00090469946A246AB46F0BD2B1C3343584243419B46002AE1D0002BEBD1414515D00029EAD10120EAE70028F7D001200029E5D0E2E72B1C33430220002BDFD1C5E7CC
:401E000063463B430220002BD9D1C2E79442E7DC05DBBD42E4D806D00020BD42CFD20029CBD00120CBE76645DAD800206645F6D3C5E7C046FF070000F0B5564644465F4661
:401E40004D46F0B44F001D1C0B03141C1A0B7B0D87B0061C92469846CF0F002B21D1024300D149E15346002B00D1E4E1504600F05DFE031E272B00DDD8E1083B5146994077
:401E800028228846111A321CCA4041460A4392469E40D84B0022181A002180469146039111E0D54883423ED0802153464A031A43D000710F0843D14A824600230020F600B8
:401EC000904499460390291C201C251C4A000C03CB0F240B520D9B4631D1211C014300D112E1002C00D19DE1201C00F01FFE272800DD91E1031C2822083B291C121A9C4096
:401F0000D1400C439D40BB4B59461A1A794000204B46019103430F2B26D89900B84B8C46634419688F46111C314300D0DFE0082600200221B146824600260391C3E7AE48EC
:401F4000824200D1C9E080214B031C43AB49680FE4000443ED0052180020594679404B46019103430F2BD8D942443304290404921A0C0F0C101C7843360C331C80462D0CE4
:401F80007B43301C6843111C69439C4643468346180C08186044844500D91FE1010C4346039119040B0C0004C0182104240C0590101C6243090C02924843321C66434A4328
:401FC000029BB146060C9046B4461A1C62444244904502D9802673029944160CB046C14400044B46060C12040293931956463204100C021C6A439C46031C7B439146320CB9
:40200000574398461B0C9A46D144B94455434F4502D980277E02AD194B461F0C4646ED191F0433041E0C031C4B436043514354431A0C8018B046401847449A46814202D9B9
:4020400080214E02A419039B1A1C62445A44624589414E425146B34603040E049C460299330C6344CE18B046C246DA44D219BA42BF4151467B426F18F9189946DA459B41DE
:402080005E42029BB3469845B64176425B461E43000C49459B41AF42AD4136186F425842384336180598341956020643CB0D6402701E8641D20D164349021C430E43E00173
:4020C0002FD50127049D374073083E1CE00701351E4304950643640823E0231C2B430320002B00D039E700240025022035E70C22032391460393E6E6042600230120B14694
:402100009A4600260390DEE600240025012024E703985446022844D0032800D1EAE0012860D0049A37495018002800DC95E00F273740042F05D0311DB142B641754264191B
:402140000E1CE10105D53048049A8023DF000440D0192E49884224DC019B6507F6086402420501272E43240B520D1F4000200021090D0D052543264C12052C4014436300BA
:40218000301C5E08FF07311C394307B03CBC90469946A246AB46F0BD5A462E1C01920228BAD1019E01273740134A00240026DDE7544601970398ADE701260027154C764211
:4021C0000D4AD3E72E1CA5E7802213035146194235D10B431D032C0B074AC7E780214B029B44DBE6019B00221840C7B200240026BCE7C0460DFCFFFFFF07000001FCFFFF8C
:4022000060570000FF030000FFFFFFFEFE070000FFFF0F80FFFF0F00041C283CA5402C1C002570E600F082FC203060E6283B9E40B24600262DE600F079FC203019E61C4297
:4022400006D11C432603340B5F462E1C2E4A8DE70B431803040B2C4A88E72C4F049D7B1B382B06DD019E012737400022002400267CE71F2B21DC049A254F351CD119201CB3
:402280008E40DD408840321C2843561EB241061C1643DC400F233340042B05D0371DB742B641714264183E1C250217D5019B01271F4001220024002658E71648049A211C23
:4022C000871AF9400D1C202B12D0134BD01884402643721E96412E430024DBE7019A6507F6086002012717402E43040B00223DE70024EDE780210F033C43019824030127BF
:40230000240B0740004A31E7FF07000002FCFFFF1E040000E2FBFFFF3E040000F0B557464E464546E0B4071C0D034E00680ACC0F790F08438446111C18035A00FD00400A3B
:40234000DF0F4B0F1843CA4BC900760D520D8A469A4200D1E0E001235F40B946BC4200D1A8E0B71A002F00DC10E1002A12D15246024300D1D4E0013F002F00D060E1514651
:402380006F1ABD42AD4162466B42101A3D1CC31A371C24E0B64A964200D1E3E080210B041843382F00DD23E11F2F00DD66E12021C91B021C53468A40FB401A4353468B40C8
:4023C000191C4B1E9941031C0A43FB40AA1A67469542AD41F81A6B42C31A151C371C1A0200D4C7E05E02710A88464246002A00D1F0E0404600F09AFB021C083A1F2A00DD44
:40240000F1E02823181A2E1C4146C6409140331C0B439540974200DDA9E0D01B411C1F2900DD12E11F273A1A2E1C181CCE409040954030436A1E9541CB400543012100275D
:402440000F262E40042E00D172E02E1DAE42AD41684280221B180125100418402C40002807D0834FB94200D1B0E0824A0F1C13400131F20849055E073243DB08480D012892
:4024800000DC79E01B0378051E0B470D00200021090D7D050B05784F1E43101C37406A0817437E007108E40721431CBC90469946A246F0BDB31A002B00DCA6E0002A3ED055
:4024C0006B4A96424ED080210F043843382B00DC18E15346184300270022002800D001225219AA42AD4167446B42FB18151C371C1E023FD55E487E1C864200D17BE15D492F
:4025000001222A400B406808151CD90705430D435B08B91C371C93E7014300D11BE71CE7711C371C0F2663462E40042E00D08CE7802201261004344018402E1C8FE75246E9
:402540000243EDD0013B002B09D157467919A9429241554260444319371C0D1CC8E744498E42B3D1802063460101371C68E7BF1A404A1340791C63E7151C1D4300D121E2A1
:40258000002F3ED0802631030B437BE7002F00D086E0721C51054B0D012B00DCF0E05746EA1B95429B416746391A5B42C91A88460B0200D49DE05446651BAA459241C01B23
:4025C0005742C31B9846371C4C460EE70F1C002600225BE7281C00F0A9FA2030021C083A1F2A00DC0DE7283885402B1C002511E75746384300230022002800D1E6E6012289
:40260000E4E61D032E0B002740E7002B00D0D9E0771C79054A0D012A00DC95E0144B9F4200D1FEE051464919A942AD4162466B428018C2184908D5070D435308B11CFFE67F
:402640000B498E4200D0ACE68CE7061C1F3E1F1CF7403E1C202973D03F22101A83401D436B1E9D413543012100230027E8E6C046FF070000FFFF7FFFFFFF0F803B1C203BFC
:40268000011CD9400B1C202F5CD04022D71BB840021C50460243511E8A411A43002395E67F42002E40D0CA4CA24200D11FE1802166460B041E43B446382F00DDA9E01F2F2C
:4026C00000DD3DE12023DE1B291C6446B440F940B5406B1E9D41214363460D43FB4057467D1BC01AAA459B415F42C31B4C46171C75E60D1C154320D1002401210023042615
:402700000027B6E61F2B4ADC2021C91A071C52468F40DA403A4357468F40391C4F1EB941D8400A43071CDBE664462C4369D1511C031C5546171C4C4682E6151C371C54E64B
:4027400000238CE70022A4E767462F43002E00D0D4E0002F00D126E15346034300D1E4E051464F19AF42AD4160446E4283191E0200D44EE197483D1C0340022101275FE6CE
:4027800061462943002E29D1002976D151460143B2D0031C55464C460121002750E61F1C203F011CF9400F1C202B00D1C6E04022D31A9840021C50460243531E9A413A4380
:4027C00000278DE65B42002E30D167462F4300D0C8E0511C031C5546171C31E6002965D15746074300D1C8E0031C802055464C460101774F24E68023371C19010426002391
:4028000037E6013F002F6ED154466146651B401A68E767463D430023002D00D15FE701255DE7802631010023042622E668498A4200D1C1E08027664639040E43B446382B0B
:4028400000DDA2E01F2B00DDD0E02021C91A2E1C67468F408D40DE403E43291C67464D1EA941DF40351C0D433E1C554455459B4130185E428319171C3AE65646064354D07C
:402880005746EA1B63469542B641191A7342CB1A1E0200D4A2E07D1B6446AA45BF41001B7A42831A4C4601210027C9E5564606433FD0624680215707ED08D3080A033D4396
:4028C000134208D0C608164205D15546EC0845072543331C4C46680FDB0080260343ED0031013B4FACE53A498A4200D0E4E68026031C55464C463101171CA1E5002F4CD002
:402900005346034315D062468026ED085107D30837030D433B42DED0C2083A42DBD15546E9084507131C0D43D5E763460121002786E5802739016346254F81E500223AE79F
:402940003C1C203C6646E640331C202F5FD04024E71B6646BE40311C0D43691E8D411D430023BCE6013B002B22D155445545BF417B426044C318171CBAE580210422002457
:402980000901154B5642124F73E563461D430026002D00D169E7012567E78022031C554611010B4F4CE5031C55460121002747E507498A4200D042E78021031C55460901C9
:4029C000171C3DE57F057F0D002600225EE5C046FF070000FFFF7FFFFFFF7F001D1C154300D189E6151C0121002729E51F1C203F6146F940202B10D04026F31A67469F40E5
:402A00003B1C1D436B1E9D410D4300262DE70021A2E73D1C0121002712E50023F1E7C04670B5041E26D000F081F814490A1A0A2813DD0B38844056052403720D250B002603
:402A400000200021301C0E0D33050D4C2B4311051C400C436500690870BD0B23051C181A1535211CC440A940520525030E1C2D0B520DE5E7002200250026E1E71E04000093
:402A8000FFFF0F80410070B50E0E731C4202C50FD8B2540A012815DD6307E024A000120B341800200021181C0B0D1E051C4B324361054C08134023435A005608ED07311CEE
:402AC000294370BD002E16D1002C1ED0201C00F02DF80A281DDC0B22111A021C231C1532CB4094401E1C231C34030E4E220B301A41054C0DD5E7002C03D06307120B0A4CFD
:402B0000CFE7094C00220023CBE7002400220023C7E7011C0B398C40261C0023E4E7C046FFFF0F8089030000FF0700001C2101231B04984201D3000C10391B0A984201D3A4
:402B4000000A08391B09984201D30009043902A2105C40187047C0460403020201010101000000000000000070B50E4B0E4D0024E81A85101E1CAC4204D0A10072589047EC
:402B80000134F8E702F0BCFE0849094A0E1C541AA5100024AC4204D0A300F05880470134F8E770BD0C5900000C5900000C5900001459000010B50023934203D0CC5CC4541F
:402BC0000133F9E710BD00B58218031C934202D019700133FAE700BD0CB430B5164B9DB00C1C1D6804D58B200122286050421DE002A9822293000290086100208B818442F7
:402C000000D0601E0122534288604861CB81209A21AB281C019300F069F8421C01DA8B212960002C02D0029D00242C701DB030BC08BC02B01847C04644010020F7B5019100
:402C40009168071C141C002940D190239289D80002423BD02568216963696E1A58000096C6180098F50FAB1901305D10A84201DB009D0235381C53050FD5291C01F06EFCDA
:402C8000061E13D02169009AFFF794FFA7891649802239401143A18111E02A1C01F0A4FF061E0CD1381C216901F002FC0C203860A58940263543A5810124604213E0009B5C
:402CC0006561F018ED1A26612060A560A668002E08DD694627680A793A70A3680137013B2760A3600020FEBD7FFBFFFFF0B5A1B0049007938B890E1C171C19060FD53269D8
:402D0000002A0CD1402101F029FC30603061002803D1049C0C262660D6E04020706108AD00212024302369616C76AB763C1C2278002A04D1E01B069019D003970FE0252A3C
:402D4000F8D00134F3E70399321C09780498FFF775FF039A01320392013000D1AFE003990698CB1B8342EEDB0D9F3A180D922178002900D1A3E001206A46002347426332A2
:402D800001342B60EB606F60AB601370AB65504F2178381C052201F02BFC002807D0C71B2B680120B840184328600134EFE72B68D90603D568462021633001701A0703D51F
:402DC0006A462B276332177021782A2901D00B9B0EE0079A1068111D0791002801DB0B9004E0022247421343EF602B60013409E020783038092804D80A277B4301341B18A3
:402E0000F6E70B9323782E2B18D161782A2909D1079B02341A68191D0791002A0DDA012042420AE00134002220783038092804D80A277A4301341218F6E70992254F217836
:402E4000381C032201F0D4FB002806D02B68C21B4021914019432960013421781E4806222976671C01F0C4FB002817D01B4800280BD12868079C0723C10501D5E41800E01B
:402E800007349C430834079414E007AA00920498291C321C124B00F0CBF807E007AC00940498291C321C0E4B00F096FB059005994A1C04D00D99059A8C180D9436E7B58922
:402EC000690601D40D9801E00127784221B0F0BDA2570000A8570000AC570000313000003D2C000000000000F0B58BB0171C1D1C1299149C04D580263306ED182D2200E050
:402F000000220A70662C0BD0462C09D0652C02D00222452C05D1109902220131109100E00322109E139B009208A909AA01960293049203913A1C2B1C00F0FEFC061C672CE6
:402F400001D0472C02D11198C2072DD5109BF1180791662C01D0462C14D13478302C0CD1381C291C154B144AFEF7F8F9002804D1109A01201399831A0B60139C079A20684A
:402F800013180793381C291C0C4B0B4AFEF7E6F9002801D0079F0997099F079DAF4203D230223A700137F6E7099915988C1B0460301C0BB0F0BDC0460000000000000000BD
:402FC000F0B5831C027085B0061C0C1C2B22002901DA4C422D2272701D1C092C1DDD6F460E37201C0A210197FEF79CF930313970201C0A21FEF740F9013F041E092CF0DC9F
:40300000019B3034013B1C7069460F318B4209D21A7801332A700135F6E73020241818705C709D1CA81B05B0F0BD000000000000F0B593B00C1C0A920B93189D071C01F0ED
:403040007FFA00680C9001F03BFE002321680D901093267E28680722C90501D5801800E007309043031C08332B6041680068A064E164A06CE16C01F0DDFD01281BD1A06CB6
:40308000E16CB04BAE4AFEF76FF9002803D0211C43312D220A70472E02D8AB48099001E0AA4B09932168042203259143002025612160089090E0A06CE16C01F0BBFD256848
:4030C00000280ED1472E02D8A149099101E0A14A099204208543032325600025236108957AE06268511C01D1062106E0672E01D0472E03D1002A01D1012161608023D80039
:4031000005432560626801956D460FA910AB00203B35039106900092029504960593381CA26CE36CFFF7E0FE0F990990672E01D0472E06D1CB1C02DB626891422DDD023E04
:40314000F6B2652E12D8201C01395030321C0F91FFF736FF109B0890C0182061012B02DC2268D3072FD5013020612CE0662E15D16568002908DD2161002D02D12268D20715
:403180001DD50135491911E0002D03D123680120034200D0A81C206111E06726109DA94206DB22682161D20709D50131216106E00120002901DC0223581A291821610F9910
:4031C0000025A165089569463B310D78002D03D0231C43332D2018700B9D381C0095211C11AA0A9B00F088F9013002D1012460427CE1236859050ED4099E09992269701AED
:40320000904221DA3178381C0A9A0B9B984701360130F2D1EAE7652E00D8F6E0A06CE16C484B474AFEF79AF800282ED0381C30210A9A0B9DA8470130D8D00F991098814268
:4032400007DB2268D30704D42568AB0700D54BE144E10C9E0D9BF518AE4208D03178381C0A9A0B9B984701360130F5D1BEE70025109E013EB542E7DAA17E381C0A9A0B9B24
:4032800098470130B2D00135F2E70F9900293ADC381C30210A9A0B9B98470130A6D00F98002805D1109A002A02D12668F307CBD50C9E0D9D7519AE4208D03178381C0A9A52
:4032C0000B9B984701360130F5D18FE700260F994B429E4208DAA17E381C0A9A0B9DA847013083D00136F2E7099D0998109A2E1A9642A9DA2978381C0A9A0B9B984701355E
:403300000130F2D172E7A06D109E864200DD061C002E02DC0020089029E0099D721908922978381C0A9A0B9B9847013000D15DE7089901358D42F3D1ECE7C046C046C04673
:403340000000000000000000B3570000B7570000BB570000BF570000A17E381C0A9A0B9DA847013000D141E7089901310891F243A56DD31708983340E91A8842ECDB0F9E44
:40338000109A96420EDB2368DA070BD4109B099E0F997619581A5D1B854200DD051C002D10DC1DE00C9E0D9970180890089A9642ECD03178381C0A9A0B9B984701360130D5
:4033C000F4D113E7721909923178381C0A9A0B9B9847013000D109E7099901368E42F3D1002608E0A17E381C0A9A0B9B9847013000D1FBE6013610980F9AEB43811AD81796
:4034000028400A1A9642EDDB1EE7099E109A3178381C012A09DCDA0707D40A9A0B9DA847013000D1E2E6261C45E00A9A0B9B9847013000D1DAE60C9E0D997518AE4208D045
:403440003178381C0A9A0B9B984701360130F5D1CCE6A06CE16C274B254AFDF77FFF0026002818D1109A013A9642DCDA099A381C931959780A9A0B9DA847013000D1B5E6A4
:403480000136EFE7A17E381C0A9A0B9DA847013000D1ABE60136109801388642F2DBC2E7301C503001780A9A381C0B9DA8470136013000D19AE60899331B8B42F0DBC3E6AB
:4034C000617E381C0A9A0B9DA847013000D18DE60136E3681199581A8642F1DB119FE068B84203DA381C01E00026F2E713B0F0BD0000000000000000F7B5151C01930A6960
:403500008B6800900C1C934200DA131C201C2B6043300178002901D001332B602668B00602D52F6802372F602268062616401CD0261C4336377822683E1C731E9E419206CE
:403540001CD5A319181C40303021271CC17045373A784133DA70023610E0617E0098019A089FB847013006D00136E3682868191A8E42F2DBDCE7012040422CE00027B742EE
:403580000ADAE119433109780098019A089B98470130F0D00137F2E72B68256806212940E6680025042903D1F01AC743FD170540A2682669B24201DD931BED180027AF42BA
:4035C00008DAA17E0098019A089EB0470130D2D00137F4E70020FEBDF0B50D1C8BB0433507930590069204950A7E0C1C109B6E2A00D1A8E012D8632A24D009D8002A00D1C5
:40360000B1E0582A00D0C1E045310A707D4D51E0642A1FD0692A00D0B8E01BE0732A00D1A5E009D86F2A2BD0702A00D0AEE00A68202616430E6038E0752A21D0782A00D0AF
:40364000A4E032E018680E1C051D1D600368423633709EE026681F68300606D4750604D5381D186000203D5E02E03D1D1D603D68644B002D3BDA04992D226D420A7036E0EC
:4036800027681E683D0605D4780603D5351D1D60358802E0311D196035685A4B207E039308276F281ED00A271CE0271C45377820554D38701A682668111D039519603006D1
:4036C00003D4750601D5158800E01568F00702D520231E4326601027002D03D12668202086432660261C43360022327001E003930A276168A160002903DB206804239843D9
:403700002060002D02D1049E00290ED0049E281C391CFDF7A7FD039A013E515C281C3170391CFDF75BFD051EF1D1049B9A1B2261082F33D12768F80730D5606890422DDC51
:40374000013262602AE008681E684969050606D4450604D5351D1D603368198003E0321D1A603768396000202061049E16E01E68311D19603668301C01F0A2FA6568206167
:40378000A84200D925612369636004E0261C4236327001212161049F00223A7007990598009109AA211C069BFFF7A6FE01300CD0351C2269AB1B93420ADA29780598069ADF
:4037C000079FB84701350130F3D10122504217E02668B10705D4099BE068984210DA181C0EE00025E7680998391A8D42F3DA617E0598069A079EB0470130E6D00135F1E7AB
:403800000BB0F0BDC3570000D4570000F0B50B690E1C016987B0051C0027994200DA85E0321C5C1E033398001432291C019214313218039151682818131D01314068059323
:40384000FDF7CCFC0090B8423CD0019A039B944602970497614604318C46043980C9009AB8B2504302990818390C009F020C794351180A0C1F680292049ABFB2BF181A6879
:4038800080B2381A89B2170C7A1A0714D2191114170480B2059A3843049101C39445D9D9231D99006F1878683B1D00280AD1039A043B934201D82C6104E019680029FAD111
:4038C000013CF4E7281C311C01F0B4F800282CDB009E039B013600960020019F1A6840CF91B201970818B7B2C11B120C360C971B08143A181604101489B2019F059A0E4330
:4039000040C39742E9D9231D98002E187168331D00290AD1039F043BBB4201D82C6104E01A68002AFAD1013CF4E7009F381C07B0F0BD000000000000F0B5446A9DB0099057
:40394000259D06920793002C08D1102000F0FCFD09994862446084600460C460099E736A196800290AD058680122824048608A60301C00F081FE746A00212160079E002E8C
:4039800005DA01208640C6402860079601E000232B60079FBE4D3A1C2A40AA4218D1BD48249B069C1860002C01D13D0301D0BA4800E0BA48269E002E01D100F075FDC17811
:4039C000C21C002900D00532269F3A6000F06CFD069C079DA54BA44A201C291CFDF7BEFC00280CD0249A269F01211160002F01D100F057FDAA483860013800F055FD1BA986
:403A00001AAE01962B1C00910998221C01F096F87B000B905E0D09D0201CA24C2903A24D0B0B211C19437619002419E01A9C1B989E4D2618AE4208DB9D4B9E4D0698F41815
:403A4000AA1BE0409740384304E09B4F0699BA1B9140081CFEF7E4FF984A013E89180124834A844B1994FEF759FC834A834BFEF7E3F9834A834B01F04DF9071C301C0C1CB1
:403A800001F02CFD804A814BFEF7D6F9021C0B1C381C211C01F03EF9071C0D1C01F0EAFC724B714A0890291C381CFDF75DFC00280DD0089801F012FD021C0B1C381C291CF8
:403AC000FDF74CFC424242410898811A0891089C01231893162C11D8794DE700EA1910685168069A079BFDF753FC002805D00898002101380890189100E018901A9B9E1B7D
:403B0000013E04D57442002704940C9702E000250C960495089A002A06DB0C9F1592BD1800220C950F9207E00499089800240B1A464204930F9615942299092929D8229859
:403B40000124052802DD04382290002422980238032828D801F0D4F8081102050127149704E0012214920AE000261496239D002D22DD0E950A952B1C22E0002314932399CF
:403B800008980B180E9301330A93002B18DC012316E00124634200210E930A9322911494122323910CE001267542002214960E950A951223239203E001230E930A9323936D
:403BC000099E0027756A04266F60301C14306968984203D8013169607600F6E7099800F013FD2860099D0A9B6A6A11680D910E2B00D980E1002C00D17DE1089E069C079DA2
:403C000016941795002E5FDD0F23341C1C402C49E0000A1814685568109411953411294F0225E10617D51C40169817993A6A7B6AFDF708FD0325069007910CE0E20708D5F1
:403C4000109811993A687B68FEF7F6F810901191013564100837002CF0D106980799109A119BFDF7EFFC4DE00000000000000000000000000000F83F61436F63A787D23FE6
:403C8000B3C8608B288AC63FFB799F501344D33F0000F07F0F270000EE570000E5570000F35700000000F03F01FCFFFFEFFBFFFF120400000EFCFFFFEEFBFFFF000010FE86
:403CC00000580000D8580000089F02257C42002C1AD00F202040CC4AC10053181A685B6816981799FEF7A8F8C84F2611002E09D0F20704D53A687B680135FEF79DF876109F
:403D00000837F3E706900791189F002F1ED0069E079FB44BB24A301C391CFDF725FB002814D00A9B002B11D00E98002800DCDEE00899301C01391091AB4AAC4B391CFEF74B
:403D40007BF80135069007910E9E02E0089E10960A9E281C01F0C2FB069A079BFEF76CF8A34AA44B00F0D6FFA94A041C8F183D1C002E1AD1A04AA14B06980799FEF7CEFABF
:403D8000221C3B1C06900791FDF702FB002800D054E2221C80242506069807997B19FDF7E3FA002800D040E2A1E0974B711E1498CA009F1800284AD03A687B6890489149BF
:403DC000FDF740FC221C2B1CFEF7A8FA069C079D129013910D9F291C201C01F04BFB069001F07CFB021C0B1C201C291CFEF796FA069B041C30333B70129A139B0D1C0137B4
:403E0000FDF7B2FA002800D03AE3221C2B1C75497348FEF783FA129A139BFDF7A5FA002800D0C8E00D99781AB04260DA129813996D4A6E4BFEF700F86B4A6C4B1290139107
:403E4000201C291CFDF7F8FF041C0D1CC3E72B1C38687968221CFDF7EFFF069C079D0D9B129013919E1906961F1C291C201C01F001FB061C01F032FB021C0B1C201C291CC5
:403E8000FEF74CFA30360D1C06993E700137041C8F4223D15A4A5B4B1298139900F03AFF021C0B1C201C291CFDF772FA002800D081E0129A139B52485249FEF72FFA021CBB
:403EC0000B1C201C291CFDF74FFA00280FD0781E0278302A00D0D3E2071CF8E7201C291C414A424BFDF7A8FF041C0D1CBDE7169B179C069307941B99002900DA98E008985D
:403F00000E2800DD94E0404EC500239A77193868796804900591002A12DA0A9B002B0FDC00D084E1344A354BFDF786FF069A079BFDF738FA0A9D2E1C002800D079E180E126
:403F40000D9F069C079D049A059B201C291CFDF779FB01F08FFA061C01F0C0FA049A059BFDF76AFF021C0B1C201C291CFEF7D6F9021C301C30300B1C0A9C0D99387001379F
:403F80007D1A101CA54245D1191C00F0C3FE049A059B041C0D1CFDF7FBF900280FD1201C291C049A059BFDF7D9F9002800D169E2F00704D466E2109E089600E01F1C7B1E04
:403FC0001A78392A08D10D9EB342F7D108980D9C01303021089021701D7801351D7051E2000000000000F03F00000000000024400000000000001C400000000000001440C9
:40400000000000000000E03F00580000D85800000000C0FC191CBD4BBB4AFDF70DFFBC4ABC4B041C0D1CFDF799F900288BD029E2149E002E31D0229A012A0BDC199D002DDF
:4040400002D0B5480F1802E01A9936235F1A0F9D049C16E00A9F0F9C013FBC4201DBE51B06E00F9B1598F91A461815960F9700250A9A002A03DA049C0027A41A01E0049C5E
:404080000A9F049E0C9BF2190998DF19012104920C9700F091FB061C02E00F9D049C149E002C0CD00C9A002A09DDA24200DD221C04990C9B881A9F1A0490A41A0C970F9A97
:4040C000002A21DD1499002918D0002D10DD311C2A1C099800F00AFC061C311C0B9A099800F073FB0B99071C099800F0C5FA0B970F98421B08D009980B9902E009980B9982
:404100000F9A00F0F3FB0B900998012100F054FB159B051C002B05DD291C0998159A00F0E5FB051C229A0027012A10DC0699B9420DD1079B1803B84209D1784A134206D007
:40414000049F0C990137013104970C910127159B0120002B08D0286903308200A918486800F0E1FA2023181A0C991F22401810400DD020231A1A042A06DD1C22049B101A68
:404180001A180492241808E0042A08D0101C04991C300B180C990493241808180C90049A002A04DD09980B9900F0F2FB0B900C9B002B05DD291C09981A1C00F0E9FB051C76
:4041C000189900291BD00B98291C00F033FC002815DA089A0023013A089209980B990A2200F063FA149B0B900E980A90002B06D0311C09980A22002300F057FA061C0A9AB5
:40420000002A29DC2299022926DD002A11D1291C099805220A9B00F048FA051C291C0B9800F008FC00280CDC03E0351C00E000252E1C23980D9FC14308910AE0109F351CF8
:4042400008970D9B089A31271F7001321F1C0137089200240494FFE01498002801D10D9FB6E0002C05DD311C0998221C00F090FB061C301C002F11D07168099800F0C4F951
:404280003269311C0232041C0C3192000C30FEF791FC0998211C012200F07AFB0D9F0496061C291C0B98FFF7B1FA04990E90041C0B9800F0BFFB291C0F90321C099800F073
:4042C000D5FBC1681490012030340C90002904D10B98149900F0AEFB0C900998149900F0CBF90C9B229A13431AD106990120084216D1392C3ED00F98002832DD0E9C313486
:404300002FE0C046C046C04600000000000024400000000000000000330400000000F07F0F9B002B06DB229A13431DD106990120084219D10C990694002912DD0B9909980C
:40434000012200F025FB291C0B9000F073FB002802DC06D1E30704D50E9C069B3134392B08D03C70013777E00C9A7B1C002A09DD392C03D139243C70013756E001343C7027
:404380001F1C69E00D983C70191A1F1C0A9B99423BD009980B990A22002300F086F9049C0B900998B44206D1211C0A22002300F07CF9049074E704990A22002300F075F959
:4043C000311C04900A220998002300F06EF967E7291C0B98FFF71AFA041C30340D9B0A993C700137FA1A8A4207DA09980B990A22002300F05AF90B90EAE70A98002800DCF8
:4044000001200D9F00233F1804930B990998012200F0BEFA291C0B9000F00CFB002804DC14D1E00701D411E00F1C791E0A78392A09D10D9B9942F7D108980D9C0130312185
:404440000890217008E001320A7005E0781E0278302A01D1071CF9E70998291C00F00CF9002E0FD0049D002D05D0B54203D00998291C00F001F90998311C00F0FDF801E081
:40448000109A089209980B9900F0F6F8089B249A2698002601333E701360002803D0076001E0024800E00D981DB0F0BDF257000030B5002940D004390B68002B00DAC91872
:4044C0001E4A1368141C002B02D14B60116033E099420FD20D684A199A4205D110682B1855680B604D6000E04B60216024E08A4203D8131C5A68002AF9D11D685C198C4242
:404500000BD10C682D1958191D60904214D1116852686C181C605A600EE08C4202D90C21016009E008680D18954203D114685268001908604A60596030BDC046B401002023
:40454000004870474801002008B5034B011C186800F004F808BDC0464401002070B50323CD1C9D430835061C0C2D01D20C2501E0002D2DDB8D422BD31C4A1368111C1C1C36
:40458000002C12D02068421B0CD40B2A02D92260A41815E0A34202D166680E601CE065685D6019E0231C6468EAE7301C291C00F075FB421C0CD0C41C03218C43844201D100
:4045C000256009E0211A301C00F068FB0130F7D10C243460002008E0201C0B300722211D9043431A01D05D42E55070BDB401002000B5C9B28218904204D003788B4202D06F
:404600000130F8E7002000BD70B5456A041C0E1C002D07D11020FFF797FF6062456085600560C560656AEB68002B09D0656AB200EB689918086800280ED004680C6017E0E8
:404640000421201C212200F042FBE860606AC1680029EBD100200EE001210D1CB540681D8200201C00F033FB0028F3D04660856000260661C66070BD70B5446A061C0D1C26
:40468000002C07D11020FFF75FFF7062446084600460C460002D07D0726A6968D0688B00C61834682C60356070BDF7B50C1C1E1C0D69071C143100230868013380B25043DC
:4046C00086190868B446000C5043360C3018060C00040190604680B2844601988444604601C1AB42E8DB002E1BD0A1688D4212DB6168381C0131FFF787FF2269211C023221
:4047000001900C3192000C30FEF754FA211C381CFFF7B2FF019C2F1DBB00E018013546602561201CFEBD031C020C002000B5824201D11B041020190E01D108301B021A0F0F
:4047400001D104301B01990F01D102309B00002B03DB01305A0000D4202000BD0368021C072000B518400CD0012100200B4222D10220034203D0CB401360081C1BE09B08D6
:4047800016E099B2002901D11B0C1020D9B2002901D108301B0A190701D104301B09990701D102309B08D90702D45B0802D00130136000E0202000BD10B50C1C0121FFF781
:4047C00023FF01234461036110BDF0B50C1C151C0969126989B0914202DA231C2C1C1D1C27692E69A268BB1961680193934200DD0131FFF709FF0199031C04318A008118B5
:404800001433043103911A1C03998A4202D2002102C2F9E704370436BF00B600221CA919E419143204340431143504920594069100959C46009D069B07959D4246D2009DA3
:404840002C88002C1BD004996346002240C91D68B7B267430297AFB2029D360CEF196643BF181A68150C76193A0CB5182E042A0CBFB2059D3E4340C38D42E7D81A60009C19
:404880000799043400944C88002C1CD063461A6804990025079140C992B2B7B267430297029E5F88F7197D192E043243079E04C372881F8862432D0CBF18059E7A19150C35
:4048C0008E42E7D81A600424A444B3E7039E019A002A03DC019C046109B0F0BD043E3768002FF7D1019901390191F0E70323F7B51340051C0E1C171C002B08D0013B224AF5
:40490000980082580023281CFFF7CFFE061CBF1037D06C6A002C07D11020FFF715FE6862446084600460C460696A8C680191002C10D1281C1549FFF73FFF019B041C986006
:404940000020206006E07F101BD02068019000280ED0041CFB07F6D5311C221C281CFFF734FF311C0190281CFFF786FE019EEAE7221C281C211CFFF728FF019A20600260CE
:40498000E7E7301CFEBDC046C858000071020000F0B50C1C5611171C226985B00390B018029049680130A3680190019D9D4202DD01315B00F9E70398FFF726FE0022051C36
:4049C0001430B24203DA002102C00132F9E7F343D91722690E4004360432B6009000AE19231C20181F210436143304300F4013D02022D11B8C4600221968B9400A4304C6DF
:404A000004CB6146CA408342F6D33260002A07D0029E0236019603E080CB80C69842FBD8019B0398013B2B61211CFFF725FE281C05B0F0BD30B50A690469031CA01A14D1C7
:404A4000043292001D1C89189B18143504330431043B04391C680A68944204D09442AD410120284301E0AB42F2D830BDF0B5071C85B0081C0C1C111C151CFFF7DBFF061EA0
:404A800007D1381C311CFFF7BFFD01270761466151E0002801DB002603E0231C01262C1C1D1C6168381CFFF7AFFD2169C6602E690A1C0432043697000191B100E3196A187B
:404AC00004320433061C03920293143414351436002280CC02CDBC46BFB2BA188BB26746D31A090C3A0C571A1A14B9188C4667463A149BB23F043B4308C6039B211C371C27
:404B0000AB42E6D8029CA1420BD208C99CB2A41825141E0CAB191D04A4B22C431A1410C7F0E7043F3D68002D03D1019A013A0192F7E7019E066105B0F0BD0000F7B5012142
:404B40001D1C141CFFF760FD2B036900061C4D0D180B002D02D08022570338430190002C19D068460094FFF7F9FD009A002809D0019B20211C1C0F1ABC402243C3407261E9
:404B8000019300E07261019A022753425341FF1AB261376107E001A8FFF7E0FD019C0127746137612030002D09D00D4C352729190A183D1A089B09981A6005600DE0F91C7D
:404BC000084D8A00089C4019B31820605868FFF7AAFD7F013D1A09980560301CFEBDC046CDFBFFFFCEFBFFFFF8B5061C0C1C151C002904D1111CFFF7B1FC041C18E0002A82
:404C000003D1FFF755FC2C1C12E000F06EF8A8420ED2301C291CFFF7A1FC071E07D0211C2A1CFDF7C7FF301C211CFFF741FC3C1C201CF8BD0B1C011C021C30B519430220D8
:404C4000002921D080242506AB4201D1002A1BD00E480F491C1804208C4215D90D4D5C198C4211D90C4903208B420DD980252C061D198D4208D90748834203D003490020F3
:404C80008B4201D15042504130BDC0460000F0FFFFFFDF7F0000F07FFFFF0F0038B5074C0023051C081C236000F052FC431C03D12168002900D0296038BDC046C4010020F1
:404CC0000023C25C0133002AFBD1581E704738B50D1C5543291CFFF741FC041E03D000212A1CFDF770FF201C38BD04390B6800B5181F002B02DAC8581918081F00BD00002E
:404D000002B4714649084900095C49008E4402BC7047C046F8B55F4656464D464446F0B40C03460F640A3443A3465E001C03DB0F9C46630A98464D00530F44461C436D0DEA
:404D4000C90F760DD2000F1CC000A1469246AB1B614500D1A4E0002B00DCF5E0002E0CD1261C164300D1C2E0013B002B00D046E15C464B46821AE71A21E0D24EB54200D18F
:404D8000CDE080244A4627043A439146382B00DD0FE11F2B00DD50E12026F61A4C4652465746B440B740DA4022433E1C4C46771EBE41DC403243261C5B46821A9F1B904268
:404DC00080414642BB1B141C2E1C0F1C180200D4AEE05D02690A88464246002A00D1D9E04046FDF7A3FE051C083D1F2D00DDDAE02822131A201C4146D840A940031C0B438B
:404E0000AC40AE4200DD90E0AE1B711C1F2900DD00E11F20851B1A1C201CAA40C840AC401043661EB4410443CB40012200260F202040042864D0201DA042A441654280211C
:404E40005B1901240D041D402740002D07D09D4EB24200D19AE09C49161C0B4001325C07C00852050443DB08550D012D62DD1B0376051B0B760D00200021090D201C0A05A2
:404E8000924C1343760575081C402C436300FF07590839433CBC90469946A246AB46F8BD002B00DC91E0002E31D0864EB54200D1A9E080244E4622041643B146382B00DDC0
:404EC00018E11F2B00DD73E12026F61A4A46B240904652464446DA4022435446B440261C741EA6414C463243DC401218F6E0041C0F206A1C5B462E1C0F1C204004289AD1A1
:404F000080252D0401211D400F40201C9DE7144300D0DDE06A1C5B46041C2E1C87E780215B46041C0A012E1C81E7761B664D2B40721C7CE7211C194300D167E2002E41D079
:404F400080200203134392E7002B00D088E0691C4E05740D012C00DC1AE15B46161C4C46821A191B90429B415B42C91A88460B0200D49EE0371ABA4592415E46A41B534252
:404F8000E11A88463C1C2E1C674625E7161C0023002470E7201CFDF7C9FD2030051C083D1F2D00DC24E7031C283B9C40231C002427E74A4653461A430026002A00D1FBE6C7
:404FC0000122F9E61D032B0B55E7002B00D004E16E1C7405630D012B00DCAAE039498E4200D130E11118814280414B4642425B449B18DC0749080C435B08AA1C17E7314FC6
:40500000BD4200D0C2E6041C80205B460F1C02012E1C0CE7301C1F381A1CC240151C202900D182E03F218E1BB3401C43631E9C412C43012200230026F9E61C1C203C4F4609
:40504000E7403E1C202B72D04022D41A4B46A3401A1C57463A43531E9A4132430026ABE65F42002D50D0174DAE4200D155E180245A4621040A439346382F00DDDAE01F2F72
:4050800000DD78E12021CC1B051C5A46A240FD40A04015435B46421E90412843FB4057463C1AA24592414846C11A55424B1B67468CE6081C104330D10027012200230420C7
:4050C0000026CCE6FF070000FFFF7FFFFFFF0F80013B002B24D153461A184C46824280415C444342E3182E1C141C18023ED4721C0F1C9CE64A4653461A430024002A00D1E5
:40510000F3E601221218E9E75B46034300D083E0231C721C5446674689E6141C2E1C5BE6CD4EB54200D0C9E66DE700237DE700228FE75E460643002D00D0F4E0002E00D160
:405140004CE14B46134300D17EE115184E46854280415E444242B3181E0200D482E1BF4F2C1C3B4002220F1C012660E6BA4D701CA8424BD0B94F0125254062083B402C1C75
:40518000DF0714433C43B21C5B08061C0F1C4EE65E460643002D2CD1002E00D07DE04E46141C164388D04B466746012200263EE61E1C203E4C46F440261C202B00D1D8E07B
:4051C0004022D41A4B46A3401A1C54462243531E9A4132430024121880E75B42002D37D15C46044300D0D7E0721C4B4654460F1C1DE6002E6ED14B46141C134300D1DCE006
:4052000080254B4667462A01934E10E68021061C0A010023042022E6013F002F79D1171A5B46BA45AD414946CA1A68423C1C131A6746CBE55F46074300230020002F00D1C3
:405240002DE701202BE780252A010023042006E6814DAE4200D1D3E080245D4622041543AB46382B00DDB0E01F2B00DDDBE02025ED1A021C5C46AC40DA40A840451EA841F4
:40528000224302435846D840031C55465419544592414B4450421B1827E74A465646324300D185E0851B5B464C46A8429241191B56428B1B1E0200D4ADE057463D1A5B46AA
:4052C000AA458941E41A4A42A31A67462C1C01220026ACE54D46161C154344D05C468021C0086207E3080D0310432B4200D181E04C46E10829427DD1F70866073E430B1C05
:405300006746700FDB008022F40003431201524E8DE5514DAE4200D0AEE680204B4654466746020183E5002E5ED04C4614431AD0C7088025584643072C03C0081F4320424A
:4053400008D04E46F308234204D15246D5087707181C2F43C300FC00780F0F1C802103430A013D4E63E5802632015B46041C3A4E5DE5002229E7391C20395C46CC40221C8D
:40538000202F67D04023DF1B5D46BD402843431E98411043002382E6013B002B2CD150445C469042AD414C446A42A318041C9CE65B46041C0122002639E5802404210027DC
:4053C0002201274B4842244E49E55D46054300230022002D00D158E7012256E7141C4B460F1C0122002622E5141C80224B461201194E1CE5061C84E7174A964200D030E75A
:405400000F1C80214B4654460A0110E57405660D002300242FE5181C284300D14CE62C1C0122002603E51C1C203C5D46E5402C1C202B1CD04022D31A5A469A400243501EBC
:4054400082412243002320E75B46041C0F1C01220026ECE4002599E7FF070000FFFF7FFFFFFF7F002C1C0F1C01220026DFE40022E4E7C046134A0B0330B5051C48001C0BDF
:40548000C90F430D0020934211DD0F4883420FDC802250030D4A0443D01A1F280BDD0C4DEB1ADC40221C5042002900D1101C30BD084C0819FBE7C54007482A1C1D18AC40BF
:4054C0002243F0E7FE0300001D0400003304000013040000FFFFFF7FEDFBFFFFF8B5041E2DD0C50F00D04442201CFDF71FFB16490A1A0A2816DD0B388440570526037A0DA3
:40550000360B002700200021381C0F0D3B050F4C33431C401605344361004A08ED07111C2943F8BD0B26011C301A1531231CC4408B40520521031F1C0E0B520DE2E7002556
:40554000002200260027DDE71E040000FFFF0F800A4A00B51368002B0CD018186946884202D81060181C00BD054B0C2201201A604342F7E7034B1360EFE7C046B8010020E8
:40558000C4010020C801002000000000000000002530352E3166000045303232000000002530332E30660000453032330000000000300F40000400400F40000402000F4068
:4055C00033300F4015310F4033320F4015330F4004400F4005410F4002600F40810D830D405149FF4AFF4BFF4F0150185A045D095F016040624064406540668068806A8097
:405600006C806E8082019E01B001B601BE01C041C5ECC602C807C9FFCAFFCBFFCD83CE03CF01D018D280D401D804DA04DB04DC09DD99DF01E040E240E440E540E680E88076
:40564000EA80EC80EE8006400D801E801F8041804580464048014D044F0155805D045E805F0174017640C010C280D098D208D6D0404549FF4AFF4BFF4F0150185A045D096B
:405680005F016040624064406540668068806A806C806E808E019201B001B601BE40C054C5ECC720C823C9FFCAFFCBFFCD83CE03CF01D018D280D401D804DA04DB04DC0975
:4056C000DD99DF01E040E240E440E540E680E880EA80EC80EE8002020B4019401A804101468049054B404E02510152025945728073408240AF80C001C208D081D218D60BC3
:405700006B406F20DA80DC2083409F40AF20E680EE1002011101000004000000000000005817000024190000181A0000B4190000181A00008E190000181A0000B419000068
:4057400024190000241900008E190000B41900003A1A00003A1A00003A1A0000201A0000681F0000C4210000C4210000982100001021000010210000B82100009821000007
:4057800010210000B82100001021000098210000B0210000B0210000B0210000C82100004300232D302B2000686C4C0065666745464700494E4600696E66004E414E006E02
:4057C000616E0030313233343536373839414243444546003031323334353637383961626364656600496E66696E697479004E614E003000504F534958002E00000000009E
:40580000000000000000F03F000000000000244000000000000059400000000000408F40000000000088C34000000000006AF8400000000080842E4100000000D012634107
:405840000000000084D797410000000065CDCD41000000205FA00242000000E876483742000000A2941A6D42000040E59C30A2420000901EC4BCD64200003426F56B0C4310
:405880000080E03779C3414300A0D8855734764300C84E676DC1AB43003D9160E458E143408CB5781DAF154450EFE2D6E41A4B4492D54D06CFF08044F64AE1C7022DB5443A
:4058C000B49DD9794378EA4405000000190000007D000000000000000080E03779C34143176E05B5B5B89346F5F93FE9034F384D321D30F94877825A3CBF737FDD4F157502
:40590000F8B5C046F8BC08BC9E467047A502000085080000F8B5C046F8BC08BC9E4670477D02000038590000C8000020B8000000480000000000000000000000C0F1FF0FF0
:40594000808D5B0070170000060000000000B80B0000000000000000000000000000000000000000000000000000000000000000A057000000000000000000000000000078
:4059800000000000000000000000000000000000000000000000000000000000000000000000000000000000000000000000000000000000E0000020FA570000A757000098
:4059C000A7570000A7570000A7570000A7570000A7570000A7570000A7570000A7570000FFFFFFFFFFFFFFFFFFFFFFFFFFFF000000000000000000000000000000000000C5
:405A00000000000000000000000000000000000000000000000000000000000000000000000000000000000000000000000000000000000000000000000000000000000066
:405A40000000000000000000000000000000000000000000000000000000000000000000000000000000000000000000000000000000000000000000000000000000000026
:405A800000000000000000000000000000000000000000000000000000000000000000000000000000000000000000000000000000000000000000000000000000000000E6
:405AC00000000000000000000000000000000000000000000000000000000000000000000000000000000000000000000000000000000000000000000000000000000000A6
:0200000490303A
:020000000C04EE
:0200000490402A
:200000000000000000000000000000000000000000000000000000000000000000000000E0
:0200000490501A
:0C000000000204C81193110104E61D97D2
:0200000490600A
:0100000001FE
:00000001FF