:400000000010002011000000510400005104000080B500AF00F020FA80B584B000AF021CFB1D1A70224A3B1C0B3312781A70214A3B1C0A3312781A701F4B1B68013BFB6063
:400040001AE01E4B1868391C0B31FA68131C5B009B18C31801331B780B70184B1868391C0A31FA68131C5B009B18C31802331B780B70FB68013BFB60FB68002B0ADB0F4B59
:400080001968FA68131C5B009B185B5CFA1D12789A42D6D90A4B3A1C0B3212781A60094B3A1C0A3212781A60BD4604B080BDC046CCF1FF0FCDF1FF0FAC460000CC000020F8
:4000C0001CFF0B4020FF0B4080B500AF184B184A12688021C9020A431A601820FFF79CFF144B19221A60052000F04EFA124B134A1278D2B21A60052000F006FB0C4B0C4A9B
:4001000011680F4A0A401A600E4B10221A600E4B10221A600D4B802212061A600C4B802212061A600B4B0C4A1A60BD4680BDC04600010B402CFF0B4028FF0B40E5F1FF0F84
:40014000FFFFFBFF080202400C02024008010B4004010B40000002400100008080B582B000AF72B6FB1D00221A7023E0FB1D1A78131C5B009B185B002D4A9B183B603B68D5
:400180001A78597809020A43997809040A43DB781B0613431A1C3B6819795B791B020B439BB2101C191C00F0DBF9FB1DFA1D127801321A70FB1D1B78012BD7D91D4BFF22AD
:4001C00012061A601C4B1D4A1A601D4B1D4A1A601D4BC02252031A601C4B02221A601C4B1C4A1A601C4B02221A601C4B992212041A601B4B992212041A601A4B99221204D9
:400200001A60194B184A1278D2B202210A43D2B21A70154B144A1278D2B206210A43D2B21A70FFF751FF00F0ABF9BD4602B080BDA0460000000001400C000140FFEE000077
:4002400008000440800D2400080104400003044008030440B10D00001803044000500F4010500F4030500F4000700F4010B5064C2378002B07D10548002802D0044800E07D
:4002800000BF0121217010BDA8010020000000004046000008B5084B002B03D00748084900E000BF07480168002903D0064A002A00D0904708BDC04600000000404600003D
:4002C000AC010020C80000200000000080B500AF62B600F043FA084B181C00F051FA00F089FA012000F0FCFA012000F01FFB012000F042FBFEE7C046FD02000090B585B007
:4003000000AF00F051FA021C3B1C0B331A704A4B1B684A4A391C0B310978D154464B1B685A1C454B1A603B1C0B331B78432B00D07AE0424B1B78413B152B00D973E09A00BD
:400340003F4BD3181B689F46012000F0C9FA002000F0ECFA012000F00FFB65E0012000F0E5FA002000F0BCFA012000F005FB5BE072B60023FB600AE0FB6801332F4AD25CA6
:400380003049FB68CB181A70FB680133FB60FB68042BF1DD0023FB600AE0FB680633274AD25C2949FB68CB181A70FB680133FB60FB68022BF1DD00237B6000233B60214B45
:4003C000181C00F051FC031C0C1C181C211C00F0A9FB031C7B601C4B181C00F045FC031C0C1C181C211C00F09DFB031C3B6062B61AE0012000F09AFA012000F071FA00202D
:4004000000F0BAFA00F0F6F9562000F0DDF90BE000F0F0F9522000F0D7F905E000F0EAF9054B00221A60C046084B084A12681A60BD4605B090BDC046C4010020E4010020CF
:4004400048460000D8010020E0010020C00F074080B500AFFEE7C04680B586B000AF254B7B61254B3B61234B7B61234B3B6132E03B691B68FB603B695B68BB603B699B688C
:400480003B6000237B600CE0FB681A68BB681A60BB680433BB60FB680433FB607B6804337B607A683B689A42EED13B69DB683B6000237B6008E0BB6800221A60BB68043335
:4004C000BB607B6804337B607A683B689A42F2D13B6910333B617B695A1E9341DBB27A69013A7A61002BC3D100F0C4FBFFF7EEFEFEE7C04601000000B448000080B582B0F0
:4005000000AF00237B600FE07B68032B04D8104B7A689200D35800E00E4B0F4A796889008B507B6801337B607B682F2BECD9FFF715FE0A4B00221A608023DB058022D20577
:40054000126801210A431A60BD4602B080BDC046000000005104000000000020C000002080B582B000AF786039607A683B68101C00211A1C00F0ADFBBD4602B080BDC046AC
:4005800080B500AFBD4680BD0230800804D0C0460138FDD1C046C0467047EFF3108072B6704780F31088704780B584B000AF021C3960FB1D1A7080239B05FB60FB1D1B78EC
:4005C0001F2B02D9002000F095F8FB1D1B7810339B00FA68D3181B68BB60FB1D1B7810339B00FA68D3183A681A60BB68181CBD4604B080BD90B587B000AF0A1CFB1D011C02
:400600001970BB1D1A70BB1D1B78032B02D9002000F070F8FB1D1B781F2B02D9002000F069F8FB1D1A7803231340DB0006337B613C1C1334FFF7B1FF031C2370FB1D1B78ED
:400640009B08DBB29B0014495B181B68FB607B690322111C99400B1CDA43FB681340FB60BB1D1A787B69111C99400B1CFA681343FB60FB1D1B789B08DBB29B00064A9B1896
:40068000FA681A603B1C13331B78181CFFF789FFBD4607B090BDC04600E400E080B582B000AF021CFB1D1A70064BFA1D11781F220A400121081C9040021C1A60BD4602B0F6
:4006C00080BDC04600E100E080B582B000AF021CFB1D1A70064BFA1D11781F220A400121081C9040021C1A60BD4602B080BDC04680E100E080B582B000AF021CFB1D1A70E7
:4007000001BEBD4602B080BD80B582B000AF021CBB1D1A80BB1D1B88044A12785343181CFFF732FFBD4602B080BDC046D800002080B500AF00F074F8BD4680BD80B500AFCA
:40074000054B054A1268802109060A431A6000F023F8BD4680BDC0460000074080B500AF064B1B78002B04D1FFF7E2FF034B01221A70FFF7E3FFBD4680BDC046C8010020B0
:4007800080B582B000AF7860024B7A681A60BD4602B080BDCC01002080B500AF0B20FFF77DFFBD4680BDC04680B582B000AF00237B60044B1B687B607B68181CBD4602B06F
:4007C00080BDC0464003074080B582B000AF7860C046064B1A680F231340082BF9D0044B7A681A60BD4602B080BDC046080207404002074080B500AF074B074A12688021C5
:4008000049020A431A60044B034A1168034A0A401A60BD4680BDC04604020740FFFFFEFF80B500AF184B194A1A60194B01221A60184B194A1A60194B07221A60184B164AC3
:400840001A60184B00221A600B20FFF73DFF0B200321FFF7CFFE144B0B20191CFFF7A4FE124B00221A60124B00221A60114B00221A60114B00221A60104B0C221A60104BF9
:4008800000221A60BD4680BD000007400F000001200007400003074007010080040307400002074004020740C5080000880E0740C80E0740480F0740080F0740C80F074007
:4008C000880F074080B500AF044B1B68002B02D0024B1B689847BD4680BDC046CC01002080B584B000AF021CFB1D1A700E4B1B68DAB23B1C0F3340218A431A70FB1D1B7849
:400900009B01DAB240231340D9B23B1C0F333A1C0F3212780A431A70034B3A1C0F3212781A60BD4604B080BD0001044080B584B000AF021CFB1D1A700E4B1B68DAB23B1C04
:400940000F3304218A431A70FB1D1B789B00DAB204231340D9B23B1C0F333A1C0F3212780A431A70034B3A1C0F3212781A60BD4604B080BD0000044080B584B000AF021CFA
:40098000FB1D1A700E4B1B68DAB23B1C0F3308218A431A70FB1D1B78DB00DAB208231340D9B23B1C0F333A1C0F3212780A431A70034B3A1C0F3212781A60BD4604B080BD8B
:4009C00000000440002934D00123002210B488422CD301242407A14204D2814202D209011B01F8E7E400A14204D2814202D249005B00F8E7884201D3401A1A434C08A042CC
:400A000002D3001B5C0822438C08A04202D3001B9C082243CC08A04202D3001BDC082243002803D01B0901D00909E3E7101C10BC7047002801D00020C04307B4024802A160
:400A40004018029003BDC046D90000000029F0D003B5FFF7B9FF0EBC4243891A1847C046002941D010B4041C4C40A44601230022002900D54942002800D5404288422CD39C
:400A800001242407A14204D2814202D209011B01F8E7E400A14204D2814202D249005B00F8E7884201D3401A1A434C08A04202D3001B5C0822438C08A04202D3001B9C088C
:400AC0002243CC08A04202D3001BDC082243002803D01B0901D00909E3E7101C6446002C00D5404210BC7047002806D003DB0020C043400801E08020000607B4024802A184
:400B00004018029003BDC046190000000029EBD003B5FFF7A7FF0EBC4243891A1847C0467047C046F0B5041C4800400D0A03CD0F411C630F520A4F051A43E6007B0D012BE7
:400B40003BDD42494318FE2B2CDC002B4EDDA401770FD200611E8C413D4E224380193A430F261640042E47D18027FC0414401DD0FF2838D0374B1A40031C0130C6B2D20837
:400B8000012E17DC002A06D0002B29D08027FC03224351024A0ADBB2DB051A43ED07101C2843F0BD802148000422FF23C6B2D208012EE7DD51024A0AEDE7002806D13243D6
:400BC0000120002A15D104220023EFE71643E9D08024A004D20080260243FF237000BFE75002420AD8E7FF230022D5E7173305DA012005220023D9E70432B5E78023164FCB
:400C000019040A433C1A1F2C0DDC1449331C4718BE40301C461EB041BA40E34002431A43012000239CE70E4B171C191ACF403B1C202C09D00B4C001982403243561EB24138
:400C40001A43012000238BE70022F6E780FCFFFF81FCFFFFFFFFFFFB9E03000082FCFFFF7E030000A2FCFFFF08B5002100F028FE08BD000070B50E4B0E4D0024E81A8510EE
:400C80001E1CAC4204D0A100725890470134F8E703F0FEFD0849094A0E1C541AA5100024AC4204D0A300F05880470134F8E770BD9C4800009C4800009C480000A448000092
:400CC00010B50023934203D0CC5CC4540133F9E710BD00B58218031C934202D019700133FAE700BD10B502680C7801320131002C09D01378402B02DD5A2B00DC2033A34248
:400D0000F2D0002001E00260012010BD00000000F0B5BE4FBC4E9FB007900A9117921991199A13780D2B05D8092B14D2002B00D1C2E113E02B2B06D02D2B02D0202B0DD192
:400D400009E0012000E00020511C199154781490002C05D1B0E101321992E1E700251495199D00232A780C93302A5CD16878582801D078284BD1149C1AA900910194079815
:400D800019A9A34A1BAB00F003FE07240690044001D100F062FD062C03D10135199500F05CFD1A9A002A08D0994D1CA8296801F095FC07981A9901F009F91B9A062C1CD8E1
:400DC000201C01F05DFD040A0714170A040000273E1C12E01C9E1D9F0FE08E4F8E4CD0191D9903050C401F1C1C9E274305E08B4F002602E001268A4F7642069D2D0701D412
:400E000000F02BFD80221006074300F026FD19994C1C19944D78302DF9D0002D01D100F01CFD01220C92199B002010930B9009900890199D2C782F2C17DC079801F08AF80D
:400E400001680798069101F085F8006801F084FC0699021C281C01F086FC051E1DD0089A0020069284460D9079E0392CE5DC08980F280CDC0A23303C082804DC099A534327
:400E8000E018099003E00B994B43E4180B94089B0135013308931995CBE70798199C01F059F8006801F058FC2318089819931C78002803D00690AC46281C44E00898302CA4
:400EC00005D1199C0130621C19926478F7E7211C313908293ED8199B8446002010930690303C421C002C29D0069B9444069D0133591B91420DDA5D1E102DF7DC0A21092B37
:400F000003DC099D4D430995F0E70B9D4D430B95ECE7C243D31718402818451C0695002210280BDC0A21092D04DC099841430D19099503E00B9B59430C190B94199B101CC5
:400F4000591C19915C78221C303A092AC8D901250D9504E0002501220695AC460D92652C02D00023452C62D1069C0C9B04431C4300D1A1E019990A1C013219924C780A9162
:400F80002B2C04D02D2C05D00025119509E00023119301E0012411940A990A9A023119919478251C303D092D3ED8302C04D1199C621C19926478F8E7211C313900230829C3
:400FC00035D8251C1999303D199C631C199364782F2C07DC5A1A0E9212490E9A0B1C082A0BDC06E0392CF5DC0A235D432D19303DEAE72B1E8B4200DD0B1C119D002D16D0EB
:401000005B4214E0C046C04600000000000000004801002033040000FFFFEFFF0000F07FFFFFFF7F1F4E00000A9B199300230699002946D10C99084301D000F00EFC0D9B79
:40104000002B39D14E2C1CD002DC492C34D104E0692C02D06E2C2FD113E019A8A649FFF741FE002828D0199E19A8013EA3491996FFF738FE002802D1199F01371997A04F98
:4010800018E019A89F49FFF72DFE002814D0199D287828280DD119A89B491CAA00F0C4FE052806D1964A1D9C171C27431C9E00F0D4FB964F0026D0E30A980021199014913F
:4010C000CBE366469F1B0698089B0A970C90002B00D00C93069C102C00DD1024099803F043FA061C0F1C092C15DD221C093A884ED50077193A687B6802F0D4FB051C0B98CA
:401100000E1C03F031FA021C0B1C281C311C01F01FFC061C0F1C06990F2939DC0A98002800D19AE326DD162807DC794CC0002218106851683B1C321C17E006980A9D2521F9
:401140000A1A954224DC069C0F231D1B704CEA00A1183B1C321C0868496802F0A3FB0A9E771BFB00E5182A686B6802F09BFB061C0F1C72E30A9B16330ADB0A9C644AE500E6
:40118000531B301C391C1A685B6801F091FFEEE7069B0A991C1B0D19002D52DD0F2028400AD05B4BC1005C18321C3B1C2068616802F078FB061C0F1C0F22954300D1B5E025
:4011C0009A2041008D420EDD002206920B9210920C920798109D222100260160484FB54200D026E339E32C11301C391C0025012C0BDDE20706D5474FEE00F3191A685B6859
:4012000002F050FB01356410F1E7424C424EED00021C60198B194168006802F043FB384A0B1C0A403D49061C8A42CDD83C4DAA4203D901263B4F764278E0D424A0041F1877
:4012400074E0002D72D06C420F2020400AD0304AC300D518301C391C2A686B6801F028FF061C0F1C241161D01F2C05DD002206920B9210920C922DE1E106C8176A23034031
:40128000301C294E0D93391C002C08DDE20703D53268736802F006FB64100836F4E70D9C061C0F1C002C19D04D000A1C680D6B210B1A002B12DD1F2B0CDD0026342B02DD5A
:4012C000DC239F040AE001277842203B9840171C074003E0012462429A401640301C391C044B034A01F0E6FA0028BFD120E0C0460000000000000000B2460000B546000038
:401300000000F07FBB4600005C0100200000F8FF10470000E84700000000B0FC0000A07C0000907CFFFFEF7FC046000000230D93099A1099009207980C9A069B00F09DFEEB
:401340000A991090CD174C422540169510981BAC436807980593059900F000FE109A109915690C9004950235AA000C310C30FFF7A7FC18A90091321C3B1C019407980E9603
:401380000F9701F031F901211A90079800F0FEFE0B900A980025854200DA051C189C002C00DAA1E016992A1C0B190D981B99241A60188446AA48844500DB98E0A94821188C
:4013C0000D9C5818521806901419011E994200DD191CA14200DD211C002900DC8AE006985B1A421A0692641A08931699002911D00B99169A079800F063FF0B900B991A9A1E
:40140000079800F0CCFE1A990990079800F0DEFD09981A90069A002A04DD07981A9900F0A1FF1A90002D05D007980C992A1C00F047FF0C90002C05DD07980C99221C00F03D
:4014400091FF0C90089D002D05DD07980B992A1C00F088FF0B901A9907980C9A00F0F0FF0023C4680B99C3600690119400F0CCFF002846DA002C00D0C6E1002E00D0C3E181
:40148000381C3D0300D0BFE1774AD6231040DC04A04200D8B8E10699486900282CD006990798012200F05EFF0B99069000F0ACFF002800DCA8E10D9C6B4B002C4CD0181C8C
:4014C000D6213840CD04A84246D8DC24A104884200D99CE1079D109B2220584F564E2860002B00D0A5E1B8E12A1B169B5DE73624611A65E7089378E7069D2A69012ACEDC01
:4015000082E1002855D1119D002D20D0574C39033B1C080BA04227D101250D986942341C0A1C00280AD05048D4253840ED04A84204D86B22000D151AA9400A1C944213D1CC
:40154000494F80243B4061035F1800265CE13A030AD1002E08D1AEE7454E3B40434F9B1901221F4356424FE10123334200D14BE1119E0E980F99002E0AD000F0C9FF021CB0
:401580000B1C0E980F9901F0E3F9061C0F1C3BE100F0BEFF021C0B1C0E980F9902F0F4FB264B254A061C0F1C01F084F9002891D12AE106980B9901F06DF8214A214B041CA0
:4015C0000D1C01F087F9002858D01199002906D0284800211C4C1D4D099108905EE0002E02D13A0305D10BE0012E02D1002F00D170E7204B0022164C164D099208934DE078
:40160000201C291C104A114B01F05AF9002808D1201C291C104A114B02F044F90990089103E0119C144B09940893089D80210806099C2D1832E0C046000000000000000019
:401640000000000000000040000000000000F03F000000000000F0BF000000000000E03F03FCFFFF330400000000F07FFFFF0F000000F0FF0000F03F0000E03F291C201CBF
:40168000804B7F4A02F00EF90990119808910D1C002802D180221306CD18099C824B834A3B40159393422CD10E9A0F9B129213937F4B301CFF18391C00F02AFF021C0B1C4E
:4016C000201C291C02F0EEF8021C0B1C301C391C01F03EF9744D0C1C0D407649061C8D420BD9754E139FB74203D11298431C00D16FE50124704F664275E0D4229304E718DC
:401700003AE00D9E002E25D0159FD421C804874220D8099808995C4A5C4B01F0DBF8002813D00998089901F0F3F8002800D1012002F01AFF119C099008910A1C002C02D1E6
:4017400080252B06CA18099C151CD626F104159F6818C51B0E980F9900F0DAFE021C0B1C201C291C02F09EF8021C0B1C0E980F9901F0EEF8061C0F1C0D9C0E97002C32D13E
:401780004948159D391C01408D422CD10899099802F07CFE02F0AEFE021C0B1C0998089902F0F2FA119A041C0D1C002A04D1002E02D10E9B19030ED0201C291C344A354BBD
:4017C00001F07EF8002834D1201C291C324A334B01F08AF805E0201C291C314A314B01F06FF8002825D107981A9900F0EFFB07980C9900F0EBFB07980B9900F0E7FB07989A
:40180000069900F0E3FBA1E50D9A002A11D02B4C002112911394301C391C129A139B02F041F8061C0F1C04D1002802D1079D2220286007981A9900F0C9FB07980C9900F036
:40184000C5FB07980B9900F0C1FB0798109900F0BDFB0798069900F0B9FB179B002B01D0199C1C6014993B1C002902D080252A06BB18301C191C1FB0F0BDC046C046C04652
:40188000000000000000E03F0000C0FFFFFFDF419535A094FFFFDF3F35E5AF350000E03F9535A094FFFFCF3F0000F07F0000E07F0000B0FCFFFF9F7CFFFFEF7F0000503963
:4018C00008B50A1C0349031C0868191CFFF720FA08BDC04644010020F7B5021C066914324C11131CB4422BDA0436B300271DC518BC00043506191F2300951940351D0029E2
:4019000001D1131C16E02024631A74680193CC400435131C009EB54207D22E68019FBE40344310C310CDCC40F4E71C60002C07D0043305E000998D4202D280CD80C3F9E714
:40194000991A8A10026100D14261F7BD30B5031C1A78002A05D00D1A024CED18A5540133F6E730BD2402002008B506481021FFF7EDFF05481A21FFF7E9FF04481A21FFF742
:40198000E5FF08BDE8460000F3460000FA460000F0B58DB00791161C0A93069000F0DAFA0068089000F0D8FE089904900B18013B1878BD4A0B9030321478002C01D1FFF7C6
:4019C000D3FF079D2F68B91C01910198CB1B0278023B05930131302AF6D0B34CA55C002D1CD10899049A00F0BEFE00283DD1019F04997F183B78E25C3B1C002A3AD01D7833
:401A0000302D01D10133FAE7A748415D01933D1C002907D101270397059707E000200390051C03E00023012203930592019F9E4C3878215C002901D00137F8E7381C0899BB
:401A4000049A00F090FE00280AD1002D0AD1049D7F193D1C3B78E25C002A01D00137F9E7002D0BD0EC1BA50008E00120019F0295039004E001240292039400E002953978C6
:401A8000502901D0702927D17A782B2A04D02D2A04D07B1C002103E0002100E00121BB1C1D78814C625D002A16D0192A14DC013318787D4D103A285C002803D1002907D0B4
:401AC000524205E01928F9DC0A256A431218EEE702998C18029400E03B1C0798039A0360002A06D0059E0621754275416D420D4085E1019C03993C1B013C072C02DD013127
:401B00006410FAE7069800F029FA011C14310025041C039109910595019B9F4229D9013F07973B780B9FBB4208D0059B202B13D1099F20C70025099705950DE00798049ABA
:401B40000199871A01378F42EFD3381C089900F00AFE0028E0D0E8E70798534A01780F23575C05983B40834004301D430590079FD2E7099F039820C73A1A9110281C2161E9
:401B80004F0100F0BAFA3D1A3768BD422CDDED1B201C291C00F0B9FD0023019398421BD06B1E01221F211940101C8840011C58110430800020184068019208420CD09342A7
:401BC00002DC0223019307E0A91E201C00F09DFD0028F6D003220192291C201CFFF77CFE02994D19029510E000230193BD420CDA7D1B211C2A1C069800F0B4FB041C02980D
:401C0000211C421B143102920391029BB068834208DD211C069800F0D9F9129A00241460A325ECE07168029A8A4259DA8D1ABD422DDBF06802281AD003281CD001281DD10D
:401C4000BD421BD1012F0BDC76680A9B0398129901271E6000962761622507600C60CEE0791E201C00F051FD0028EDD106E013990029E9D002E0139F002FE5D10698211C0E
:401C800000F0A4F9129D00222A605025B7E0019B691E0291002B09D1002909DD201C00F034FD019004E0C046240200200120019002991F204A110140039893001B5801225C
:401CC0008A40134203D0019A02210A430192291C201CFFF701FE7F1B75680295022500E001250198002800D184E0F368022B0DD0032B0FD0012B7BD1011C890778D5039A2C
:401D0000019910680843184207D171E0139A0120831A00E0139B002B6AD02169231C01910198143304308200A11804311A68501C02D001321A6022E0002001C38B42F5D39E
:401D4000019BA1688B4212DB61680698013100F005F92269211C023203900C3192000C30FEF7AEFF211C069800F030F9039C2069031D990001236218C01853602061022D93
:401D800012D130680138874230D11F2139407F1101260437321CB8008A402118131C4A681A4223D0351C21E0256901998D420DDD201C0121FFF790FD029DB6680135029523
:401DC000029B0125B34200DD23E70FE01F2217400125002F0AD0019B033398002118486800F08BF92022D71BB842E1DB202600E010263543129E0A9B3460029C1C60281CC2
:401E00000DB0F0BD08239A1A70B592002025AD1A436806681C1CAC403443D3400460436004308842F4D370BDF0B5494B87B00590303318780C1C151C002801D1FFF794FD04
:401E400021681F244A119600AF1921400197039102D0019B043301930598019E0168043E002232600291371C341C04920092029B5878002838D03649095C00291ED120283D
:401E800015D80499009881422ADABC4205D2072A03DC201C391CFFF7B5FF0822AC421FD9009B043C002222600493271C18E0292849D10299059B0231196015E0009B0132A3
:401EC00001330093082A05DDAC4209D90022043C22600122206803010F20014019432160029901310291C2E7009800282BD0BC4205D2072A03DC201C391CFFF783FFAC42B7
:401F00000AD92A1C02CC02C2131CA642FAD2002410C3B342FBD90CE0039F002F09D0019C2022043C0123D11B20685F42CF40074027603768002F08D1AE4202D10125356053
:401F400003E0043EF5E7042000E0052007B0F0BD24020020004870477001002070B5456A041C0E1C002D07D1102000F023FC6062456085600560C560656AEB68002B09D09F
:401F8000656AB200EB689918086800280ED004680C6017E00421201C212200F0FCFBE860606AC1680029EBD100200EE001210D1CB540681D8200201C00F0EDFB0028F3D058
:401FC0004660856000260661C66070BD70B5446A061C0D1C002C07D1102000F0EBFB7062446084600460C460002D07D0726A6968D0688B00C61834682C60356070BDF7B584
:402000000C1C1E1C0D69071C143100230868013380B2504386190868B446000C5043360C3018060C00040190604680B2844601988444604601C1AB42E8DB002E1BD0A168BE
:402040008D4212DB6168381C0131FFF787FF2269211C023201900C3192000C30FEF730FE211C381CFFF7B2FF019C2F1DBB00E018013546602561201CFEBDF7B5061C181CEF
:402080000F1C083009210193151CFEF7E9FC01230021984202DD5B000131FAE7301CFFF75DFF089B011C436101200861092D12DD3A1C093200927F19141C2378301C303B9A
:4020C0000A22FFF79CFF0134011CBC42F5D1009B5F19083F01E00A3709252C1C0198844209DA7A1B135D301C303B0A22FFF787FF0134011CF2E7081CFEBD031C020C00201E
:4021000000B5824201D11B041020190E01D108301B021A0F01D104301B01990F01D102309B00002B03DB01305A0000D4202000BD0368021C072000B518400CD001210020E5
:402140000B4222D10220034203D0CB401360081C1BE09B0816E099B2002901D11B0C1020D9B2002901D108301B0A190701D104301B09990701D102309B08D90702D45B0885
:4021800002D00130136000E0202000BD10B50C1C0121FFF7E3FE01234461036110BDF0B50C1C151C0969126989B0914202DA231C2C1C1D1C27692E69A268BB1961680193F7
:4021C000934200DD0131FFF7C9FE0199031C04318A0081181433043103911A1C03998A4202D2002102C2F9E704370436BF00B600221CA919E419143204340431143504926D
:402200000594069100959C46009D069B07959D4246D2009D2C88002C1BD004996346002240C91D68B7B267430297AFB2029D360CEF196643BF181A68150C76193A0CB5180D
:402240002E042A0CBFB2059D3E4340C38D42E7D81A60009C0799043400944C88002C1CD063461A6804990025079140C992B2B7B267430297029E5F88F7197D192E04324311
:40228000079E04C372881F8862432D0CBF18059E7A19150C8E42E7D81A600424A444B3E7039E019A002A03DC019C046109B0F0BD043E3768002FF7D1019901390191F0E790
:4022C0000323F7B51340051C0E1C171C002B08D0013B224A980082580023281CFFF78FFE061CBF1037D06C6A002C07D1102000F061FA6862446084600460C460696A8C6846
:402300000191002C10D1281C1549FFF73FFF019B041C98600020206006E07F101BD02068019000280ED0041CFB07F6D5311C221C281CFFF734FF311C0190281CFFF746FE14
:40234000019EEAE7221C281C211CFFF728FF019A20600260E7E7301CFEBDC046D847000071020000F0B50C1C5611171C226985B00390B018029049680130A3680190019DF7
:402380009D4202DD01315B00F9E70398FFF7E6FD0022051C1430B24203DA002102C00132F9E7F343D91722690E4004360432B6009000AE19231C20181F2104361433043048
:4023C0000F4013D02022D11B8C4600221968B9400A4304C604CB6146CA408342F6D33260002A07D0029E0236019603E080CB80C69842FBD8019B0398013B2B61211CFFF795
:40240000E5FD281C05B0F0BD30B50A690469031CA01A14D1043292001D1C89189B18143504330431043B04391C680A68944204D09442AD410120284301E0AB42F2D830BD96
:40244000F0B5071C85B0081C0C1C111C151CFFF7DBFF061E07D1381C311CFFF77FFD01270761466151E0002801DB002603E0231C01262C1C1D1C6168381CFFF76FFD216971
:40248000C6602E690A1C0432043697000191B100E3196A1804320433061C03920293143414351436002280CC02CDBC46BFB2BA188BB26746D31A090C3A0C571A1A14B918B9
:4024C0008C4667463A149BB23F043B4308C6039B211C371CAB42E6D8029CA1420BD208C99CB2A41825141E0CAB191D04A4B22C431A1410C7F0E7043F3D68002D03D1019AB4
:40250000013A0192F7E7019E066105B0F0BD00000E4B0F4A0B40981810B5002801DD011C09E041420B1500200021132B05DC80210A03111C1941002006E00122322B02DC6D
:402540003324E01A8240101C10BDC0460000F07F0000C0FCF8B504690F1C0434A10044182568061C281CFFF7C8FD20231A1A3A6014361C4F0A2811DC0B21091A2A1CCA4072
:40258000944663463B430027B44201D9043C27681530CF408540381C284320E00021A64201D2043C21680B235A4213189C46002B12D09D402B222F43101A0D1C3B1CC540A8
:4025C0002B430027B44201D9043C2768C7406446A140381C084302E03B1C2B43081C191CF8BDC0460000F03FF7B501211D1C141CFFF7B4FC2B036900061C4D0D180B002D4C
:4026000002D08022570338430190002C19D068460094FFF78DFD009A002809D0019B20211C1C0F1ABC402243C3407261019300E07261019A022753425341FF1AB2613761E1
:4026400007E001A8FFF774FD019C0127746137612030002D09D00D4C352729190A183D1A089B09981A6005600DE0F91C084D8A00089C4019B31820605868FFF73EFD7F01AE
:402680003D1A09980560301CFEBDC046CDFBFFFFCEFBFFFFF7B50E1C6946071CFFF75AFF041C0D1C301C01A9FFF754FF3F69021C0B1C009801993669401AB91B84464801A5
:4026C0006044002802DD0605751901E00705DB1B201C291C00F0ECFC03B0F0BD013910B54911146901318B000434C118A300D318043314329A4202D210CA10C0FAE7884246
:4027000002D2002204C0FAE710BD30B5021C051C006914354B1183420FDC0FDA1F2421400CD0181D840010194468201CC8408840011C0120A1420ED100E0031C04339C007A
:4027400012190432AA4205D9043A10680028F9D0012000E0002030BD0023C25C0133002AFBD1581E7047031C002010B5824211D01C780878A04201D1012A03D11A7809785E
:40278000501A07E0013A0028F8D001330131002AEED1F3E710BD38B50D1C5543291C00F013F8041E03D000212A1CFEF792FA201C38BD000008B5034B011C186800F004F817
:4027C00008BDC0464401002070B50323CD1C9D430835061C0C2D01D20C2501E0002D2DDB8D422BD31C4A1368111C1C1C002C12D02068421B0CD40B2A02D92260A41815E0BA
:40280000A34202D166680E601CE065685D6019E0231C6468EAE7301C291C00F01FF8421C0CD0C41C03218C43844201D1256009E0211A301C00F012F80130F7D10C24346060
:40284000002008E0201C0B300722211D9043431A01D05D42E55070BDD001002038B5074C0023051C081C236001F0CEFE431C03D12168002900D0296038BDC0462403002017
:4028800002B4714649084900095C49008E4402BC7047C0468446101C62468C46191C634600E0C0461FB500F091FF002801D40021C8421FBD10B500F0D7FE4042013010BD80
:4028C00010B500F083FF002801DB002010BD012010BDC04610B500F079FF002801DD002010BD012010BDC04610B500F0FBFE002801DC002010BD012010BDC04610B500F05F
:40290000F1FE002801DA002010BD012010BDC04638B50E4B0C4A041C0D1CFFF7EFFF002804D1201C291C01F0B1FD38BD074B064A201C291C01F028FA01F0A8FD802319065B
:402940004018F2E7C046C046000000000000E041F8B55F4656464D464446F0B40C03460F640A3443A3465E001C03DB0F9C46630A98464D00530F44461C436D0DC90F760D17
:40298000D2000F1CC000A1469246AB1B614500D1A4E0002B00DCF5E0002E0CD1261C164300D1C2E0013B002B00D046E15C464B46821AE71A21E0D24EB54200D1CDE080247D
:4029C0004A4627043A439146382B00DD0FE11F2B00DD50E12026F61A4C4652465746B440B740DA4022433E1C4C46771EBE41DC403243261C5B46821A9F1B90428041464254
:402A0000BB1B141C2E1C0F1C180200D4AEE05D02690A88464246002A00D1D9E0404601F0D5FD051C083D1F2D00DDDAE02822131A201C4146D840A940031C0B43AC40AE42AD
:402A400000DD90E0AE1B711C1F2900DD00E11F20851B1A1C201CAA40C840AC401043661EB4410443CB40012200260F202040042864D0201DA042A441654280215B19012443
:402A80000D041D402740002D07D09D4EB24200D19AE09C49161C0B4001325C07C00852050443DB08550D012D62DD1B0376051B0B760D00200021090D201C0A05924C1343EB
:402AC000760575081C402C436300FF07590839433CBC90469946A246AB46F8BD002B00DC91E0002E31D0864EB54200D1A9E080244E4622041643B146382B00DD18E11F2B95
:402B000000DD73E12026F61A4A46B240904652464446DA4022435446B440261C741EA6414C463243DC401218F6E0041C0F206A1C5B462E1C0F1C204004289AD180252D04F1
:402B400001211D400F40201C9DE7144300D0DDE06A1C5B46041C2E1C87E780215B46041C0A012E1C81E7761B664D2B40721C7CE7211C194300D167E2002E41D0802002038E
:402B8000134392E7002B00D088E0691C4E05740D012C00DC1AE15B46161C4C46821A191B90429B415B42C91A88460B0200D49EE0371ABA4592415E46A41B5342E11A884612
:402BC0003C1C2E1C674625E7161C0023002470E7201C01F0FBFC2030051C083D1F2D00DC24E7031C283B9C40231C002427E74A4653461A430026002A00D1FBE60122F9E644
:402C00001D032B0B55E7002B00D004E16E1C7405630D012B00DCAAE039498E4200D130E11118814280414B4642425B449B18DC0749080C435B08AA1C17E7314FBD4200D0DC
:402C4000C2E6041C80205B460F1C02012E1C0CE7301C1F381A1CC240151C202900D182E03F218E1BB3401C43631E9C412C43012200230026F9E61C1C203C4F46E7403E1C3B
:402C8000202B72D04022D41A4B46A3401A1C57463A43531E9A4132430026ABE65F42002D50D0174DAE4200D155E180245A4621040A439346382F00DDDAE01F2F00DD78E1A1
:402CC0002021CC1B051C5A46A240FD40A04015435B46421E90412843FB4057463C1AA24592414846C11A55424B1B67468CE6081C104330D100270122002304200026CCE609
:402D0000FF070000FFFF7FFFFFFF0F80013B002B24D153461A184C46824280415C444342E3182E1C141C18023ED4721C0F1C9CE64A4653461A430024002A00D1F3E60122A4
:402D40001218E9E75B46034300D083E0231C721C5446674689E6141C2E1C5BE6CD4EB54200D0C9E66DE700237DE700228FE75E460643002D00D0F4E0002E00D14CE14B4682
:402D8000134300D17EE115184E46854280415E444242B3181E0200D482E1BF4F2C1C3B4002220F1C012660E6BA4D701CA8424BD0B94F0125254062083B402C1CDF071443DA
:402DC0003C43B21C5B08061C0F1C4EE65E460643002D2CD1002E00D07DE04E46141C164388D04B466746012200263EE61E1C203E4C46F440261C202B00D1D8E04022D41A4C
:402E00004B46A3401A1C54462243531E9A4132430024121880E75B42002D37D15C46044300D0D7E0721C4B4654460F1C1DE6002E6ED14B46141C134300D1DCE080254B4603
:402E400067462A01934E10E68021061C0A010023042022E6013F002F79D1171A5B46BA45AD414946CA1A68423C1C131A6746CBE55F46074300230020002F00D12DE70120A8
:402E80002BE780252A010023042006E6814DAE4200D1D3E080245D4622041543AB46382B00DDB0E01F2B00DDDBE02025ED1A021C5C46AC40DA40A840451EA8412243024363
:402EC0005846D840031C55465419544592414B4450421B1827E74A465646324300D185E0851B5B464C46A8429241191B56428B1B1E0200D4ADE057463D1A5B46AA4589417F
:402F0000E41A4A42A31A67462C1C01220026ACE54D46161C154344D05C468021C0086207E3080D0310432B4200D181E04C46E10829427DD1F70866073E430B1C6746700F75
:402F4000DB008022F40003431201524E8DE5514DAE4200D0AEE680204B4654466746020183E5002E5ED04C4614431AD0C7088025584643072C03C0081F43204208D04E46EE
:402F8000F308234204D15246D5087707181C2F43C300FC00780F0F1C802103430A013D4E63E5802632015B46041C3A4E5DE5002229E7391C20395C46CC40221C202F67D057
:402FC0004023DF1B5D46BD402843431E98411043002382E6013B002B2CD150445C469042AD414C446A42A318041C9CE65B46041C0122002639E58024042100272201274BB1
:403000004842244E49E55D46054300230022002D00D158E7012256E7141C4B460F1C0122002622E5141C80224B461201194E1CE5061C84E7174A964200D030E70F1C802106
:403040004B4654460A0110E57405660D002300242FE5181C284300D14CE62C1C0122002603E51C1C203C5D46E5402C1C202B1CD04022D31A5A469A400243501E8241224344
:40308000002320E75B46041C0F1C01220026ECE4002599E7FF070000FFFF7FFFFFFF7F002C1C0F1C01220026DFE40022E4E7C046F0B54D4644465F465646F0B41D1C4B00A0
:4030C000141C0E035B0DCA0F87B0071C360B98469146002B1DD1321C024300D181E1002E00D104E2301C01F071FA272800DDF8E12821031C083B0A1A391C9E40D1400E4329
:403100009F40C14B0021181A002280468A4600920FE0BE48834231D080214B031E43BC487A0FF600002100231643FF0080448A460093291C201C251C4A000C03CB0F240B92
:40314000520D9B4625D1211C014300D150E1002C00D1C2E1201C01F039FA272800DDB6E1031C2822083B291C121A9C40D1400C439D40A54B1A1A0020029019E0321C3A4303
:4031800000D029E108270223BA46002600270093CFE79E48824200D113E180214B031C439B49680FE40000230443ED005218029348465B46434002985146019301430F2906
:4031C00000D8DFE043469A1A0492A64200D86EE171087B08F6073343FA07894698460292280E240204432D022704390CAB46250C00914846291CFDF7E5FB009F061C4743BE
:40320000291C4846FDF722FC434608041A0C1043874207D90019013E844203D8874201D9013E0019C11B8A46081C291CFDF7CAFB009B071C4343291C50469946FDF706FC3C
:40324000424610040B04010C0B43994504D91B19013F9C4200D864E136043E435F464A46390C89469B1A59463204170C0A0449467943120C03928C460399300C7A43414376
:403280004F4678438C44170C6744B94202D9802149024018390C120440183F04110C7F18834200D227E100D141E102991B1ACF1BB942804141425A1A9046A24200D15FE192
:4032C000101C291CFDF77EFB009B02904343291C40469A46FDF7BAFB380C090401438A450AD9029A0919013A02928C4204D88A4502D9013A029209195346C81A291C05907B
:40330000FDF760FB009A291C4243804605989246FDF79CFB3F040D043A0C2A43924509D901214B4212199844944203D8924501D998441219029D43462F041F435046111AB7
:403340003804030C4D465D430398AC46039D3A0C584355434B465A43AC44030C63449D4202D980256D0252191D0C000452191B04050C5B19914200D2E6E000D13DE1012263
:4033800017435AE0890023488C46604401688F46019B1E4A0026002700200021381C0F0D3C051D4D34431205254015436E00DB077108194307B03CBC90469946A246AB4677
:4033C000F0BD211C03202943029000D0F0E60223002400250293EBE60C20032182460091A7E604270123BA46002600270093A0E60121002400250291DAE601270023074EFF
:403400007F42024AC8E7C0460DFCFFFFFF07000001FCFFFF10480000FFFF0F80FFFF0F002F1C5A46029D261C0192022DB0D0032D00D101E1012D00D19CE0049B82481A18C9
:40344000002A00DC8CE00F243C40042C05D03B1DBB42BF417D4276191F1CF10105D57B4A04998020C40016400A19794B9A4200DD8EE77507FF08760251052F43360B4A0DF0
:40348000019B89E700220026002785E7802001030E4216D00C4214D10C432603360B5B462F1C6C4A78E74C460194009DBDE7A64243D00498B846013800270490B1460297DD
:4034C0008EE60E4333031E0B624A4B4664E7041C283CA5402C1C00254BE601F077F820303BE6061C283EB7403E1C002709E601F06DF82030F9E5029A013E111C5944594592
:40350000924152421219D3189C4204D298426BD816D01B1ACBE6A342FBD18B45F6D9231AC5E6994500D897E6013F1B1994E6029ABA42E0D302990023B9E6AF42B9D947E6C0
:403540008F4251D80023B2E60919013F58468C4219D9914200D012E7984200D00FE76CE73D4C049D631B382B1CDD019B00220026002711E7019B00222B40002600270BE7D8
:4035800001277F4259E78A4203D800D0F7E69842E2D25D4668005845AD416D422C19013F0919D6E71F2B34DC049C2C4A381CA518311CAF40D840A9403C1C0143671EBC417B
:4035C0000F1C2743DE400F233B40042B05D03A1DBA42BF417D427619171C320211D5019B012200260027D7E659445945924152421219D318013E1B1A59E6002BA4D1002085
:40360000AAE77007FF08710207430E0B019B0022C2E61349049C301C0A1BD040051C202B08D0104BE1188E4037437B1E9F412F430026C8E70026F7E78022100306433103EC
:403640000E0B019B034AA7E6FF030000FFFFFFFEFE070000FF07000002FCFFFF1E040000E2FBFFFF3E040000F0B5944647461A03061C580080B4170B420D19480D034C0073
:40368000DB0F2D0B640DC90F9846844208D0144882420DD00120944212D004BC9046F0BD2B1C33430120002BF7D10D488242F1D163463B430120002BEFD101209442ECD177
:4036C000BD42EAD16645E8D1414506D0002CE4D1281C3043451EA841DFE70020DDE7C046FF070000F0B557464E464546E0B4041C4E000803C90F8A46171C59001A03050BE7
:40370000700D160B4A0D3049DB0F9C46884232D02D498A4235D000280FD1291C21434B424B419846002A0BD0002B1AD1E2452CD05546002D18D1012018E0002AF6D19046C5
:40374000311C39434B424B414146002906D1002BECD056460120002E08D005E00020002B04D16746002FE6D1012358421CBC90469946A246F0BD2B1C2343C9D002214842CB
:40378000F4E7331C3B43C6D0F8E7904205DC09DA5246002AE8D00120E8E75446002CE3D10120E3E7B542C3D807D00020B542DDD250460028D8D00120D8E7BC42B8D8002064
:4037C000BC42F5D3D2E7C046FF070000F0B544465F4656464D46F0B49446061C1A035800170B420D2E480D034C00DB0F2D0B640DC90F9846844233D02948824236D0002C6A
:4038000019D0002A20D1934663463B43584258415B468246002B1DD051460020002904D14246002A14D1012460423CBC90469946A246AB46F0BD2B1C3343584243419B46CE
:40384000002AE1D0002BEBD1414515D00029EAD10120EAE70028F7D001200029E5D0E2E72B1C33430220002BDFD1C5E763463B430220002BD9D1C2E79442E7DC05DBBD42E9
:40388000E4D806D00020BD42CFD20029CBD00120CBE76645DAD800206645F6D3C5E7C046FF070000F0B5564644465F464D46F0B44F001D1C0B03141C1A0B7B0D87B0061C03
:4038C00092469846CF0F002B21D1024300D149E15346002B00D1E4E1504600F077FE031E272B00DDD8E1083B5146994028228846111A321CCA4041460A4392469E40D84B7E
:403900000022181A002180469146039111E0D54883423ED0802153464A031A43D000710F0843D14A824600230020F600904499460390291C201C251C4A000C03CB0F240BFB
:40394000520D9B4631D1211C014300D112E1002C00D19DE1201C00F039FE272800DD91E1031C2822083B291C121A9C40D1400C439D40BB4B59461A1A794000204B46019139
:4039800003430F2B26D89900B84B8C46634419688F46111C314300D0DFE0082600200221B146824600260391C3E7AE48824200D1C9E080214B031C43AB49680FE400044342
:4039C000ED0052180020594679404B46019103430F2BD8D942443304290404921A0C0F0C101C7843360C331C80462D0C7B43301C6843111C69439C4643468346180C081866
:403A00006044844500D91FE1010C4346039119040B0C0004C0182104240C0590101C6243090C02924843321C66434A43029BB146060C9046B4461A1C62444244904502D90B
:403A4000802673029944160CB046C14400044B46060C12040293931956463204100C021C6A439C46031C7B439146320C574398461B0C9A46D144B94455434F4502D9802767
:403A80007E02AD194B461F0C4646ED191F0433041E0C031C4B436043514354431A0C8018B046401847449A46814202D980214E02A419039B1A1C62445A44624589414E4297
:403AC0005146B34603040E049C460299330C6344CE18B046C246DA44D219BA42BF4151467B426F18F9189946DA459B415E42029BB3469845B64176425B461E43000C4945AD
:403B00009B41AF42AD4136186F425842384336180598341956020643CB0D6402701E8641D20D164349021C430E43E0012FD50127049D374073083E1CE00701351E43049506
:403B40000643640823E0231C2B430320002B00D039E700240025022035E70C22032391460393E6E6042600230120B1469A4600260390DEE600240025012024E70398544622
:403B8000022844D0032800D1EAE0012860D0049A37495018002800DC95E00F273740042F05D0311DB142B641754264190E1CE10105D53048049A8023DF000440D0192E4966
:403BC000884224DC019B6507F6086402420501272E43240B520D1F4000200021090D0D052543264C12052C4014436300301C5E08FF07311C394307B03CBC90469946A24675
:403C0000AB46F0BD5A462E1C01920228BAD1019E01273740134A00240026DDE7544601970398ADE701260027154C76420D4AD3E72E1CA5E7802213035146194235D10B435E
:403C40001D032C0B074AC7E780214B029B44DBE6019B00221840C7B200240026BCE7C0460DFCFFFFFF07000001FCFFFF50480000FF030000FFFFFFFEFE070000FFFF0F80AF
:403C8000FFFF0F00041C283CA5402C1C002570E600F09CFC203060E6283B9E40B24600262DE600F093FC203019E61C4206D11C432603340B5F462E1C2E4A8DE70B4318032D
:403CC000040B2C4A88E72C4F049D7B1B382B06DD019E012737400022002400267CE71F2B21DC049A254F351CD119201C8E40DD408840321C2843561EB241061C1643DC4091
:403D00000F233340042B05D0371DB742B641714264183E1C250217D5019B01271F4001220024002658E71648049A211C871AF9400D1C202B12D0134BD01884402643721EBF
:403D400096412E430024DBE7019A6507F6086002012717402E43040B00223DE70024EDE780210F033C43019824030127240B0740004A31E7FF07000002FCFFFF1E0400005B
:403D8000E2FBFFFF3E040000F0B557464E464546E0B4071C0D034E00680ACC0F790F08438446111C18035A00FD00400ADF0F4B0F1843CA4BC900760D520D8A469A4200D1BD
:403DC000E0E001235F40B946BC4200D1A8E0B71A002F00DC10E1002A12D15246024300D1D4E0013F002F00D060E151466F1ABD42AD4162466B42101A3D1CC31A371C24E015
:403E0000B64A964200D1E3E080210B041843382F00DD23E11F2F00DD66E12021C91B021C53468A40FB401A4353468B40191C4B1E9941031C0A43FB40AA1A67469542AD415A
:403E4000F81A6B42C31A151C371C1A0200D4C7E05E02710A88464246002A00D1F0E0404600F0B4FB021C083A1F2A00DDF1E02823181A2E1C4146C6409140331C0B4395407C
:403E8000974200DDA9E0D01B411C1F2900DD12E11F273A1A2E1C181CCE409040954030436A1E9541CB400543012100270F262E40042E00D172E02E1DAE42AD4168428022BE
:403EC0001B180125100418402C40002807D0834FB94200D1B0E0824A0F1C13400131F20849055E073243DB08480D012800DC79E01B0378051E0B470D00200021090D7D053F
:403F00000B05784F1E43101C37406A0817437E007108E40721431CBC90469946A246F0BDB31A002B00DCA6E0002A3ED06B4A96424ED080210F043843382B00DC18E1534635
:403F4000184300270022002800D001225219AA42AD4167446B42FB18151C371C1E023FD55E487E1C864200D17BE15D4901222A400B406808151CD90705430D435B08B91C16
:403F8000371C93E7014300D11BE71CE7711C371C0F2663462E40042E00D08CE7802201261004344018402E1C8FE752460243EDD0013B002B09D157467919A94292415542B1
:403FC00060444319371C0D1CC8E744498E42B3D1802063460101371C68E7BF1A404A1340791C63E7151C1D4300D121E2002F3ED0802631030B437BE7002F00D086E0721C14
:4040000051054B0D012B00DCF0E05746EA1B95429B416746391A5B42C91A88460B0200D49DE05446651BAA459241C01B5742C31B9846371C4C460EE70F1C002600225BE75E
:40404000281C00F0C3FA2030021C083A1F2A00DC0DE7283885402B1C002511E75746384300230022002800D1E6E60122E4E61D032E0B002740E7002B00D0D9E0771C790582
:404080004A0D012A00DC95E0144B9F4200D1FEE051464919A942AD4162466B428018C2184908D5070D435308B11CFFE60B498E4200D0ACE68CE7061C1F3E1F1CF7403E1CD7
:4040C000202973D03F22101A83401D436B1E9D413543012100230027E8E6C046FF070000FFFF7FFFFFFF0F803B1C203B011CD9400B1C202F5CD04022D71BB840021C5046CE
:404100000243511E8A411A43002395E67F42002E40D0CA4CA24200D11FE1802166460B041E43B446382F00DDA9E01F2F00DD3DE12023DE1B291C6446B440F940B5406B1E98
:404140009D41214363460D43FB4057467D1BC01AAA459B415F42C31B4C46171C75E60D1C154320D100240121002304260027B6E61F2B4ADC2021C91A071C52468F40DA4050
:404180003A4357468F40391C4F1EB941D8400A43071CDBE664462C4369D1511C031C5546171C4C4682E6151C371C54E600238CE70022A4E767462F43002E00D0D4E0002F69
:4041C00000D126E15346034300D1E4E051464F19AF42AD4160446E4283191E0200D44EE197483D1C0340022101275FE661462943002E29D1002976D151460143B2D0031C50
:4042000055464C460121002750E61F1C203F011CF9400F1C202B00D1C6E04022D31A9840021C50460243531E9A413A4300278DE65B42002E30D167462F4300D0C8E0511CA2
:40424000031C5546171C31E6002965D15746074300D1C8E0031C802055464C460101774F24E68023371C19010426002337E6013F002F6ED154466146651B401A68E767467E
:404280003D430023002D00D15FE701255DE7802631010023042622E668498A4200D1C1E08027664639040E43B446382B00DDA2E01F2B00DDD0E02021C91A2E1C67468F4033
:4042C0008D40DE403E43291C67464D1EA941DF40351C0D433E1C554455459B4130185E428319171C3AE65646064354D05746EA1B63469542B641191A7342CB1A1E0200D428
:40430000A2E07D1B6446AA45BF41001B7A42831A4C4601210027C9E5564606433FD0624680215707ED08D3080A033D43134208D0C608164205D15546EC0845072543331C1A
:404340004C46680FDB0080260343ED0031013B4FACE53A498A4200D0E4E68026031C55464C463101171CA1E5002F4CD05346034315D062468026ED085107D30837030D435E
:404380003B42DED0C2083A42DBD15546E9084507131C0D43D5E763460121002786E5802739016346254F81E500223AE73C1C203C6646E640331C202F5FD04024E71B664664
:4043C000BE40311C0D43691E8D411D430023BCE6013B002B22D155445545BF417B426044C318171CBAE58021042200240901154B5642124F73E563461D430026002D00D13A
:4044000069E7012567E78022031C554611010B4F4CE5031C55460121002747E507498A4200D042E78021031C55460901171C3DE57F057F0D002600225EE5C046FF0700001A
:40444000FFFF7FFFFFFF7F001D1C154300D189E6151C0121002729E51F1C203F6146F940202B10D04026F31A67469F403B1C1D436B1E9D410D4300262DE70021A2E73D1C9B
:404480000121002712E50023F1E7C046134A0B0330B5051C48001C0BC90F430D0020934211DD0F4883420FDC802250030D4A0443D01A1F280BDD0C4DEB1ADC40221C5042D3
:4044C000002900D1101C30BD084C0819FBE7C54007482A1C1D18AC402243F0E7FE0300001D0400003304000013040000FFFFFF7FEDFBFFFFF8B5041E2DD0C50F00D0444293
:40450000201C00F063F816490A1A0A2816DD0B388440570526037A0D360B002700200021381C0F0D3B050F4C33431C401605344361004A08ED07111C2943F8BD0B26011CDE
:40454000301A1531231CC4408B40520521031F1C0E0B520DE2E70025002200260027DDE71E040000FFFF0F8070B5041E26D000F02DF814490A1A0A2813DD0B388440560548
:404580002403720D250B002600200021301C0E0D33050D4C2B4311051C400C436500690870BD0B23051C181A1535211CC440A940520525030E1C2D0B520DE5E7002200254C
:4045C0000026E1E71E040000FFFF0F801C2101231B04984201D3000C10391B0A984201D3000A08391B09984201D30009043902A2105C40187047C046040302020101010131
:4046000000000000000000000A4A00B51368002B0CD018186946884202D81060181C00BD054B0C2201201A604342F7E7034B1360EFE7C046D401002024030020280300206B
:40464000000000000000000048030000260400001C0400005C03000026040000260400002604000026040000260400002604000026040000260400002604000026040000A2
:4046800026040000700300002604000010040000260400002604000026040000F203000000300F40000400400F4000040400000043006E6600696E69747900616E0000007F
:4046C000BC89D897B2D29C3C33A7A8D523F649393DA7F444FD0FA5329D978CCF08BA5B25436FAC642806180E303132333435363738390061626364656600414243444546DB
:4047000000504F534958002E0000000000000000000000000000F03F000000000000244000000000000059400000000000408F40000000000088C34000000000006AF84050
:404740000000000080842E4100000000D01263410000000084D797410000000065CDCD41000000205FA00242000000E876483742000000A2941A6D42000040E59C30A24277
:404780000000901EC4BCD64200003426F56B0C430080E03779C3414300A0D8855734764300C84E676DC1AB43003D9160E458E143408CB5781DAF154450EFE2D6E41A4B4449
:4047C00092D54D06CFF08044F64AE1C7022DB544B49DD9794378EA4405000000190000007D000000000000000080E03779C34143176E05B5B5B89346F5F93FE9034F384D7C
:40480000321D30F94877825A3CBF737FDD4F1575C431000090330000843400002034000084340000FA33000084340000203400009033000090330000FA3300002034000006
:40484000A6340000A6340000A63400008C340000D4390000303C0000303C0000043C00007C3B00007C3B0000243C0000043C00007C3B0000243C00007C3B0000043C0000A9
:404880001C3C00001C3C00001C3C0000343C0000F8B5C046F8BC08BC9E46704795020000FD040000F8B5C046F8BC08BC9E4670476D020000C8480000C8000020E000000015
:4048C000800100000000000000000000C0F1FF0F00366E01C05D0000180000000000E02E000000000000000000000000000000000000000000000000000000000000000090
:40490000B046000000000000000000000000000000000000000000000000000000000000000000000000000000000000000000000000000000000000000000000000000081
:4049400000000000E000002035000000CEFBFFFFCB030000010000000000000034000000CEFBFFFFCB03000001000000000000000747000008470000084700000847000067
:40498000084700000847000008470000084700000847000008470000FFFFFFFFFFFFFFFFFFFFFFFFFFFF00000000000000000000000000000000000000000000000000002B
:4049C00000000000000000000000000000000000000000000000000000000000000000000000000000000000000000000000000000000000000000000000000000000000B7
:404A00000000000000000000000000000000000000000000000000000000000000000000000000000000000000000000000000000000000000000000000000000000000076
:404A40000000000000000000000000000000000000000000000000000000000000000000000000000000000000000000000000000000000000000000000000000000000036
:404A800000000000000000000000000000000000000000000000000000000000000000000000000000000000000000000000000000000000000000000000000000000000F6
:0200000490303A
:02000000D2D359
:0200000490402A
:200000000000000000000000000000000000000000000000000000000000000000000000E0
:0200000490501A
:0C000000000204C81193110104DFE46643
:0200000490600A
:0100000001FE
:00000001FF