:400000000010002011000000A9040000A904000080B500AF00F04CFA80B584B000AF021CFB1D1A70224A3B1C0B3312781A70214A3B1C0A3312781A701F4B1B68013BFB6087
:400040001AE01E4B1868391C0B31FA68131C5B009B18C31801331B780B70184B1868391C0A31FA68131C5B009B18C31802331B780B70FB68013BFB60FB68002B0ADB0F4B59
:400080001968FA68131C5B009B185B5CFA1D12789A42D6D90A4B3A1C0B3212781A60094B3A1C0A3212781A60BD4604B080BDC046CCF1FF0FCDF1FF0FD8290000CC000020E9
:4000C0001CFF0B4020FF0B4080B500AF164B164A12688021C9020A431A601820FFF79CFF124B19221A60052000F06AFC104B114A1278D2B21A60052000F0F6FC0A4B0A4A9A
:4001000011680D4A0A401A600C4B10221A600C4B822212061A600B4B802212061A600A4B0A4A1A60BD4680BD00010B402CFF0B4028FF0B40E5F1FF0FFFFFFBFF1C0202403E
:4001400008010B4004010B40000002400700008080B582B000AF72B6FB1D00221A7023E0FB1D1A78131C5B009B185B002C4A9B183B603B681A78597809020A43997809048B
:400180000A43DB781B0613431A1C3B6819795B791B020B439BB2101C191C00F00DFAFB1DFA1D127801321A70FB1D1B78012BD7D91C4BEE2212021A601B4B06221A601B4B69
:4001C00020221A601A4B06221A601A4B20221A60194BD82212011A60184B992212041A60174B992212041A60164B992212041A60154B154A1278D2B202210A43D2B21A70DE
:40020000114B114A1278D2B206210A43D2B21A70FFF75AFF00F0E0F9BD4602B080BDC046CC2900000C000140080004400002044008020440180204400803044000500F40F9
:4002400020500F4030500F4000700F4010B5064C2378002B07D10548002802D0044800E000BF0121217010BDE000002000000000C829000008B5084B002B03D0074808492B
:4002800000E000BF07480168002903D0064A002A00D0904708BDC04600000000C8290000E4000020C80000200000000080B582B000AF00F06DF800237B6000233B603A1DA4
:4002C0003B1C101C191C00F06FF8F2E780B500AFBD4680BD0000000090B587B000AF78603B1C173300221A703B1C163301221A703B1C16331B78181C00F03EFB00F09AFA41
:40030000022000F0A5FA3B1C17331B783C1C1434181C00F0C1FA031C23803B1C17331A783B1C143300215B5E101C191C00F0D6FA031C3B61386902F003FA031C0C1C181C05
:40034000211C104B0E4A01F02BF9031C0C1C181C211C02F049FA031CFB60F8680A4900F0C1FD031C181C094900F0ECFE031C1A1C7B681A600023181CBD4607B090BDC0461B
:400380006666666666660A400000FA420000C04080B500AF00F04CF900F018F800F01AF8FFF794FFBD4680BD80B582B000AF786039607B68181C00F013F83B68181CFFF709
:4003C0008BFF0023181CBD4602B080BD80B500AFBD4680BD80B500AFBD4680BD0000000090B587B000AF78603B1C173300221A703B1C17331B78181C00F0BEFA00F01AFA7E
:40040000022000F025FA3C1C1434002000F044FA031C23803B1C143300229B5E0020191C00F05CFA031C3B61386902F089F9031C0C1C181C211C174B154A01F0B1F8031C85
:400440000C1C181C211C02F0CFF9031CFB60F86802F076F9031C0C1C181C211C0E4A0F4B01F07AFB031C0C1C181C211C0C4A0D4B01F0E4FD031C0C1C181C211C02F0B4F98F
:40048000021C7B681A600023181CBD4607B090BD6666666666660A40D7A3703D0AF76540CDCCCCCCCC6C474080B500AFFEE7C04680B586B000AF254B7B61254B3B61234B49
:4004C0007B61234B3B6132E03B691B68FB603B695B68BB603B699B683B6000237B600CE0FB681A68BB681A60BB680433BB60FB680433FB607B6804337B607A683B689A4292
:40050000EED13B69DB683B6000237B6008E0BB6800221A60BB680433BB607B6804337B607A683B689A42F2D13B6910333B617B695A1E9341DBB27A69013A7A61002BC3D14F
:4005400002F012FAFFF7B2FEFEE7C04601000000042B000080B582B000AF00237B600FE07B68032B04D8104B7A689200D35800E00E4B0F4A796889008B507B6801337B6009
:400580007B682F2BECD9FFF7E3FD0A4B00221A608023DB058022D205126801210A431A60BD4602B080BDC04600000000A904000000000020C000002080B582B000AF786080
:4005C00039607A683B68101C00211A1C02F0F2F9BD4602B080BDC04680B500AF034B20221A60012000F004F8BD4680BD00031A4080B584B000AF021CFB1D1A700B4B1B683C
:40060000FB60FB1D1B78002B05D0FB68802212061343FB6003E0FB685B005B08FB60034BFA681A60BD4604B080BDC04680031A4080B500AF064B1B78002B04D100F00AF8CC
:40064000034B01221A7000F0E5F8BD4680BDC046FC00002090B585B000AF0E20032100F0E5F9534B0E20191C00F0BAF9514B01221A60514B514A1A60514B524A1A60524B2A
:40068000524A1A60524B00221A60524B524A1A60524B514A1A60524B514A1268802149020A431A604F4B00221A604F4B00221A604E4B01221A604E4B02221A604D4B1B682D
:4006C0007B607B68012213437B604A4B7A681A600023FB6066E0484BFA689200D258DC239B0113407B60FB689B00444A9B187A681A60414BFA689200D258012313400AD023
:40070000384B384A1168FA680120041C9440221C92B20A431A60384BFA689200D258022313400AD0304B304A1168FA680120041C9440221C92B20A431A602F4BFA689200EC
:40074000D25880239B00134003D080235B00BB6002E080235B01BB60274BFA689200D25880235B00134005D1254BFA6852000021D15204E0224BFA6852000021D152BB684B
:40078000204A5343204A9B18181C204900F00EFA031C9BB219B21E4BFA689200D150FB680133FB60FB68002B95D0BD4605B090BD5D09000020001A4000001A4070020051EB
:4007C00004001A408C00008018001A400000FF071C001A4010001A400400040014001A4000031A4028021A4038021A4018021A40000F1A4030001A40DC29000080001A4006
:400800000001002010270000E40C0000C81900000401002080B500AF054B054A1268802109060A431A600A2000F05EF9BD4680BD00001A4080B500AF044B044A126880214F
:4008400049020A431A60BD4680BDC04604001A4080B584B000AF78600023FB607A680323134011D00B4B1A6801231340FB60FB68002B03D17A6802231340F3D1FB68002B60
:4008800002D0044B01221A60FB68181CBD4604B080BDC04610021A4080B584B000AF78607B68002B02D0002000F014F97B68002B08D17B689B00084A9B181B681B041B0C5D
:4008C000FB6001E00023FB60FB689BB21BB2181CBD4604B080BDC04680011A4090B585B000AF78600A1CBB1C1A807B68002B02D0002000F0EFF8BB1C1A88154B7968490046
:40090000CB5A9BB29BB2D31A9AB2BB1C1A80BB1C00229B5E181C00F0EFFD031C181C0D4900F0E0FA031C1C1C0B4B7A689200D358181C00F0E1FD031C201C191C00F098F97A
:40094000031CFB60FB68181CBD4605B090BDC04600010020000020410401002080B582B000AF044B1B687B60024B7A681A60BD4602B080BD10021A4080B584B000AF021CB4
:40098000FB1D1A700D4B1B68DAB23B1C0F3301218A431A70FB1D1A7801231340D9B23B1C0F333A1C0F3212780A431A70034B3A1C0F3212781A60BD4604B080BD00000440BE
:4009C0000230800804D0C0460138FDD1C046C0467047EFF3108072B6704780F31088704780B584B000AF021C3960FB1D1A7080239B05FB60FB1D1B781F2B02D9002000F097
:400A000069F8FB1D1B7810339B00FA68D3181B68BB60FB1D1B7810339B00FA68D3183A681A60BB68181CBD4604B080BD90B587B000AF0A1CFB1D011C1970BB1D1A70BB1D5B
:400A40001B78032B02D9002000F044F8FB1D1B781F2B02D9002000F03DF8FB1D1A7803231340DB0006337B613C1C1334FFF7B1FF031C2370FB1D1B789B08DBB29B0014499C
:400A80005B181B68FB607B690322111C99400B1CDA43FB681340FB60BB1D1A787B69111C99400B1CFA681343FB60FB1D1B789B08DBB29B00064A9B18FA681A603B1C133301
:400AC0001B78181CFFF789FFBD4607B090BDC04600E400E080B582B000AF021CFB1D1A7001BEBD4602B080BD80B582B000AF021CBB1D1A80BB1D1B88044A12785343181C96
:400B0000FFF75EFFBD4602B080BDC046D8000020002934D00123002210B488422CD301242407A14204D2814202D209011B01F8E7E400A14204D2814202D249005B00F8E716
:400B4000884201D3401A1A434C08A04202D3001B5C0822438C08A04202D3001B9C082243CC08A04202D3001BDC082243002803D01B0901D00909E3E7101C10BC7047002830
:400B800001D00020C04307B4024802A14018029003BDC046D90000000029F0D003B5FFF7B9FF0EBC4243891A1847C046002941D010B4041C4C40A44601230022002900D592
:400BC0004942002800D5404288422CD301242407A14204D2814202D209011B01F8E7E400A14204D2814202D249005B00F8E7884201D3401A1A434C08A04202D3001B5C08E7
:400C000022438C08A04202D3001B9C082243CC08A04202D3001BDC082243002803D01B0901D00909E3E7101C6446002C00D5404210BC7047002806D003DB0020C043400802
:400C400001E08020000607B4024802A14018029003BDC046190000000029EBD003B5FFF7A7FF0EBC4243891A1847C0467047C046F0B55F4656464D464446F0B445024400FE
:400C800083B00E1C6D0A240EC70F002C07D1002D00D091E0042101228846924609E0FF2C55D08023180400210543ED007F3C88468A46331C58007602D90F760A000E8B46EB
:400CC0004CD101229446002E00D081E05B467B406246414601930A430F2A50D9201A690181467501A94200D3B3E00122534299441B2400260127621E381C10404B00760074
:400D0000002900DAA9E09D4200D8A6E0013C002C00DCABE000280CD0191C76005B00002901DB9D4201D85B1B3E43013C002C00DC9CE059007200002B01DB8D4201D8491BBD
:400D40003A43013C4B0056000029EADAEBE7002D2DD10820022180468A46AAE7FF2820D08022130400211E438C465B467B4062464146F6007F3801930A430F2AAED8564921
:400D800092008A589746019BFF260025F0052843DE07304303B03CBC90469946A246AB46F0BD331C5A1E934102339C468EE70C22032390469A467CE7281C01F0B7FD762249
:400DC000441F5342A5401C1A00208046824670E7301C01F0ABFD7623411F8E405A420021101A8C4672E700233C4DFF26CEE75F46351C01976346022BC5D0032B63D0012B11
:400E000043D049467F31002935DD0F272F40042F00D004352B0103D5314A494615408031FE29B0DCA801450ACEB2019BAEE700260025ABE78020C1030D4211D00E420FD133
:400E40000E4373025D0AFF265B469FE701975346D1E7491B1A2401264CE75B1B3E4355E70D436A02550A3B1CFF268FE71D1C6B1E9D413543C5E77E2467424A46B91A1B291E
:400E800008DD019B0026002580E7019D00262B4000257BE74E469E36281CB5402B1C5D1EAB41C84003430F251D40042D00D004335A0103D5019B0126002567E79C01650A6E
:400EC000019B002662E78027FC0325436E02750A019BFF265AE7C046E0290000FFFF7F00FFFFFFF7F0B55F4656464D464446F0B44502460083B00F1C6D0A360EC40F002E1A
:400F000006D1002D70D1042101228846924609E0FF2E43D08023180400210543ED007F3E88468A46381C43007F02C10F7F0A1B0E8B463AD10121002F62D158466040424625
:400F400001900A430F2A3FD92C04F018260C3B041A0C311C51433F0C2D0C7E436A438146080C36182C1CB3187C439A4200D99AE009041D04080C2E18B5011B0C691E8D41BC
:400F8000B20EE7181543BC0125432B014BD50120284001216D088944054344E0002D1ED10820022180468A46BCE7FF2B12D08022100407435846002160404246FF007F3B04
:400FC00001900A430F2ABFD890005B4A8446624410688746391C4A1E91410231ADE70C22032390469A469DE7281C01F09FFC7622461F5342B5401E1A00208046824691E7C0
:40100000381C01F093FC7621431F4A429F400021131A92E70194514602292CD0032900D180E0012948D04E467F36002E51DD0F242C40042C00D004352A0103D53F494E4623
:401040000D408036FE2E3DDD019B01241C40FF210025C805E2072843104303B03CBC90469946A246AB46F0BD0024354DFF21F0E751460229D2D1019D01242C40FF210025F5
:40108000E7E75E463D1C0196C6E73D1CC4E78026F3031D420BD01F4209D11F437A02550A5C46FF21D5E780225702E41960E71D436F027D0AFF21CCE7019B00251940CCB24F
:4010C0000021C6E70198AD0101246D0AF1B20440BFE77E2673424A469F1A1B2F05DD019D01242C4000210025B3E749469E312C1C8D402E1CFC40751EAE4126430F20304052
:40110000042800D00436700105D5019F01243C40012100259DE7019AB30101245D0A1440002196E78022D00305436C020199650A01240C40FF218CE7202A0000FFFFFFF7DF
:40114000FFFF7F00F8B5430245004F024C00C20F980984462D0E200EC90FBF09FF2854D0012671408A423BD02C1A002C00DC89E0002825D1002F4BD16E1C2C1C6346151C13
:401180000F221A40042A00D004338027F904012219402A40002906D0FF2E00D181E0B14D341C2B400136F6B2DD08012E62DD6B025D0AE4B2E4052543281CD2071043F8BDBC
:4011C000FF2D51D08021CB041F4301261B2C70DD67462C1CBB1B151C580122D4661CCFE72E1A002E76DD002832D0FF2D3CD08024E1040F4301231B2E00DCD1E063442C1CA3
:4012000058017AD4661C151CBAE7002FAAD1A7E7013C002C6DD163462C1CDB1B151C5801DCD59A019609301C01F080FB05388640844239DC001B1F231A1A331C311C441C55
:401240009340E1405E1EB3410B430126002497E7002F00D190E7013E002E03D164463B192C1CCDE7FF2DC5D1151C802263465600FF2485E7002D9CD0002C28D08020C703F7
:401280003D4394E7002C45D16B1CD8B2012800DC90E06446E61B730157D53E1B2C1C0D1CC1E7FF24002585E76E4B241A3340661C66E7381C2021E0400C1BA7403E1C771E0F
:4012C000BE41064367462C1CBB1B151C84E769024D0A6FE7002E79D16C1CE0B201284BDDFF2C00D198E061467F18AE1C7B08151C46E7FF2D00D068E7B6E7671CFF2F36D048
:4013000058480121194003405B08A61C0B433C1C151C35E76642002D1ED0FF286FD080256246EB041A43944601251B2E09DC62462023F24064469E1BB440251C6C1EA54122
:4013400015437B1B041C0D1C69E7002E0CD1002201260423002426E76446002C55D1461C3B1C041C0D1C0BE72C1C151C5BE780235E00FF24042316E7002D00D08DE0654632
:40138000002D00D1ADE0002F00D181E07B195C0100D47EE0334F151C3B4002260124EFE6381C2023F0409E1BB7403B1C5F1EBB41034323E7002D15D16546002D47D1002F05
:4013C000C5D03B1C0D1C01260024D9E67642002D26D16546002D00D07DE0461C3B1C041C151CCDE66546002D40D1002F07D1802100224E001C4BFF24D5E6FF2894D18020BE
:401400003B1C0D1C4600FF24BAE6013E002EF4D13B1B0D1C041C02E780256E000423C2E6FF2852D080246146E30419438C4601231B2E09DC20216446F44065468E1BB54024
:401440002B1C591E8B412343DB19041CD8E6002F1ED0EB1B58014BD57B1B01260D1C00248EE6C046FFFFFFFBFCFFFF03002F00D1FAE68020EB08C403234237D0FF0827427F
:4014800034D13B1C0D1C8022DB005600FF2477E66346151C0126002472E66446002C14D0002F00D1E0E68023E608D803311C064203D0F908014200D0311C151C8022CB0084
:4014C0005600FF245CE6FF28B1D180203B1C151C4600FF2454E6013E002EF4D17B19041C8EE63B1C151C0126002449E6151CCAE7002B00D12BE7CCE770B5041E3CD0C50F97
:4015000000D04442201C01F011FA9E21261C0B1A962B0ADC0838844061024C0ADBB2DB051C43ED07201C284370BD992B0ADD0522141A311CE140041C1B34A6400A1C711E87
:401540008E41164305281BDC144C0F2234401640042E00D00434620105D59F231B1AFF2B0CD00E4804405E1CF1B2E40801290ADD6402640ADBB2D2E7002500230024CEE761
:40158000411F8E40E0E7002CF4D0002B03D08022D0030443ECE76602740AC0E7FFFFFFFBF0B54D4644465F465646F0B41D1C4B00141C0E035B0DCA0F87B0071C360B98460E
:4015C0009146002B1DD1321C024300D181E1002E00D104E2301C01F0A9F9272800DDF8E12821031C083B0A1A391C9E40D1400E439F40C14B0021181A002280468A46009280
:401600000FE0BE48834231D080214B031E43BC487A0FF600002100231643FF0080448A460093291C201C251C4A000C03CB0F240B520D9B4625D1211C014300D150E1002C50
:4016400000D1C2E1201C01F071F9272800DDB6E1031C2822083B291C121A9C40D1400C439D40A54B1A1A0020029019E0321C3A4300D029E108270223BA46002600270093BE
:40168000CFE79E48824200D113E180214B031C439B49680FE40000230443ED005218029348465B46434002985146019301430F2900D8DFE043469A1A0492A64200D86EE1B6
:4016C00071087B08F6073343FA07894698460292280E240204432D022704390CAB46250C00914846291CFFF713FA009F061C4743291C4846FFF750FA434608041A0C104302
:40170000874207D90019013E844203D8874201D9013E0019C11B8A46081C291CFFF7F8F9009B071C4343291C50469946FFF734FA424610040B04010C0B43994504D91B19F9
:40174000013F9C4200D864E136043E435F464A46390C89469B1A59463204170C0A0449467943120C03928C460399300C7A4341434F4678438C44170C6744B94202D9802121
:4017800049024018390C120440183F04110C7F18834200D227E100D141E102991B1ACF1BB942804141425A1A9046A24200D15FE1101C291CFFF7ACF9009B02904343291C0E
:4017C00040469A46FFF7E8F9380C090401438A450AD9029A0919013A02928C4204D88A4502D9013A029209195346C81A291C0590FFF78EF9009A291C424380460598924622
:40180000FFF7CAF93F040D043A0C2A43924509D901214B4212199844944203D8924501D998441219029D43462F041F435046111A3804030C4D465D430398AC46039D3A0CA1
:40184000584355434B465A43AC44030C63449D4202D980256D0252191D0C000452191B04050C5B19914200D2E6E000D13DE1012217435AE0890023488C46604401688F4633
:40188000019B1E4A0026002700200021381C0F0D3C051D4D34431205254015436E00DB077108194307B03CBC90469946A246AB46F0BD211C03202943029000D0F0E60223F8
:4018C000002400250293EBE60C20032182460091A7E604270123BA46002600270093A0E60121002400250291DAE601270023074E7F42024AC8E7C0460DFCFFFFFF07000021
:4019000001FCFFFF602A0000FFFF0F80FFFF0F002F1C5A46029D261C0192022DB0D0032D00D101E1012D00D19CE0049B82481A18002A00DC8CE00F243C40042C05D03B1D03
:40194000BB42BF417D4276191F1CF10105D57B4A04998020C40016400A19794B9A4200DD8EE77507FF08760251052F43360B4A0D019B89E700220026002785E780200103FE
:401980000E4216D00C4214D10C432603360B5B462F1C6C4A78E74C460194009DBDE7A64243D00498B846013800270490B14602978EE60E4333031E0B624A4B4664E7041CB7
:4019C000283CA5402C1C00254BE600F0AFFF20303BE6061C283EB7403E1C002709E600F0A5FF2030F9E5029A013E111C59445945924152421219D3189C4204D298426BD8AF
:401A000016D01B1ACBE6A342FBD18B45F6D9231AC5E6994500D897E6013F1B1994E6029ABA42E0D302990023B9E6AF42B9D947E68F4251D80023B2E60919013F58468C42A6
:401A400019D9914200D012E7984200D00FE76CE73D4C049D631B382B1CDD019B00220026002711E7019B00222B40002600270BE701277F4259E78A4203D800D0F7E698421F
:401A8000E2D25D4668005845AD416D422C19013F0919D6E71F2B34DC049C2C4A381CA518311CAF40D840A9403C1C0143671EBC410F1C2743DE400F233B40042B05D03A1D32
:401AC000BA42BF417D427619171C320211D5019B012200260027D7E659445945924152421219D318013E1B1A59E6002BA4D10020AAE77007FF08710207430E0B019B0022B8
:401B0000C2E61349049C301C0A1BD040051C202B08D0104BE1188E4037437B1E9F412F430026C8E70026F7E780221003064331030E0B019B034AA7E6FF030000FFFFFFFE1E
:401B4000FE070000FF07000002FCFFFF1E040000E2FBFFFF3E040000F0B5564644465F464D46F0B44F001D1C0B03141C1A0B7B0D87B0061C92469846CF0F002B21D10243B6
:401B800000D149E15346002B00D1E4E1504600F0CDFE031E272B00DDD8E1083B5146994028228846111A321CCA4041460A4392469E40D84B0022181A0021804691460391D5
:401BC00011E0D54883423ED0802153464A031A43D000710F0843D14A824600230020F600904499460390291C201C251C4A000C03CB0F240B520D9B4631D1211C014300D16B
:401C000012E1002C00D19DE1201C00F08FFE272800DD91E1031C2822083B291C121A9C40D1400C439D40BB4B59461A1A794000204B46019103430F2B26D89900B84B8C46E8
:401C4000634419688F46111C314300D0DFE0082600200221B146824600260391C3E7AE48824200D1C9E080214B031C43AB49680FE4000443ED0052180020594679404B462B
:401C8000019103430F2BD8D942443304290404921A0C0F0C101C7843360C331C80462D0C7B43301C6843111C69439C4643468346180C08186044844500D91FE1010C434647
:401CC000039119040B0C0004C0182104240C0590101C6243090C02924843321C66434A43029BB146060C9046B4461A1C62444244904502D9802673029944160CB046C14430
:401D000000044B46060C12040293931956463204100C021C6A439C46031C7B439146320C574398461B0C9A46D144B94455434F4502D980277E02AD194B461F0C4646ED1945
:401D40001F0433041E0C031C4B436043514354431A0C8018B046401847449A46814202D980214E02A419039B1A1C62445A44624589414E425146B34603040E049C46029962
:401D8000330C6344CE18B046C246DA44D219BA42BF4151467B426F18F9189946DA459B415E42029BB3469845B64176425B461E43000C49459B41AF42AD4136186F425842DC
:401DC000384336180598341956020643CB0D6402701E8641D20D164349021C430E43E0012FD50127049D374073083E1CE00701351E4304950643640823E0231C2B43032030
:401E0000002B00D039E700240025022035E70C22032391460393E6E6042600230120B1469A4600260390DEE600240025012024E703985446022844D0032800D1EAE00128DA
:401E400060D0049A37495018002800DC95E00F273740042F05D0311DB142B641754264190E1CE10105D53048049A8023DF000440D0192E49884224DC019B6507F6086402BA
:401E8000420501272E43240B520D1F4000200021090D0D052543264C12052C4014436300301C5E08FF07311C394307B03CBC90469946A246AB46F0BD5A462E1C01920228C3
:401EC000BAD1019E01273740134A00240026DDE7544601970398ADE701260027154C76420D4AD3E72E1CA5E7802213035146194235D10B431D032C0B074AC7E780214B02BD
:401F00009B44DBE6019B00221840C7B200240026BCE7C0460DFCFFFFFF07000001FCFFFFA02A0000FF030000FFFFFFFEFE070000FFFF0F80FFFF0F00041C283CA5402C1C60
:401F4000002570E600F0F2FC203060E6283B9E40B24600262DE600F0E9FC203019E61C4206D11C432603340B5F462E1C2E4A8DE70B431803040B2C4A88E72C4F049D7B1BF6
:401F8000382B06DD019E012737400022002400267CE71F2B21DC049A254F351CD119201C8E40DD408840321C2843561EB241061C1643DC400F233340042B05D0371DB7429E
:401FC000B641714264183E1C250217D5019B01271F4001220024002658E71648049A211C871AF9400D1C202B12D0134BD01884402643721E96412E430024DBE7019A6507DE
:40200000F6086002012717402E43040B00223DE70024EDE780210F033C43019824030127240B0740004A31E7FF07000002FCFFFF1E040000E2FBFFFF3E040000F0B557468E
:402040004E464546E0B4071C0D034E00680ACC0F790F08438446111C18035A00FD00400ADF0F4B0F1843CA4BC900760D520D8A469A4200D1E0E001235F40B946BC4200D128
:40208000A8E0B71A002F00DC10E1002A12D15246024300D1D4E0013F002F00D060E151466F1ABD42AD4162466B42101A3D1CC31A371C24E0B64A964200D1E3E080210B04A7
:4020C0001843382F00DD23E11F2F00DD66E12021C91B021C53468A40FB401A4353468B40191C4B1E9941031C0A43FB40AA1A67469542AD41F81A6B42C31A151C371C1A0298
:4021000000D4C7E05E02710A88464246002A00D1F0E0404600F00AFC021C083A1F2A00DDF1E02823181A2E1C4146C6409140331C0B439540974200DDA9E0D01B411C1F29EF
:4021400000DD12E11F273A1A2E1C181CCE409040954030436A1E9541CB400543012100270F262E40042E00D172E02E1DAE42AD41684280221B180125100418402C40002891
:4021800007D0834FB94200D1B0E0824A0F1C13400131F20849055E073243DB08480D012800DC79E01B0378051E0B470D00200021090D7D050B05784F1E43101C37406A08A8
:4021C00017437E007108E40721431CBC90469946A246F0BDB31A002B00DCA6E0002A3ED06B4A96424ED080210F043843382B00DC18E15346184300270022002800D0012221
:402200005219AA42AD4167446B42FB18151C371C1E023FD55E487E1C864200D17BE15D4901222A400B406808151CD90705430D435B08B91C371C93E7014300D11BE71CE74B
:40224000711C371C0F2663462E40042E00D08CE7802201261004344018402E1C8FE752460243EDD0013B002B09D157467919A9429241554260444319371C0D1CC8E744493D
:402280008E42B3D1802063460101371C68E7BF1A404A1340791C63E7151C1D4300D121E2002F3ED0802631030B437BE7002F00D086E0721C51054B0D012B00DCF0E0574606
:4022C000EA1B95429B416746391A5B42C91A88460B0200D49DE05446651BAA459241C01B5742C31B9846371C4C460EE70F1C002600225BE7281C00F019FB2030021C083AE7
:402300001F2A00DC0DE7283885402B1C002511E75746384300230022002800D1E6E60122E4E61D032E0B002740E7002B00D0D9E0771C79054A0D012A00DC95E0144B9F426D
:4023400000D1FEE051464919A942AD4162466B428018C2184908D5070D435308B11CFFE60B498E4200D0ACE68CE7061C1F3E1F1CF7403E1C202973D03F22101A83401D430D
:402380006B1E9D413543012100230027E8E6C046FF070000FFFF7FFFFFFF0F803B1C203B011CD9400B1C202F5CD04022D71BB840021C50460243511E8A411A43002395E6EB
:4023C0007F42002E40D0CA4CA24200D11FE1802166460B041E43B446382F00DDA9E01F2F00DD3DE12023DE1B291C6446B440F940B5406B1E9D41214363460D43FB4057465D
:402400007D1BC01AAA459B415F42C31B4C46171C75E60D1C154320D100240121002304260027B6E61F2B4ADC2021C91A071C52468F40DA403A4357468F40391C4F1EB9411B
:40244000D8400A43071CDBE664462C4369D1511C031C5546171C4C4682E6151C371C54E600238CE70022A4E767462F43002E00D0D4E0002F00D126E15346034300D1E4E01F
:4024800051464F19AF42AD4160446E4283191E0200D44EE197483D1C0340022101275FE661462943002E29D1002976D151460143B2D0031C55464C460121002750E61F1C12
:4024C000203F011CF9400F1C202B00D1C6E04022D31A9840021C50460243531E9A413A4300278DE65B42002E30D167462F4300D0C8E0511C031C5546171C31E6002965D184
:402500005746074300D1C8E0031C802055464C460101774F24E68023371C19010426002337E6013F002F6ED154466146651B401A68E767463D430023002D00D15FE7012531
:402540005DE7802631010023042622E668498A4200D1C1E08027664639040E43B446382B00DDA2E01F2B00DDD0E02021C91A2E1C67468F408D40DE403E43291C67464D1ED4
:40258000A941DF40351C0D433E1C554455459B4130185E428319171C3AE65646064354D05746EA1B63469542B641191A7342CB1A1E0200D4A2E07D1B6446AA45BF41001B80
:4025C0007A42831A4C4601210027C9E5564606433FD0624680215707ED08D3080A033D43134208D0C608164205D15546EC0845072543331C4C46680FDB0080260343ED0089
:4026000031013B4FACE53A498A4200D0E4E68026031C55464C463101171CA1E5002F4CD05346034315D062468026ED085107D30837030D433B42DED0C2083A42DBD15546C0
:40264000E9084507131C0D43D5E763460121002786E5802739016346254F81E500223AE73C1C203C6646E640331C202F5FD04024E71B6646BE40311C0D43691E8D411D4329
:402680000023BCE6013B002B22D155445545BF417B426044C318171CBAE58021042200240901154B5642124F73E563461D430026002D00D169E7012567E78022031C5546C7
:4026C00011010B4F4CE5031C55460121002747E507498A4200D042E78021031C55460901171C3DE57F057F0D002600225EE5C046FF070000FFFF7FFFFFFF7F001D1C15430E
:4027000000D189E6151C0121002729E51F1C203F6146F940202B10D04026F31A67469F403B1C1D436B1E9D410D4300262DE70021A2E73D1C0121002712E50023F1E7C04641
:40274000410070B50E0E731C4202C50FD8B2540A012815DD6307E024A000120B341800200021181C0B0D1E051C4B324361054C08134023435A005608ED07311C294370BD25
:40278000002E16D1002C1ED0201C00F0CFF80A281DDC0B22111A021C231C1532CB4094401E1C231C34030E4E220B301A41054C0DD5E7002C03D06307120B0A4CCFE7094C2C
:4027C00000220023CBE7002400220023C7E7011C0B398C40261C0023E4E7C046FFFF0F8089030000FF070000F0B5041C4800400D0A03CD0F411C630F520A4F051A43E60044
:402800007B0D012B3BDD42494318FE2B2CDC002B4EDDA401770FD200611E8C413D4E224380193A430F261640042E47D18027FC0414401DD0FF2838D0374B1A40031C0130F8
:40284000C6B2D208012E17DC002A06D0002B29D08027FC03224351024A0ADBB2DB051A43ED07101C2843F0BD802148000422FF23C6B2D208012EE7DD51024A0AEDE70028F3
:4028800006D132430120002A15D104220023EFE71643E9D08024A004D20080260243FF237000BFE75002420AD8E7FF230022D5E7173305DA012005220023D9E70432B5E7AA
:4028C0008023164F19040A433C1A1F2C0DDC1449331C4718BE40301C461EB041BA40E34002431A43012000239CE70E4B171C191ACF403B1C202C09D00B4C001982403243BB
:40290000561EB2411A43012000238BE70022F6E780FCFFFF81FCFFFFFFFFFFFB9E03000082FCFFFF7E030000A2FCFFFF1C2101231B04984201D3000C10391B0A984201D3A1
:40294000000A08391B09984201D30009043902A2105C40187047C0460403020201010101000000000000000070B50E4B0E4D0024E81A85101E1CAC4204D0A10072589047EE
:402980000134F8E700F0ACF80849094A0E1C541AA5100024AC4204D0A300F05880470134F8E770BDEC2A0000EC2A0000EC2A0000F42A000000B58218031C934202D01970A7
:4029C0000133FAE700BD00000000000000300F40000400400F4000040400000000000000DC0C0000860D00002E0E0000EE0D00002E0E0000E60D00002E0E0000EE0D0000D3
:402A0000860D0000860D0000E60D0000EE0D00004C0E00004C0E00004C0E0000340E0000480F00008A1000008A10000082100000701000007010000068100000821000000B
:402A4000701000006810000070100000821000001410000014100000141000008E100000B416000080180000741900001019000074190000EA1800007419000010190000E5
:402A80008018000080180000EA180000101900009619000096190000961900007C190000881C0000E41E0000E41E0000B81E0000301E0000301E0000D81E0000B81E000033
:402AC000301E0000D81E0000301E0000B81E0000D01E0000D01E0000D01E0000E81E0000F8B5C046F8BC08BC9E4670477502000055050000F8B5C046F8BC08BC9E46704741
:402B00004D020000182B0000C800002018000000280000000000000000000000C0F1FF0F00366E01C05D0000180000000000E02E0000000000000000000000000000000034
:402B40000000000000000000000000000000000000000000000000000000000000000000000000000000000000000000000000000000000000000000000000000000000055
:402B80000000000000000000000000000000000000000000000000000000000000000000000000000000000000000000000000000000000000000000000000000000000015
:402BC00000000000000000000000000000000000000000000000000000000000000000000000000000000000000000000000000000000000000000000000000000000000D5
:402C00000000000000000000000000000000000000000000000000000000000000000000000000000000000000000000000000000000000000000000000000000000000094
:0200000490303A
:02000000E31407
:0200000490402A
:200000000000000000000000000000000000000000000000000000000000000000000000E0
:0200000490501A
:0C000000000204C81193110104D5F4A7FC
:0200000490600A
:0100000001FE
:00000001FF